{
  "address": "0x589226447D842e336DDc4C9971CEca24815808a2",
  "abi": [
    {
      "inputs": [],
      "stateMutability": "nonpayable",
      "type": "constructor"
    },
    {
      "inputs": [],
      "name": "AlreadyRegistered",
      "type": "error"
    },
    {
      "inputs": [],
      "name": "ContractPaused",
      "type": "error"
    },
    {
      "inputs": [],
      "name": "GameNotActive",
      "type": "error"
    },
    {
      "inputs": [],
      "name": "NotEnoughFunds",
      "type": "error"
    },
    {
      "inputs": [],
      "name": "NotEnoughMines",
      "type": "error"
    },
    {
      "inputs": [],
      "name": "NotEnoughTorpedoes",
      "type": "error"
    },
    {
      "inputs": [
        {
          "internalType": "uint256",
          "name": "_gameId",
          "type": "uint256"
        }
      ],
      "name": "NotInvited",
      "type": "error"
    },
    {
      "inputs": [],
      "name": "NotYourGame",
      "type": "error"
    },
    {
      "inputs": [],
      "name": "NotYourTurn",
      "type": "error"
    },
    {
      "anonymous": false,
      "inputs": [
        {
          "indexed": true,
          "internalType": "address",
          "name": "_player1Address",
          "type": "address"
        },
        {
          "indexed": true,
          "internalType": "address",
          "name": "_player2Address",
          "type": "address"
        },
        {
          "indexed": true,
          "internalType": "uint256",
          "name": "_gameId",
          "type": "uint256"
        }
      ],
      "name": "GameOver",
      "type": "event"
    },
    {
      "anonymous": false,
      "inputs": [
        {
          "indexed": true,
          "internalType": "address",
          "name": "_player1Address",
          "type": "address"
        },
        {
          "indexed": true,
          "internalType": "address",
          "name": "_player2Address",
          "type": "address"
        },
        {
          "indexed": true,
          "internalType": "uint256",
          "name": "_gameId",
          "type": "uint256"
        }
      ],
      "name": "GameStarted",
      "type": "event"
    },
    {
      "anonymous": false,
      "inputs": [
        {
          "indexed": true,
          "internalType": "address",
          "name": "_player1Address",
          "type": "address"
        },
        {
          "indexed": true,
          "internalType": "address",
          "name": "_player2Address",
          "type": "address"
        },
        {
          "indexed": true,
          "internalType": "uint256",
          "name": "_gameId",
          "type": "uint256"
        }
      ],
      "name": "InviteToGame",
      "type": "event"
    },
    {
      "anonymous": false,
      "inputs": [
        {
          "indexed": true,
          "internalType": "address",
          "name": "_player1Address",
          "type": "address"
        },
        {
          "indexed": true,
          "internalType": "address",
          "name": "_player2Address",
          "type": "address"
        },
        {
          "indexed": true,
          "internalType": "uint256",
          "name": "_gameId",
          "type": "uint256"
        }
      ],
      "name": "JoinGame",
      "type": "event"
    },
    {
      "anonymous": false,
      "inputs": [
        {
          "indexed": true,
          "internalType": "address",
          "name": "_player1Address",
          "type": "address"
        },
        {
          "indexed": true,
          "internalType": "uint256",
          "name": "_gameId",
          "type": "uint256"
        }
      ],
      "name": "OpenGameCreated",
      "type": "event"
    },
    {
      "anonymous": false,
      "inputs": [
        {
          "indexed": true,
          "internalType": "address",
          "name": "_player1Address",
          "type": "address"
        },
        {
          "indexed": true,
          "internalType": "address",
          "name": "_player2Address",
          "type": "address"
        },
        {
          "indexed": true,
          "internalType": "uint256",
          "name": "_gameId",
          "type": "uint256"
        }
      ],
      "name": "OpenGameJoined",
      "type": "event"
    },
    {
      "anonymous": false,
      "inputs": [
        {
          "indexed": true,
          "internalType": "address",
          "name": "previousOwner",
          "type": "address"
        },
        {
          "indexed": true,
          "internalType": "address",
          "name": "newOwner",
          "type": "address"
        }
      ],
      "name": "OwnershipTransferred",
      "type": "event"
    },
    {
      "inputs": [
        {
          "internalType": "uint256",
          "name": "_gameId",
          "type": "uint256"
        }
      ],
      "name": "acceptInvite",
      "outputs": [],
      "stateMutability": "payable",
      "type": "function"
    },
    {
      "inputs": [],
      "name": "active",
      "outputs": [
        {
          "internalType": "bool",
          "name": "",
          "type": "bool"
        }
      ],
      "stateMutability": "view",
      "type": "function"
    },
    {
      "inputs": [
        {
          "internalType": "uint256",
          "name": "_gameId",
          "type": "uint256"
        }
      ],
      "name": "endGame",
      "outputs": [],
      "stateMutability": "nonpayable",
      "type": "function"
    },
    {
      "inputs": [],
      "name": "feeBalance",
      "outputs": [
        {
          "internalType": "uint256",
          "name": "",
          "type": "uint256"
        }
      ],
      "stateMutability": "view",
      "type": "function"
    },
    {
      "inputs": [],
      "name": "feePercent",
      "outputs": [
        {
          "internalType": "uint256",
          "name": "",
          "type": "uint256"
        }
      ],
      "stateMutability": "view",
      "type": "function"
    },
    {
      "inputs": [],
      "name": "gameCost",
      "outputs": [
        {
          "internalType": "uint256",
          "name": "",
          "type": "uint256"
        }
      ],
      "stateMutability": "view",
      "type": "function"
    },
    {
      "inputs": [
        {
          "internalType": "uint256",
          "name": "",
          "type": "uint256"
        }
      ],
      "name": "games",
      "outputs": [
        {
          "internalType": "uint256",
          "name": "id",
          "type": "uint256"
        },
        {
          "internalType": "address",
          "name": "player1Address",
          "type": "address"
        },
        {
          "internalType": "address",
          "name": "player2Address",
          "type": "address"
        },
        {
          "components": [
            {
              "internalType": "address",
              "name": "ownerAddress",
              "type": "address"
            },
            {
              "components": [
                {
                  "internalType": "int256",
                  "name": "row",
                  "type": "int256"
                },
                {
                  "internalType": "int256",
                  "name": "col",
                  "type": "int256"
                }
              ],
              "internalType": "struct TheThirdLaw.Position",
              "name": "position",
              "type": "tuple"
            },
            {
              "components": [
                {
                  "internalType": "int256",
                  "name": "row",
                  "type": "int256"
                },
                {
                  "internalType": "int256",
                  "name": "col",
                  "type": "int256"
                }
              ],
              "internalType": "struct TheThirdLaw.Velocity",
              "name": "velocity",
              "type": "tuple"
            },
            {
              "internalType": "uint256",
              "name": "remainingTorpedoes",
              "type": "uint256"
            },
            {
              "internalType": "uint256",
              "name": "remainingMines",
              "type": "uint256"
            },
            {
              "components": [
                {
                  "components": [
                    {
                      "internalType": "int256",
                      "name": "row",
                      "type": "int256"
                    },
                    {
                      "internalType": "int256",
                      "name": "col",
                      "type": "int256"
                    }
                  ],
                  "internalType": "struct TheThirdLaw.Position",
                  "name": "position",
                  "type": "tuple"
                },
                {
                  "components": [
                    {
                      "internalType": "int256",
                      "name": "row",
                      "type": "int256"
                    },
                    {
                      "internalType": "int256",
                      "name": "col",
                      "type": "int256"
                    }
                  ],
                  "internalType": "struct TheThirdLaw.Velocity",
                  "name": "velocity",
                  "type": "tuple"
                },
                {
                  "internalType": "uint256",
                  "name": "remainingFuel",
                  "type": "uint256"
                }
              ],
              "internalType": "struct TheThirdLaw.Torpedo[]",
              "name": "torpedoes",
              "type": "tuple[]"
            },
            {
              "components": [
                {
                  "components": [
                    {
                      "internalType": "int256",
                      "name": "row",
                      "type": "int256"
                    },
                    {
                      "internalType": "int256",
                      "name": "col",
                      "type": "int256"
                    }
                  ],
                  "internalType": "struct TheThirdLaw.Position",
                  "name": "position",
                  "type": "tuple"
                }
              ],
              "internalType": "struct TheThirdLaw.Mine[]",
              "name": "mines",
              "type": "tuple[]"
            }
          ],
          "internalType": "struct TheThirdLaw.Ship",
          "name": "player1Ship",
          "type": "tuple"
        },
        {
          "components": [
            {
              "internalType": "address",
              "name": "ownerAddress",
              "type": "address"
            },
            {
              "components": [
                {
                  "internalType": "int256",
                  "name": "row",
                  "type": "int256"
                },
                {
                  "internalType": "int256",
                  "name": "col",
                  "type": "int256"
                }
              ],
              "internalType": "struct TheThirdLaw.Position",
              "name": "position",
              "type": "tuple"
            },
            {
              "components": [
                {
                  "internalType": "int256",
                  "name": "row",
                  "type": "int256"
                },
                {
                  "internalType": "int256",
                  "name": "col",
                  "type": "int256"
                }
              ],
              "internalType": "struct TheThirdLaw.Velocity",
              "name": "velocity",
              "type": "tuple"
            },
            {
              "internalType": "uint256",
              "name": "remainingTorpedoes",
              "type": "uint256"
            },
            {
              "internalType": "uint256",
              "name": "remainingMines",
              "type": "uint256"
            },
            {
              "components": [
                {
                  "components": [
                    {
                      "internalType": "int256",
                      "name": "row",
                      "type": "int256"
                    },
                    {
                      "internalType": "int256",
                      "name": "col",
                      "type": "int256"
                    }
                  ],
                  "internalType": "struct TheThirdLaw.Position",
                  "name": "position",
                  "type": "tuple"
                },
                {
                  "components": [
                    {
                      "internalType": "int256",
                      "name": "row",
                      "type": "int256"
                    },
                    {
                      "internalType": "int256",
                      "name": "col",
                      "type": "int256"
                    }
                  ],
                  "internalType": "struct TheThirdLaw.Velocity",
                  "name": "velocity",
                  "type": "tuple"
                },
                {
                  "internalType": "uint256",
                  "name": "remainingFuel",
                  "type": "uint256"
                }
              ],
              "internalType": "struct TheThirdLaw.Torpedo[]",
              "name": "torpedoes",
              "type": "tuple[]"
            },
            {
              "components": [
                {
                  "components": [
                    {
                      "internalType": "int256",
                      "name": "row",
                      "type": "int256"
                    },
                    {
                      "internalType": "int256",
                      "name": "col",
                      "type": "int256"
                    }
                  ],
                  "internalType": "struct TheThirdLaw.Position",
                  "name": "position",
                  "type": "tuple"
                }
              ],
              "internalType": "struct TheThirdLaw.Mine[]",
              "name": "mines",
              "type": "tuple[]"
            }
          ],
          "internalType": "struct TheThirdLaw.Ship",
          "name": "player2Ship",
          "type": "tuple"
        },
        {
          "internalType": "enum Status",
          "name": "status",
          "type": "uint8"
        },
        {
          "internalType": "uint256",
          "name": "value",
          "type": "uint256"
        },
        {
          "internalType": "address",
          "name": "currentPlayer",
          "type": "address"
        },
        {
          "internalType": "uint256",
          "name": "lastTurnTimestamp",
          "type": "uint256"
        }
      ],
      "stateMutability": "view",
      "type": "function"
    },
    {
      "inputs": [
        {
          "internalType": "uint256",
          "name": "_gameId",
          "type": "uint256"
        }
      ],
      "name": "getGame",
      "outputs": [
        {
          "components": [
            {
              "internalType": "uint256",
              "name": "id",
              "type": "uint256"
            },
            {
              "internalType": "address",
              "name": "player1Address",
              "type": "address"
            },
            {
              "internalType": "address",
              "name": "player2Address",
              "type": "address"
            },
            {
              "components": [
                {
                  "internalType": "address",
                  "name": "ownerAddress",
                  "type": "address"
                },
                {
                  "components": [
                    {
                      "internalType": "int256",
                      "name": "row",
                      "type": "int256"
                    },
                    {
                      "internalType": "int256",
                      "name": "col",
                      "type": "int256"
                    }
                  ],
                  "internalType": "struct TheThirdLaw.Position",
                  "name": "position",
                  "type": "tuple"
                },
                {
                  "components": [
                    {
                      "internalType": "int256",
                      "name": "row",
                      "type": "int256"
                    },
                    {
                      "internalType": "int256",
                      "name": "col",
                      "type": "int256"
                    }
                  ],
                  "internalType": "struct TheThirdLaw.Velocity",
                  "name": "velocity",
                  "type": "tuple"
                },
                {
                  "internalType": "uint256",
                  "name": "remainingTorpedoes",
                  "type": "uint256"
                },
                {
                  "internalType": "uint256",
                  "name": "remainingMines",
                  "type": "uint256"
                },
                {
                  "components": [
                    {
                      "components": [
                        {
                          "internalType": "int256",
                          "name": "row",
                          "type": "int256"
                        },
                        {
                          "internalType": "int256",
                          "name": "col",
                          "type": "int256"
                        }
                      ],
                      "internalType": "struct TheThirdLaw.Position",
                      "name": "position",
                      "type": "tuple"
                    },
                    {
                      "components": [
                        {
                          "internalType": "int256",
                          "name": "row",
                          "type": "int256"
                        },
                        {
                          "internalType": "int256",
                          "name": "col",
                          "type": "int256"
                        }
                      ],
                      "internalType": "struct TheThirdLaw.Velocity",
                      "name": "velocity",
                      "type": "tuple"
                    },
                    {
                      "internalType": "uint256",
                      "name": "remainingFuel",
                      "type": "uint256"
                    }
                  ],
                  "internalType": "struct TheThirdLaw.Torpedo[]",
                  "name": "torpedoes",
                  "type": "tuple[]"
                },
                {
                  "components": [
                    {
                      "components": [
                        {
                          "internalType": "int256",
                          "name": "row",
                          "type": "int256"
                        },
                        {
                          "internalType": "int256",
                          "name": "col",
                          "type": "int256"
                        }
                      ],
                      "internalType": "struct TheThirdLaw.Position",
                      "name": "position",
                      "type": "tuple"
                    }
                  ],
                  "internalType": "struct TheThirdLaw.Mine[]",
                  "name": "mines",
                  "type": "tuple[]"
                }
              ],
              "internalType": "struct TheThirdLaw.Ship",
              "name": "player1Ship",
              "type": "tuple"
            },
            {
              "components": [
                {
                  "internalType": "address",
                  "name": "ownerAddress",
                  "type": "address"
                },
                {
                  "components": [
                    {
                      "internalType": "int256",
                      "name": "row",
                      "type": "int256"
                    },
                    {
                      "internalType": "int256",
                      "name": "col",
                      "type": "int256"
                    }
                  ],
                  "internalType": "struct TheThirdLaw.Position",
                  "name": "position",
                  "type": "tuple"
                },
                {
                  "components": [
                    {
                      "internalType": "int256",
                      "name": "row",
                      "type": "int256"
                    },
                    {
                      "internalType": "int256",
                      "name": "col",
                      "type": "int256"
                    }
                  ],
                  "internalType": "struct TheThirdLaw.Velocity",
                  "name": "velocity",
                  "type": "tuple"
                },
                {
                  "internalType": "uint256",
                  "name": "remainingTorpedoes",
                  "type": "uint256"
                },
                {
                  "internalType": "uint256",
                  "name": "remainingMines",
                  "type": "uint256"
                },
                {
                  "components": [
                    {
                      "components": [
                        {
                          "internalType": "int256",
                          "name": "row",
                          "type": "int256"
                        },
                        {
                          "internalType": "int256",
                          "name": "col",
                          "type": "int256"
                        }
                      ],
                      "internalType": "struct TheThirdLaw.Position",
                      "name": "position",
                      "type": "tuple"
                    },
                    {
                      "components": [
                        {
                          "internalType": "int256",
                          "name": "row",
                          "type": "int256"
                        },
                        {
                          "internalType": "int256",
                          "name": "col",
                          "type": "int256"
                        }
                      ],
                      "internalType": "struct TheThirdLaw.Velocity",
                      "name": "velocity",
                      "type": "tuple"
                    },
                    {
                      "internalType": "uint256",
                      "name": "remainingFuel",
                      "type": "uint256"
                    }
                  ],
                  "internalType": "struct TheThirdLaw.Torpedo[]",
                  "name": "torpedoes",
                  "type": "tuple[]"
                },
                {
                  "components": [
                    {
                      "components": [
                        {
                          "internalType": "int256",
                          "name": "row",
                          "type": "int256"
                        },
                        {
                          "internalType": "int256",
                          "name": "col",
                          "type": "int256"
                        }
                      ],
                      "internalType": "struct TheThirdLaw.Position",
                      "name": "position",
                      "type": "tuple"
                    }
                  ],
                  "internalType": "struct TheThirdLaw.Mine[]",
                  "name": "mines",
                  "type": "tuple[]"
                }
              ],
              "internalType": "struct TheThirdLaw.Ship",
              "name": "player2Ship",
              "type": "tuple"
            },
            {
              "internalType": "enum Status",
              "name": "status",
              "type": "uint8"
            },
            {
              "internalType": "uint256",
              "name": "value",
              "type": "uint256"
            },
            {
              "internalType": "address",
              "name": "currentPlayer",
              "type": "address"
            },
            {
              "internalType": "uint256",
              "name": "lastTurnTimestamp",
              "type": "uint256"
            }
          ],
          "internalType": "struct TheThirdLaw.Game",
          "name": "",
          "type": "tuple"
        }
      ],
      "stateMutability": "view",
      "type": "function"
    },
    {
      "inputs": [
        {
          "internalType": "address",
          "name": "_playerAddress",
          "type": "address"
        }
      ],
      "name": "getGamesForPlayer",
      "outputs": [
        {
          "components": [
            {
              "internalType": "uint256",
              "name": "id",
              "type": "uint256"
            },
            {
              "internalType": "address",
              "name": "player1Address",
              "type": "address"
            },
            {
              "internalType": "address",
              "name": "player2Address",
              "type": "address"
            },
            {
              "components": [
                {
                  "internalType": "address",
                  "name": "ownerAddress",
                  "type": "address"
                },
                {
                  "components": [
                    {
                      "internalType": "int256",
                      "name": "row",
                      "type": "int256"
                    },
                    {
                      "internalType": "int256",
                      "name": "col",
                      "type": "int256"
                    }
                  ],
                  "internalType": "struct TheThirdLaw.Position",
                  "name": "position",
                  "type": "tuple"
                },
                {
                  "components": [
                    {
                      "internalType": "int256",
                      "name": "row",
                      "type": "int256"
                    },
                    {
                      "internalType": "int256",
                      "name": "col",
                      "type": "int256"
                    }
                  ],
                  "internalType": "struct TheThirdLaw.Velocity",
                  "name": "velocity",
                  "type": "tuple"
                },
                {
                  "internalType": "uint256",
                  "name": "remainingTorpedoes",
                  "type": "uint256"
                },
                {
                  "internalType": "uint256",
                  "name": "remainingMines",
                  "type": "uint256"
                },
                {
                  "components": [
                    {
                      "components": [
                        {
                          "internalType": "int256",
                          "name": "row",
                          "type": "int256"
                        },
                        {
                          "internalType": "int256",
                          "name": "col",
                          "type": "int256"
                        }
                      ],
                      "internalType": "struct TheThirdLaw.Position",
                      "name": "position",
                      "type": "tuple"
                    },
                    {
                      "components": [
                        {
                          "internalType": "int256",
                          "name": "row",
                          "type": "int256"
                        },
                        {
                          "internalType": "int256",
                          "name": "col",
                          "type": "int256"
                        }
                      ],
                      "internalType": "struct TheThirdLaw.Velocity",
                      "name": "velocity",
                      "type": "tuple"
                    },
                    {
                      "internalType": "uint256",
                      "name": "remainingFuel",
                      "type": "uint256"
                    }
                  ],
                  "internalType": "struct TheThirdLaw.Torpedo[]",
                  "name": "torpedoes",
                  "type": "tuple[]"
                },
                {
                  "components": [
                    {
                      "components": [
                        {
                          "internalType": "int256",
                          "name": "row",
                          "type": "int256"
                        },
                        {
                          "internalType": "int256",
                          "name": "col",
                          "type": "int256"
                        }
                      ],
                      "internalType": "struct TheThirdLaw.Position",
                      "name": "position",
                      "type": "tuple"
                    }
                  ],
                  "internalType": "struct TheThirdLaw.Mine[]",
                  "name": "mines",
                  "type": "tuple[]"
                }
              ],
              "internalType": "struct TheThirdLaw.Ship",
              "name": "player1Ship",
              "type": "tuple"
            },
            {
              "components": [
                {
                  "internalType": "address",
                  "name": "ownerAddress",
                  "type": "address"
                },
                {
                  "components": [
                    {
                      "internalType": "int256",
                      "name": "row",
                      "type": "int256"
                    },
                    {
                      "internalType": "int256",
                      "name": "col",
                      "type": "int256"
                    }
                  ],
                  "internalType": "struct TheThirdLaw.Position",
                  "name": "position",
                  "type": "tuple"
                },
                {
                  "components": [
                    {
                      "internalType": "int256",
                      "name": "row",
                      "type": "int256"
                    },
                    {
                      "internalType": "int256",
                      "name": "col",
                      "type": "int256"
                    }
                  ],
                  "internalType": "struct TheThirdLaw.Velocity",
                  "name": "velocity",
                  "type": "tuple"
                },
                {
                  "internalType": "uint256",
                  "name": "remainingTorpedoes",
                  "type": "uint256"
                },
                {
                  "internalType": "uint256",
                  "name": "remainingMines",
                  "type": "uint256"
                },
                {
                  "components": [
                    {
                      "components": [
                        {
                          "internalType": "int256",
                          "name": "row",
                          "type": "int256"
                        },
                        {
                          "internalType": "int256",
                          "name": "col",
                          "type": "int256"
                        }
                      ],
                      "internalType": "struct TheThirdLaw.Position",
                      "name": "position",
                      "type": "tuple"
                    },
                    {
                      "components": [
                        {
                          "internalType": "int256",
                          "name": "row",
                          "type": "int256"
                        },
                        {
                          "internalType": "int256",
                          "name": "col",
                          "type": "int256"
                        }
                      ],
                      "internalType": "struct TheThirdLaw.Velocity",
                      "name": "velocity",
                      "type": "tuple"
                    },
                    {
                      "internalType": "uint256",
                      "name": "remainingFuel",
                      "type": "uint256"
                    }
                  ],
                  "internalType": "struct TheThirdLaw.Torpedo[]",
                  "name": "torpedoes",
                  "type": "tuple[]"
                },
                {
                  "components": [
                    {
                      "components": [
                        {
                          "internalType": "int256",
                          "name": "row",
                          "type": "int256"
                        },
                        {
                          "internalType": "int256",
                          "name": "col",
                          "type": "int256"
                        }
                      ],
                      "internalType": "struct TheThirdLaw.Position",
                      "name": "position",
                      "type": "tuple"
                    }
                  ],
                  "internalType": "struct TheThirdLaw.Mine[]",
                  "name": "mines",
                  "type": "tuple[]"
                }
              ],
              "internalType": "struct TheThirdLaw.Ship",
              "name": "player2Ship",
              "type": "tuple"
            },
            {
              "internalType": "enum Status",
              "name": "status",
              "type": "uint8"
            },
            {
              "internalType": "uint256",
              "name": "value",
              "type": "uint256"
            },
            {
              "internalType": "address",
              "name": "currentPlayer",
              "type": "address"
            },
            {
              "internalType": "uint256",
              "name": "lastTurnTimestamp",
              "type": "uint256"
            }
          ],
          "internalType": "struct TheThirdLaw.Game[]",
          "name": "",
          "type": "tuple[]"
        }
      ],
      "stateMutability": "view",
      "type": "function"
    },
    {
      "inputs": [
        {
          "internalType": "address",
          "name": "_playerAddress",
          "type": "address"
        }
      ],
      "name": "getPlayer",
      "outputs": [
        {
          "components": [
            {
              "internalType": "address",
              "name": "ownerAddress",
              "type": "address"
            },
            {
              "internalType": "uint256[]",
              "name": "gameIds",
              "type": "uint256[]"
            },
            {
              "internalType": "uint256[]",
              "name": "inviteIds",
              "type": "uint256[]"
            },
            {
              "internalType": "uint256",
              "name": "victories",
              "type": "uint256"
            },
            {
              "internalType": "uint256",
              "name": "defaultVictories",
              "type": "uint256"
            },
            {
              "internalType": "uint256",
              "name": "defaultLosses",
              "type": "uint256"
            },
            {
              "internalType": "uint256",
              "name": "draws",
              "type": "uint256"
            },
            {
              "internalType": "uint256",
              "name": "losses",
              "type": "uint256"
            },
            {
              "internalType": "uint256",
              "name": "eloRating",
              "type": "uint256"
            },
            {
              "internalType": "uint256",
              "name": "currentShipId",
              "type": "uint256"
            }
          ],
          "internalType": "struct TheThirdLaw.Player",
          "name": "",
          "type": "tuple"
        }
      ],
      "stateMutability": "view",
      "type": "function"
    },
    {
      "inputs": [
        {
          "internalType": "address",
          "name": "_player2Address",
          "type": "address"
        }
      ],
      "name": "inviteToGame",
      "outputs": [],
      "stateMutability": "payable",
      "type": "function"
    },
    {
      "inputs": [],
      "name": "maxMines",
      "outputs": [
        {
          "internalType": "uint256",
          "name": "",
          "type": "uint256"
        }
      ],
      "stateMutability": "view",
      "type": "function"
    },
    {
      "inputs": [],
      "name": "maxTorpedoes",
      "outputs": [
        {
          "internalType": "uint256",
          "name": "",
          "type": "uint256"
        }
      ],
      "stateMutability": "view",
      "type": "function"
    },
    {
      "inputs": [],
      "name": "mineRange",
      "outputs": [
        {
          "internalType": "uint256",
          "name": "",
          "type": "uint256"
        }
      ],
      "stateMutability": "view",
      "type": "function"
    },
    {
      "inputs": [],
      "name": "owner",
      "outputs": [
        {
          "internalType": "address",
          "name": "",
          "type": "address"
        }
      ],
      "stateMutability": "view",
      "type": "function"
    },
    {
      "inputs": [],
      "name": "pause",
      "outputs": [],
      "stateMutability": "nonpayable",
      "type": "function"
    },
    {
      "inputs": [
        {
          "internalType": "address",
          "name": "",
          "type": "address"
        }
      ],
      "name": "players",
      "outputs": [
        {
          "internalType": "address",
          "name": "ownerAddress",
          "type": "address"
        },
        {
          "internalType": "uint256",
          "name": "victories",
          "type": "uint256"
        },
        {
          "internalType": "uint256",
          "name": "defaultVictories",
          "type": "uint256"
        },
        {
          "internalType": "uint256",
          "name": "defaultLosses",
          "type": "uint256"
        },
        {
          "internalType": "uint256",
          "name": "draws",
          "type": "uint256"
        },
        {
          "internalType": "uint256",
          "name": "losses",
          "type": "uint256"
        },
        {
          "internalType": "uint256",
          "name": "eloRating",
          "type": "uint256"
        },
        {
          "internalType": "uint256",
          "name": "currentShipId",
          "type": "uint256"
        }
      ],
      "stateMutability": "view",
      "type": "function"
    },
    {
      "inputs": [
        {
          "internalType": "uint256",
          "name": "_gameId",
          "type": "uint256"
        }
      ],
      "name": "rejectInvite",
      "outputs": [],
      "stateMutability": "nonpayable",
      "type": "function"
    },
    {
      "inputs": [],
      "name": "renounceOwnership",
      "outputs": [],
      "stateMutability": "nonpayable",
      "type": "function"
    },
    {
      "inputs": [
        {
          "internalType": "uint256",
          "name": "_feePercent",
          "type": "uint256"
        }
      ],
      "name": "setFeePercent",
      "outputs": [],
      "stateMutability": "nonpayable",
      "type": "function"
    },
    {
      "inputs": [
        {
          "internalType": "uint256",
          "name": "_gameCost",
          "type": "uint256"
        }
      ],
      "name": "setGameCost",
      "outputs": [],
      "stateMutability": "nonpayable",
      "type": "function"
    },
    {
      "inputs": [
        {
          "internalType": "uint256",
          "name": "_mineRange",
          "type": "uint256"
        }
      ],
      "name": "setMineRange",
      "outputs": [],
      "stateMutability": "nonpayable",
      "type": "function"
    },
    {
      "inputs": [
        {
          "internalType": "uint256",
          "name": "_maxMines",
          "type": "uint256"
        }
      ],
      "name": "setNumberMines",
      "outputs": [],
      "stateMutability": "nonpayable",
      "type": "function"
    },
    {
      "inputs": [
        {
          "internalType": "uint256",
          "name": "_maxTorpedoes",
          "type": "uint256"
        }
      ],
      "name": "setNumberTorpedoes",
      "outputs": [],
      "stateMutability": "nonpayable",
      "type": "function"
    },
    {
      "inputs": [
        {
          "internalType": "int256",
          "name": "_torpedoAccel",
          "type": "int256"
        }
      ],
      "name": "setTorpedoAccel",
      "outputs": [],
      "stateMutability": "nonpayable",
      "type": "function"
    },
    {
      "inputs": [
        {
          "internalType": "uint256",
          "name": "_torpedoFuel",
          "type": "uint256"
        }
      ],
      "name": "setTorpedoFuel",
      "outputs": [],
      "stateMutability": "nonpayable",
      "type": "function"
    },
    {
      "inputs": [
        {
          "internalType": "uint256",
          "name": "_gameId",
          "type": "uint256"
        },
        {
          "internalType": "enum LeftOrRight",
          "name": "_leftOrRight",
          "type": "uint8"
        },
        {
          "internalType": "enum UpOrDown",
          "name": "_upOrDown",
          "type": "uint8"
        },
        {
          "internalType": "enum Action",
          "name": "_action",
          "type": "uint8"
        }
      ],
      "name": "takeTurn",
      "outputs": [],
      "stateMutability": "nonpayable",
      "type": "function"
    },
    {
      "inputs": [],
      "name": "torpedoAccel",
      "outputs": [
        {
          "internalType": "int256",
          "name": "",
          "type": "int256"
        }
      ],
      "stateMutability": "view",
      "type": "function"
    },
    {
      "inputs": [],
      "name": "torpedoFuel",
      "outputs": [
        {
          "internalType": "uint256",
          "name": "",
          "type": "uint256"
        }
      ],
      "stateMutability": "view",
      "type": "function"
    },
    {
      "inputs": [],
      "name": "torpedoRange",
      "outputs": [
        {
          "internalType": "int256",
          "name": "",
          "type": "int256"
        }
      ],
      "stateMutability": "view",
      "type": "function"
    },
    {
      "inputs": [
        {
          "internalType": "address",
          "name": "newOwner",
          "type": "address"
        }
      ],
      "name": "transferOwnership",
      "outputs": [],
      "stateMutability": "nonpayable",
      "type": "function"
    },
    {
      "inputs": [],
      "name": "turnTimeout",
      "outputs": [
        {
          "internalType": "uint256",
          "name": "",
          "type": "uint256"
        }
      ],
      "stateMutability": "view",
      "type": "function"
    },
    {
      "inputs": [],
      "name": "withdrawFee",
      "outputs": [],
      "stateMutability": "nonpayable",
      "type": "function"
    }
  ],
  "transactionHash": "0xe0eefc49f3ea04656da48e0016b4f44551953a05c26b2b746f10cf08105e8113",
  "args": [],
  "numDeployments": 7,
  "solcInputHash": "b878ddd9ce60142583e8e5faedd2f7f2",
  "bytecode": "0x608060405266038d7ea4c68000600155600a6002556000600355600560045560058055600a600655600260075560016008556001600955620493e0600a556001600b60006101000a81548160ff0219169083151502179055506000600c55627e868d600d553480156200007157600080fd5b506200007d336200008f565b600f80546001018155600052620000df565b600080546001600160a01b038381166001600160a01b0319831681178455604051919092169283917f8be0079c531659141344cd1fd0a4f28419497f9722a3daafe3b4186f6b6457e09190a35050565b61380c80620000ef6000396000f3fe6080604052600436106101ee5760003560e01c80637f17b79d1161010d578063c15e7e30116100a0578063d0399bb81161006f578063d0399bb81461054c578063e2eb41ff1461056c578063e941fa7814610619578063f2fde38b1461062e578063f9d860731461064e57600080fd5b8063c15e7e30146104d6578063c2e80b47146104f6578063cab896dc14610516578063cd607b621461052c57600080fd5b806391c87671116100dc57806391c8767114610463578063a2f77bcc14610483578063b69667fe146104b0578063bf8e9176146104c357600080fd5b80637f17b79d146103f05780637fd6f15c146104105780638456cb59146104265780638da5cb5b1461043b57600080fd5b806356ce1175116101855780636cc4b0b7116101545780636cc4b0b71461038f5780636d64aa06146103a5578063715018a6146103bb5780637ce3489b146103d057600080fd5b806356ce1175146103165780635c12cd4b1461032c57806360b71d4e1461035957806367c5f6e51461036f57600080fd5b806341b02d71116101c157806341b02d71146102a857806346b9bfe4146102be5780634f764e35146102e0578063544722af1461030057600080fd5b806302fb0c5e146101f35780630aa1b26614610222578063117a5b901461024f5780633c6e43a914610284575b600080fd5b3480156101ff57600080fd5b50600b5461020d9060ff1681565b60405190151581526020015b60405180910390f35b34801561022e57600080fd5b5061024261023d366004613197565b610664565b6040516102199190613406565b34801561025b57600080fd5b5061026f61026a366004613468565b610b34565b60405161021999989796959493929190613481565b34801561029057600080fd5b5061029a60045481565b604051908152602001610219565b3480156102b457600080fd5b5061029a60085481565b3480156102ca57600080fd5b506102de6102d9366004613468565b610e91565b005b3480156102ec57600080fd5b506102de6102fb366004613468565b610e9e565b34801561030c57600080fd5b5061029a60075481565b34801561032257600080fd5b5061029a60055481565b34801561033857600080fd5b5061034c610347366004613197565b610eab565b604051610219919061352d565b34801561036557600080fd5b5061029a60035481565b34801561037b57600080fd5b506102de61038a366004613468565b611032565b34801561039b57600080fd5b5061029a600a5481565b3480156103b157600080fd5b5061029a60095481565b3480156103c757600080fd5b506102de61103f565b3480156103dc57600080fd5b506102de6103eb366004613468565b611053565b3480156103fc57600080fd5b506102de61040b366004613468565b611060565b34801561041c57600080fd5b5061029a60025481565b34801561043257600080fd5b506102de61106d565b34801561044757600080fd5b506000546040516001600160a01b039091168152602001610219565b34801561046f57600080fd5b506102de61047e366004613468565b611081565b34801561048f57600080fd5b506104a361049e366004613468565b611192565b60405161021991906135de565b6102de6104be366004613197565b611550565b6102de6104d1366004613468565b611761565b3480156104e257600080fd5b506102de6104f13660046135fe565b611887565b34801561050257600080fd5b506102de610511366004613468565b611c8b565b34801561052257600080fd5b5061029a60015481565b34801561053857600080fd5b506102de610547366004613468565b611c98565b34801561055857600080fd5b506102de610567366004613468565b611ca5565b34801561057857600080fd5b506105d4610587366004613197565b600e60205260009081526040902080546003820154600483015460058401546006850154600786015460088701546009909701546001600160a01b03909616969495939492939192909188565b604080516001600160a01b0390991689526020890197909752958701949094526060860192909252608085015260a084015260c083015260e082015261010001610219565b34801561062557600080fd5b506102de611d51565b34801561063a57600080fd5b506102de610649366004613197565b611d8f565b34801561065a57600080fd5b5061029a60065481565b6001600160a01b0381166000908152600e602090815260408083206001018054825181850281018501909352808352606094938301828280156106c657602002820191906000526020600020905b8154815260200190600101908083116106b2575b505050505090506000815167ffffffffffffffff8111156106e9576106e9613651565b60405190808252806020026020018201604052801561072257816020015b61070f61304c565b8152602001906001900390816107075790505b50905060005b8251811015610b2c57600f83828151811061074557610745613667565b60200260200101518154811061075d5761075d613667565b60009182526020808320604080516101208101825260199094029091018054845260018101546001600160a01b03908116858501526002820154811685840152825160e0810184526003830180549092168152835180850185526004840154815260058401548187015281860152835180850185526006840154815260078401548187015281850152600883015460608281019190915260098401546080830152600a8401805486518189028101890190975280875297989497918901969295939460a08701949391929184015b8282101561089b5760008481526020908190206040805160a08101825260058602909201805460608401908152600180830154608086015290845282518084018452600283015481526003830154818701528486015260049091015491830191909152908352909201910161082b565b50505050815260200160088201805480602002602001604051908101604052809291908181526020016000905b82821015610911576000848152602090819020604080516060810182526002860290920180548385019081526001918201549284019290925290825290835290920191016108c8565b5050509152505081526040805160e081018252600c840180546001600160a01b0316825282518084018452600d8601548152600e8601546020828101919091528381019190915283518085018552600f8701548152601087015481830152838501526011860154606084015260128601546080840152601386018054855181840281018401909652808652958201959394929360a08601939260009084015b82821015610a205760008481526020908190206040805160a0810182526005860290920180546060840190815260018083015460808601529084528251808401845260028301548152600383015481870152848601526004909101549183019190915290835290920191016109b0565b50505050815260200160088201805480602002602001604051908101604052809291908181526020016000905b82821015610a9657600084815260209081902060408051606081018252600286029092018054838501908152600191820154928401929092529082529083529092019101610a4d565b505050915250508152601582015460209091019060ff166007811115610abe57610abe61330f565b6007811115610acf57610acf61330f565b81526016820154602082015260178201546001600160a01b031660408201526018909101546060909101528251839083908110610b0e57610b0e613667565b60200260200101819052508080610b2490613693565b915050610728565b509392505050565b600f8181548110610b4457600080fd5b6000918252602080832060199092029091018054600182015460028301546040805160e0810182526003860180546001600160a01b03908116835283518085018552600489015481526005890154818b0152838a015283518085018552600689015481526007890154818b0152838501526008880154606084015260098801546080840152600a880180548551818c0281018c01909652808652979b50958116999416979195909460a0870194909284015b82821015610c665760008481526020908190206040805160a081018252600586029092018054606084019081526001808301546080860152908452825180840184526002830154815260038301548187015284860152600490910154918301919091529083529092019101610bf6565b50505050815260200160088201805480602002602001604051908101604052809291908181526020016000905b82821015610cdc57600084815260209081902060408051606081018252600286029092018054838501908152600191820154928401929092529082529083529092019101610c93565b505050915250506040805160e081018252600c840180546001600160a01b0316825282518084018452600d8601548152600e8601546020828101919091528084019190915283518085018552600f87015481526010870154818301528385015260118601546060840152601286015460808401526013860180548551818402810184019096528086529596959394929360a08601939260009084015b82821015610de85760008481526020908190206040805160a081018252600586029092018054606084019081526001808301546080860152908452825180840184526002830154815260038301548187015284860152600490910154918301919091529083529092019101610d78565b50505050815260200160088201805480602002602001604051908101604052809291908181526020016000905b82821015610e5e57600084815260209081902060408051606081018252600286029092018054838501908152600191820154928401929092529082529083529092019101610e15565b50505091525050601582015460168301546017840154601890940154929360ff9092169290916001600160a01b03169089565b610e99611e05565b600855565b610ea6611e05565b600755565b610f0a60405180610140016040528060006001600160a01b031681526020016060815260200160608152602001600081526020016000815260200160008152602001600081526020016000815260200160008152602001600081525090565b6001600160a01b038083166000908152600e602090815260409182902082516101408101845281549094168452600181018054845181850281018501909552808552919385840193909290830182828015610f8457602002820191906000526020600020905b815481526020019060010190808311610f70575b5050505050815260200160028201805480602002602001604051908101604052809291908181526020018280548015610fdc57602002820191906000526020600020905b815481526020019060010190808311610fc8575b505050505081526020016003820154815260200160048201548152602001600582015481526020016006820154815260200160078201548152602001600882015481526020016009820154815250509050919050565b61103a611e05565b600455565b611047611e05565b6110516000611e5f565b565b61105b611e05565b600255565b611068611e05565b600155565b611075611e05565b600b805460ff19169055565b336001600160a01b0316600f828154811061109e5761109e613667565b60009182526020909120600260199092020101546001600160a01b0316146110e15760405163da271c6960e01b8152600481018290526024015b60405180910390fd5b600f81815481106110f4576110f4613667565b9060005260206000209060190201601601546003600082825461111791906136ac565b925050819055506000600f828154811061113357611133613667565b9060005260206000209060190201601601819055506007600f828154811061115d5761115d613667565b60009182526020909120601560199092020101805460ff1916600183600781111561118a5761118a61330f565b021790555050565b61119a61304c565b600f82815481106111ad576111ad613667565b60009182526020808320604080516101208101825260199094029091018054845260018101546001600160a01b03908116858501526002820154811685840152825160e0810184526003830180549092168152835180850185526004840154815260058401548187015281860152835180850185526006840154815260078401548187015281850152600883015460608281019190915260098401546080830152600a8401805486518189028101890190975280875297989497918901969295939460a08701949391929184015b828210156112eb5760008481526020908190206040805160a08101825260058602909201805460608401908152600180830154608086015290845282518084018452600283015481526003830154818701528486015260049091015491830191909152908352909201910161127b565b50505050815260200160088201805480602002602001604051908101604052809291908181526020016000905b8282101561136157600084815260209081902060408051606081018252600286029092018054838501908152600191820154928401929092529082529083529092019101611318565b5050509152505081526040805160e081018252600c840180546001600160a01b0316825282518084018452600d8601548152600e8601546020828101919091528381019190915283518085018552600f8701548152601087015481830152838501526011860154606084015260128601546080840152601386018054855181840281018401909652808652958201959394929360a08601939260009084015b828210156114705760008481526020908190206040805160a081018252600586029092018054606084019081526001808301546080860152908452825180840184526002830154815260038301548187015284860152600490910154918301919091529083529092019101611400565b50505050815260200160088201805480602002602001604051908101604052809291908181526020016000905b828210156114e65760008481526020908190206040805160608101825260028602909201805483850190815260019182015492840192909252908252908352909201910161149d565b505050915250508152601582015460209091019060ff16600781111561150e5761150e61330f565b600781111561151f5761151f61330f565b81526016820154602082015260178201546001600160a01b0316604082015260189091015460609091015292915050565b600b5460ff166115735760405163ab35696f60e01b815260040160405180910390fd5b600154341461159557604051631036b5ad60e31b815260040160405180910390fd5b336000908152600e60205260409020546001600160a01b03166115bb576115bb33611eaf565b6001600160a01b038181166000908152600e6020526040902054166115e3576115e381611eaf565b600f8054600181018083556000839052909182918290811061160757611607613667565b90600052602060002090601902016000018190555033600f828154811061163057611630613667565b906000526020600020906019020160010160006101000a8154816001600160a01b0302191690836001600160a01b0316021790555081600f828154811061167957611679613667565b906000526020600020906019020160020160006101000a8154816001600160a01b0302191690836001600160a01b0316021790555034600f82815481106116c2576116c2613667565b600091825260208083206016601990930201919091019290925533808252600e83526040808320600190810180548083018255908552858520018690556001600160a01b038716808552828520808301805480850182559087528787200188905560020180549283018155855294842001859055518493927f64104361ad73841dc20b552e4700f3f464329596092336a5e3c02d8862623b6691a45050565b600154341461178357604051631036b5ad60e31b815260040160405180910390fd5b336001600160a01b0316600f82815481106117a0576117a0613667565b60009182526020909120600260199092020101546001600160a01b0316146117de5760405163da271c6960e01b8152600481018290526024016110d8565b34600f82815481106117f2576117f2613667565b9060005260206000209060190201601601600082825461181291906136ac565b90915550611821905081611ffa565b80336001600160a01b0316600f838154811061183f5761183f613667565b600091825260208220600160199092020101546040516001600160a01b03909116917fbfd436d24d21060f278a8b528282bc3a5bca811b5e108e411c10ca75d65f646791a450565b6000600f858154811061189c5761189c613667565b6000918252602090912060199091020190506006601582015460ff1660078111156118c9576118c961330f565b146118e65760405162a3097160e01b815260040160405180910390fd5b60178101546001600160a01b0316331461191357604051631cc191eb60e31b815260040160405180910390fd5b6001810154601782015460009182916001600160a01b0391821691160361194357505060038101600c820161194e565b5050600c8101600382015b60018660028111156119625761196261330f565b0361198a57600182600301600101600082825461197f91906136bf565b909155506119c19050565b600286600281111561199e5761199e61330f565b036119c15760018260030160010160008282546119bb91906136e6565b90915550505b60018560028111156119d5576119d561330f565b036119fd5760018260030160000160008282546119f291906136bf565b90915550611a349050565b6002856002811115611a1157611a1161330f565b03611a34576001826003016000016000828254611a2e91906136e6565b90915550505b6001846002811115611a4857611a4861330f565b03611b2a578160050154600003611a725760405163bab1d9e760e01b815260040160405180910390fd5b6001826005016000828254611a87919061370e565b90915550506040805160a08101825260018085015460608301908152600280870154608085015290835283518085018552600380880154825260048089015460208481019190915280870193845260065497870197885260078a0180548088018255600091825290829020975180516005909202909801908155968101519587019590955591518051938601939093559190920151908301559151910155611bd5565b6002846002811115611b3e57611b3e61330f565b03611bd5578160060154600003611b6857604051630adb358f60e11b815260040160405180910390fd5b6001826006016000828254611b7d919061370e565b9091555050604080516060810182526001808501546020808401918252600280880154958501959095529083526008860180548084018255600091825290829020935180519190950290930192835592909201519101555b611bde82612468565b611be883836124a7565b611bf28383612510565b611c0083838360080161258c565b611c0e838284600701612659565b426018840155600183015460178401546001600160a01b03918216911603611c5b5760028301546017840180546001600160a01b0319166001600160a01b03909216919091179055611c82565b60018301546017840180546001600160a01b0319166001600160a01b039092169190911790555b50505050505050565b611c93611e05565b600555565b611ca0611e05565b600655565b336001600160a01b0316600f8281548110611cc257611cc2613667565b60009182526020909120600160199092020101546001600160a01b031614801590611d255750336001600160a01b0316600f8281548110611d0557611d05613667565b60009182526020909120600260199092020101546001600160a01b031614155b15611d4357604051631794a8af60e11b815260040160405180910390fd5b611d4e816005612a85565b50565b611d59611e05565b600354604051339180156108fc02916000818181858888f19350505050158015611d87573d6000803e3d6000fd5b506000600355565b611d97611e05565b6001600160a01b038116611dfc5760405162461bcd60e51b815260206004820152602660248201527f4f776e61626c653a206e6577206f776e657220697320746865207a65726f206160448201526564647265737360d01b60648201526084016110d8565b611d4e81611e5f565b6000546001600160a01b031633146110515760405162461bcd60e51b815260206004820181905260248201527f4f776e61626c653a2063616c6c6572206973206e6f7420746865206f776e657260448201526064016110d8565b600080546001600160a01b038381166001600160a01b0319831681178455604051919092169283917f8be0079c531659141344cd1fd0a4f28419497f9722a3daafe3b4186f6b6457e09190a35050565b6001600160a01b038181166000908152600e60205260409020541615611ee857604051630ea075bf60e21b815260040160405180910390fd5b60408051610140810182526001600160a01b0383811680835283516000808252602080830187528086019283528651828152808201885286880152606086018290526080860182905260a0860182905260c0860182905260e086018290526104b06101008701526101208601829052928152600e835294909420835181546001600160a01b03191693169290921782559251805192939192611f9092600185019201906130bf565b5060408201518051611fac9160028401916020909101906130bf565b50606082015160038201556080820151600482015560a0820151600582015560c0820151600682015560e0820151600782015561010082015160088201556101209091015160099091015550565b6000600f828154811061200f5761200f613667565b906000526020600020906019020160030190506000600f838154811061203757612037613667565b600091825260208220600c601990920201019150612056600243613737565b1561206357600019612066565b60015b9050600f848154811061207b5761207b613667565b600091825260209091206001601990920201015483546001600160a01b0319166001600160a01b0390911617835560408051808201909152806120bf83600f61374b565b81526020016120ce600f61377b565b9052805160018501556020908101516002808601919091556040805180820190915260008082529201829052600385018290556004808601839055546005808701919091555460068601556121239042613737565b1561213057600019612133565b60015b9050600f858154811061214857612148613667565b600091825260209091206002601990920201015483546001600160a01b0319166001600160a01b03909116178355604080518082019091528061218c83600f61374b565b8152600f602091820152815160018601559081015160028086019190915560408051808201909152600080825292018290526003850182905560048086019290925590546005808601919091555460068501556121e99044613797565b60000361227557600f858154811061220357612203613667565b906000526020600020906019020160010160009054906101000a90046001600160a01b0316600f868154811061223b5761223b613667565b906000526020600020906019020160170160006101000a8154816001600160a01b0302191690836001600160a01b031602179055506122f6565b600f858154811061228857612288613667565b906000526020600020906019020160020160009054906101000a90046001600160a01b0316600f86815481106122c0576122c0613667565b906000526020600020906019020160170160006101000a8154816001600160a01b0302191690836001600160a01b031602179055505b6006600f868154811061230b5761230b613667565b60009182526020909120601560199092020101805460ff191660018360078111156123385761233861330f565b021790555060006064600254600f888154811061235757612357613667565b90600052602060002090601902016016015461237391906137ab565b61237d91906137c2565b9050806003600082825461239191906136ac565b9250508190555080600f87815481106123ac576123ac613667565b906000526020600020906019020160160160008282546123cc919061370e565b9250508190555085600f87815481106123e7576123e7613667565b6000918252602090912060026019909202010154600f80546001600160a01b03909216918990811061241b5761241b613667565b600091825260208220600160199092020101546040516001600160a01b03909116917fee0dca10a9957dad74da3fe318a3ccc561c46d96be0ab0b66e7aff32aab94cf391a4505050505050565b60038101546001820180546000906124819084906136e6565b9091555050600481015460028201805460009061249f9084906136e6565b909155505050565b60146124b98260010160000154612ff4565b13806124d4575060146124d28260010160010154612ff4565b135b156124ff57600182015481546001600160a01b039182169116036125035781546124ff906003612a85565b5050565b81546124ff906004612a85565b600a61255482600101604051806040016040529081600082015481526020016001820154815250506040518060400160405280600081526020016000815250613011565b116124ff57600182015481546001600160a01b0391821691160361257f5781546124ff906001612a85565b81546124ff906002612a85565b60005b815481101561265357600754604080518082019091526001850154815260028501546020820152835461260491908590859081106125cf576125cf613667565b906000526020600020906002020160000160405180604001604052908160008201548152602001600182015481525050613011565b1161264157600184015483546001600160a01b0391821691160361263457835461262f906001612a85565b612641565b8354612641906002612a85565b8061264b81613693565b91505061258f565b50505050565b60005b81548110156126535781818154811061267757612677613667565b90600052602060002090600502016004015460000315612a735760018282815481106126a5576126a5613667565b906000526020600020906005020160040160008282546126c5919061370e565b9250508190555060008282815481106126e0576126e0613667565b6000918252602090912060059091020154600185015461270091906136bf565b9050600083838154811061271657612716613667565b6000918252602090912060016005909202010154600286015461273991906136bf565b9050600082131561278657600184848154811061275857612758613667565b9060005260206000209060050201600201600001600082825461277b91906136e6565b909155506127cc9050565b60008212156127cc5760018484815481106127a3576127a3613667565b906000526020600020906005020160020160000160008282546127c691906136bf565b90915550505b60008113156128175760018484815481106127e9576127e9613667565b9060005260206000209060050201600201600101600082825461280c91906136e6565b9091555061285d9050565b600081121561285d57600184848154811061283457612834613667565b9060005260206000209060050201600201600101600082825461285791906136bf565b90915550505b83838154811061286f5761286f613667565b90600052602060002090600502016002016000015484848154811061289657612896613667565b906000526020600020906005020160000160000160008282546128b991906136e6565b925050819055508383815481106128d2576128d2613667565b9060005260206000209060050201600201600101548484815481106128f9576128f9613667565b9060005260206000209060050201600001600101600082825461291c91906136e6565b92505081905550600954612963866001016000015486868154811061294357612943613667565b600091825260209091206005909102015461295e91906136bf565b612ff4565b131580156129ae57506009546129ab866001016001015486868154811061298c5761298c613667565b90600052602060002090600502016000016001015461295e91906136bf565b13155b156129eb57600186015485546001600160a01b039182169116036129de5785546129d9906001612a85565b6129eb565b85546129eb906002612a85565b600a612a41858581548110612a0257612a02613667565b60009182526020808320604080518082018252600590940290910180548452600101548383015280518082019091528381529081019290925290613011565b11612a70576000848481548110612a5a57612a5a613667565b9060005260206000209060050201600401819055505b50505b80612a7d81613693565b91505061265c565b6000600f8381548110612a9a57612a9a613667565b90600052602060002090601902019050818160150160006101000a81548160ff02191690836007811115612ad057612ad061330f565b02179055506017810180546001600160a01b03191690556001826007811115612afb57612afb61330f565b03612bba5760028101546001600160a01b03166000908152600e60205260408120600301805460019290612b309084906136ac565b90915550506001818101546001600160a01b03166000908152600e602052604081206007018054909190612b659084906136ac565b9091555050601681018054600091829055600283015460405191926001600160a01b039091169183156108fc0291849190818181858888f19350505050158015612bb3573d6000803e3d6000fd5b5050612fac565b6002826007811115612bce57612bce61330f565b03612c94576001818101546001600160a01b03166000908152600e602052604081206003018054909190612c039084906136ac565b909155505060028101546001600160a01b03166000908152600e60205260408120600701805460019290612c389084906136ac565b9091555050601681018054600091829055600183015460405191926001600160a01b039091169183156108fc0291849190818181858888f19350505050158015612c86573d6000803e3d6000fd5b505060006016820155612fac565b6003826007811115612ca857612ca861330f565b03612da45760028101546001600160a01b03166000908152600e60205260408120600401805460019290612cdd9084906136ac565b90915550506001818101546001600160a01b03166000908152600e602052604081206005018054909190612d129084906136ac565b9091555050601681018054600091829055906064612d3183604b6137ab565b612d3b91906137c2565b60028401546040519192506001600160a01b03169082156108fc029083906000818181858888f19350505050158015612d78573d6000803e3d6000fd5b50612d83818361370e565b91508160036000828254612d9791906136ac565b90915550612fac92505050565b6004826007811115612db857612db861330f565b03612e88576001818101546001600160a01b03166000908152600e602052604081206004018054909190612ded9084906136ac565b909155505060028101546001600160a01b03166000908152600e60205260408120600501805460019290612e229084906136ac565b9091555050601681018054600091829055906064612e4183604b6137ab565b612e4b91906137c2565b60018401546040519192506001600160a01b03169082156108fc029083906000818181858888f19350505050158015612d78573d6000803e3d6000fd5b6005826007811115612e9c57612e9c61330f565b03612fac576001818101546001600160a01b03166000908152600e602052604081206006018054909190612ed19084906136ac565b909155505060028101546001600160a01b03166000908152600e60205260408120600601805460019290612f069084906136ac565b909155505060168101805460009182905590612f236002836137c2565b60018401546040519192506001600160a01b03169082156108fc029083906000818181858888f19350505050158015612f60573d6000803e3d6000fd5b50612f6b818361370e565b60028401546040519193506001600160a01b03169083156108fc029084906000818181858888f19350505050158015612fa8573d6000803e3d6000fd5b5050505b6002810154600182015460405185926001600160a01b039081169216907fd13e8f06e2982264b04d30acdae3d74f4241e1dde5c38af5f6a38820d14348f590600090a4505050565b60008082121561300d576130078261377b565b92915050565b5090565b600061302a8260200151846020015161295e91906136bf565b8251845161303b9161295e916136bf565b61304591906136e6565b9392505050565b6040518061012001604052806000815260200160006001600160a01b0316815260200160006001600160a01b03168152602001613087613106565b8152602001613094613106565b8152602001600081526020016000815260200160006001600160a01b03168152602001600081525090565b8280548282559060005260206000209081019282156130fa579160200282015b828111156130fa5782518255916020019190600101906130df565b5061300d929150613182565b6040518060e0016040528060006001600160a01b0316815260200161313e604051806040016040528060008152602001600081525090565b8152602001613160604051806040016040528060008152602001600081525090565b8152602001600081526020016000815260200160608152602001606081525090565b5b8082111561300d5760008155600101613183565b6000602082840312156131a957600080fd5b81356001600160a01b038116811461304557600080fd5b600081518084526020808501945080840160005b83811015613205576131f28783515180518252602090810151910152565b60409690960195908201906001016131d4565b509495945050505050565b80516001600160a01b0316825260208082015180518285015280820151604085015260009161012091858301919050604085810151805160608901526020810151608089015250606086015160a08881019190915260808088015160c08a01528188015160e08a01969096528551948590526101408901958401949091906000905b808210156132e75786516132b189825180518252602090810151910152565b868101516132cb878b018280518252602090810151910152565b5085015188850152968201969585019560019190910190613292565b5050505050505060c083015184820361010086015261330682826131c0565b95945050505050565b634e487b7160e01b600052602160045260246000fd5b6008811061334357634e487b7160e01b600052602160045260246000fd5b9052565b600061012082518452602083015161336a60208601826001600160a01b03169052565b50604083015161338560408601826001600160a01b03169052565b50606083015181606086015261339d82860182613210565b915050608083015184820360808601526133b78282613210565b91505060a08301516133cc60a0860182613325565b5060c083015160c085015260e08301516133f160e08601826001600160a01b03169052565b50610100928301519390920192909252919050565b6000602080830181845280855180835260408601915060408160051b870101925083870160005b8281101561345b57603f19888603018452613449858351613347565b9450928501929085019060010161342d565b5092979650505050505050565b60006020828403121561347a57600080fd5b5035919050565b8981526001600160a01b0389811660208301528881166040830152610120606083018190526000916134b58483018b613210565b915083820360808501526134c9828a613210565b92506134d860a0850189613325565b8660c085015280861660e08501525050826101008301529a9950505050505050505050565b600081518084526020808501945080840160005b8381101561320557815187529582019590820190600101613511565b602081526135476020820183516001600160a01b03169052565b600060208301516101408060408501526135656101608501836134fd565b91506040850151601f1985840301606086015261358283826134fd565b92505060608501516080850152608085015160a085015260a085015160c085015260c085015160e085015260e0850151610100818187015280870151915050610120818187015280870151838701525050508091505092915050565b6020815260006130456020830184613347565b60038110611d4e57600080fd5b6000806000806080858703121561361457600080fd5b843593506020850135613626816135f1565b92506040850135613636816135f1565b91506060850135613646816135f1565b939692955090935050565b634e487b7160e01b600052604160045260246000fd5b634e487b7160e01b600052603260045260246000fd5b634e487b7160e01b600052601160045260246000fd5b6000600182016136a5576136a561367d565b5060010190565b808201808211156130075761300761367d565b81810360008312801583831316838312821617156136df576136df61367d565b5092915050565b80820182811260008312801582168215821617156137065761370661367d565b505092915050565b818103818111156130075761300761367d565b634e487b7160e01b600052601260045260246000fd5b60008261374657613746613721565b500790565b80820260008212600160ff1b841416156137675761376761367d565b81810583148215176130075761300761367d565b6000600160ff1b82016137905761379061367d565b5060000390565b6000826137a6576137a6613721565b500690565b80820281158282048414176130075761300761367d565b6000826137d1576137d1613721565b50049056fea264697066735822122055d5b126b4112d30dc0f52e8ab2db27af4197f87938a90ecd110cd24fadf0b9b64736f6c63430008130033",
  "devdoc": {
    "kind": "dev",
    "methods": {
      "owner()": {
        "details": "Returns the address of the current owner."
      },
      "renounceOwnership()": {
        "details": "Leaves the contract without owner. It will not be possible to call `onlyOwner` functions. Can only be called by the current owner. NOTE: Renouncing ownership will leave the contract without an owner, thereby disabling any functionality that is only available to the owner."
      },
      "transferOwnership(address)": {
        "details": "Transfers ownership of the contract to a new account (`newOwner`). Can only be called by the current owner."
      }
    },
    "version": 1
  },
  "userdoc": {
    "kind": "user",
    "methods": {},
    "version": 1
  },
  "storageLayout": {
    "storage": [
      {
        "astId": 7,
        "contract": "contracts/TheThirdLaw.sol:TheThirdLaw",
        "label": "_owner",
        "offset": 0,
        "slot": "0",
        "type": "t_address"
      },
      {
        "astId": 197,
        "contract": "contracts/TheThirdLaw.sol:TheThirdLaw",
        "label": "gameCost",
        "offset": 0,
        "slot": "1",
        "type": "t_uint256"
      },
      {
        "astId": 200,
        "contract": "contracts/TheThirdLaw.sol:TheThirdLaw",
        "label": "feePercent",
        "offset": 0,
        "slot": "2",
        "type": "t_uint256"
      },
      {
        "astId": 203,
        "contract": "contracts/TheThirdLaw.sol:TheThirdLaw",
        "label": "feeBalance",
        "offset": 0,
        "slot": "3",
        "type": "t_uint256"
      },
      {
        "astId": 206,
        "contract": "contracts/TheThirdLaw.sol:TheThirdLaw",
        "label": "maxTorpedoes",
        "offset": 0,
        "slot": "4",
        "type": "t_uint256"
      },
      {
        "astId": 209,
        "contract": "contracts/TheThirdLaw.sol:TheThirdLaw",
        "label": "maxMines",
        "offset": 0,
        "slot": "5",
        "type": "t_uint256"
      },
      {
        "astId": 212,
        "contract": "contracts/TheThirdLaw.sol:TheThirdLaw",
        "label": "torpedoFuel",
        "offset": 0,
        "slot": "6",
        "type": "t_uint256"
      },
      {
        "astId": 215,
        "contract": "contracts/TheThirdLaw.sol:TheThirdLaw",
        "label": "mineRange",
        "offset": 0,
        "slot": "7",
        "type": "t_uint256"
      },
      {
        "astId": 218,
        "contract": "contracts/TheThirdLaw.sol:TheThirdLaw",
        "label": "torpedoAccel",
        "offset": 0,
        "slot": "8",
        "type": "t_int256"
      },
      {
        "astId": 221,
        "contract": "contracts/TheThirdLaw.sol:TheThirdLaw",
        "label": "torpedoRange",
        "offset": 0,
        "slot": "9",
        "type": "t_int256"
      },
      {
        "astId": 228,
        "contract": "contracts/TheThirdLaw.sol:TheThirdLaw",
        "label": "turnTimeout",
        "offset": 0,
        "slot": "10",
        "type": "t_uint256"
      },
      {
        "astId": 231,
        "contract": "contracts/TheThirdLaw.sol:TheThirdLaw",
        "label": "active",
        "offset": 0,
        "slot": "11",
        "type": "t_bool"
      },
      {
        "astId": 234,
        "contract": "contracts/TheThirdLaw.sol:TheThirdLaw",
        "label": "openGameId",
        "offset": 0,
        "slot": "12",
        "type": "t_uint256"
      },
      {
        "astId": 237,
        "contract": "contracts/TheThirdLaw.sol:TheThirdLaw",
        "label": "insecureSeed",
        "offset": 0,
        "slot": "13",
        "type": "t_uint256"
      },
      {
        "astId": 242,
        "contract": "contracts/TheThirdLaw.sol:TheThirdLaw",
        "label": "players",
        "offset": 0,
        "slot": "14",
        "type": "t_mapping(t_address,t_struct(Player)337_storage)"
      },
      {
        "astId": 246,
        "contract": "contracts/TheThirdLaw.sol:TheThirdLaw",
        "label": "games",
        "offset": 0,
        "slot": "15",
        "type": "t_array(t_struct(Game)314_storage)dyn_storage"
      }
    ],
    "types": {
      "t_address": {
        "encoding": "inplace",
        "label": "address",
        "numberOfBytes": "20"
      },
      "t_array(t_struct(Game)314_storage)dyn_storage": {
        "base": "t_struct(Game)314_storage",
        "encoding": "dynamic_array",
        "label": "struct TheThirdLaw.Game[]",
        "numberOfBytes": "32"
      },
      "t_array(t_struct(Mine)371_storage)dyn_storage": {
        "base": "t_struct(Mine)371_storage",
        "encoding": "dynamic_array",
        "label": "struct TheThirdLaw.Mine[]",
        "numberOfBytes": "32"
      },
      "t_array(t_struct(Torpedo)367_storage)dyn_storage": {
        "base": "t_struct(Torpedo)367_storage",
        "encoding": "dynamic_array",
        "label": "struct TheThirdLaw.Torpedo[]",
        "numberOfBytes": "32"
      },
      "t_array(t_uint256)dyn_storage": {
        "base": "t_uint256",
        "encoding": "dynamic_array",
        "label": "uint256[]",
        "numberOfBytes": "32"
      },
      "t_bool": {
        "encoding": "inplace",
        "label": "bool",
        "numberOfBytes": "1"
      },
      "t_enum(Status)192": {
        "encoding": "inplace",
        "label": "enum Status",
        "numberOfBytes": "1"
      },
      "t_int256": {
        "encoding": "inplace",
        "label": "int256",
        "numberOfBytes": "32"
      },
      "t_mapping(t_address,t_struct(Player)337_storage)": {
        "encoding": "mapping",
        "key": "t_address",
        "label": "mapping(address => struct TheThirdLaw.Player)",
        "numberOfBytes": "32",
        "value": "t_struct(Player)337_storage"
      },
      "t_struct(Game)314_storage": {
        "encoding": "inplace",
        "label": "struct TheThirdLaw.Game",
        "members": [
          {
            "astId": 294,
            "contract": "contracts/TheThirdLaw.sol:TheThirdLaw",
            "label": "id",
            "offset": 0,
            "slot": "0",
            "type": "t_uint256"
          },
          {
            "astId": 296,
            "contract": "contracts/TheThirdLaw.sol:TheThirdLaw",
            "label": "player1Address",
            "offset": 0,
            "slot": "1",
            "type": "t_address"
          },
          {
            "astId": 298,
            "contract": "contracts/TheThirdLaw.sol:TheThirdLaw",
            "label": "player2Address",
            "offset": 0,
            "slot": "2",
            "type": "t_address"
          },
          {
            "astId": 301,
            "contract": "contracts/TheThirdLaw.sol:TheThirdLaw",
            "label": "player1Ship",
            "offset": 0,
            "slot": "3",
            "type": "t_struct(Ship)358_storage"
          },
          {
            "astId": 304,
            "contract": "contracts/TheThirdLaw.sol:TheThirdLaw",
            "label": "player2Ship",
            "offset": 0,
            "slot": "12",
            "type": "t_struct(Ship)358_storage"
          },
          {
            "astId": 307,
            "contract": "contracts/TheThirdLaw.sol:TheThirdLaw",
            "label": "status",
            "offset": 0,
            "slot": "21",
            "type": "t_enum(Status)192"
          },
          {
            "astId": 309,
            "contract": "contracts/TheThirdLaw.sol:TheThirdLaw",
            "label": "value",
            "offset": 0,
            "slot": "22",
            "type": "t_uint256"
          },
          {
            "astId": 311,
            "contract": "contracts/TheThirdLaw.sol:TheThirdLaw",
            "label": "currentPlayer",
            "offset": 0,
            "slot": "23",
            "type": "t_address"
          },
          {
            "astId": 313,
            "contract": "contracts/TheThirdLaw.sol:TheThirdLaw",
            "label": "lastTurnTimestamp",
            "offset": 0,
            "slot": "24",
            "type": "t_uint256"
          }
        ],
        "numberOfBytes": "800"
      },
      "t_struct(Mine)371_storage": {
        "encoding": "inplace",
        "label": "struct TheThirdLaw.Mine",
        "members": [
          {
            "astId": 370,
            "contract": "contracts/TheThirdLaw.sol:TheThirdLaw",
            "label": "position",
            "offset": 0,
            "slot": "0",
            "type": "t_struct(Position)376_storage"
          }
        ],
        "numberOfBytes": "64"
      },
      "t_struct(Player)337_storage": {
        "encoding": "inplace",
        "label": "struct TheThirdLaw.Player",
        "members": [
          {
            "astId": 316,
            "contract": "contracts/TheThirdLaw.sol:TheThirdLaw",
            "label": "ownerAddress",
            "offset": 0,
            "slot": "0",
            "type": "t_address"
          },
          {
            "astId": 319,
            "contract": "contracts/TheThirdLaw.sol:TheThirdLaw",
            "label": "gameIds",
            "offset": 0,
            "slot": "1",
            "type": "t_array(t_uint256)dyn_storage"
          },
          {
            "astId": 322,
            "contract": "contracts/TheThirdLaw.sol:TheThirdLaw",
            "label": "inviteIds",
            "offset": 0,
            "slot": "2",
            "type": "t_array(t_uint256)dyn_storage"
          },
          {
            "astId": 324,
            "contract": "contracts/TheThirdLaw.sol:TheThirdLaw",
            "label": "victories",
            "offset": 0,
            "slot": "3",
            "type": "t_uint256"
          },
          {
            "astId": 326,
            "contract": "contracts/TheThirdLaw.sol:TheThirdLaw",
            "label": "defaultVictories",
            "offset": 0,
            "slot": "4",
            "type": "t_uint256"
          },
          {
            "astId": 328,
            "contract": "contracts/TheThirdLaw.sol:TheThirdLaw",
            "label": "defaultLosses",
            "offset": 0,
            "slot": "5",
            "type": "t_uint256"
          },
          {
            "astId": 330,
            "contract": "contracts/TheThirdLaw.sol:TheThirdLaw",
            "label": "draws",
            "offset": 0,
            "slot": "6",
            "type": "t_uint256"
          },
          {
            "astId": 332,
            "contract": "contracts/TheThirdLaw.sol:TheThirdLaw",
            "label": "losses",
            "offset": 0,
            "slot": "7",
            "type": "t_uint256"
          },
          {
            "astId": 334,
            "contract": "contracts/TheThirdLaw.sol:TheThirdLaw",
            "label": "eloRating",
            "offset": 0,
            "slot": "8",
            "type": "t_uint256"
          },
          {
            "astId": 336,
            "contract": "contracts/TheThirdLaw.sol:TheThirdLaw",
            "label": "currentShipId",
            "offset": 0,
            "slot": "9",
            "type": "t_uint256"
          }
        ],
        "numberOfBytes": "320"
      },
      "t_struct(Position)376_storage": {
        "encoding": "inplace",
        "label": "struct TheThirdLaw.Position",
        "members": [
          {
            "astId": 373,
            "contract": "contracts/TheThirdLaw.sol:TheThirdLaw",
            "label": "row",
            "offset": 0,
            "slot": "0",
            "type": "t_int256"
          },
          {
            "astId": 375,
            "contract": "contracts/TheThirdLaw.sol:TheThirdLaw",
            "label": "col",
            "offset": 0,
            "slot": "1",
            "type": "t_int256"
          }
        ],
        "numberOfBytes": "64"
      },
      "t_struct(Ship)358_storage": {
        "encoding": "inplace",
        "label": "struct TheThirdLaw.Ship",
        "members": [
          {
            "astId": 339,
            "contract": "contracts/TheThirdLaw.sol:TheThirdLaw",
            "label": "ownerAddress",
            "offset": 0,
            "slot": "0",
            "type": "t_address"
          },
          {
            "astId": 342,
            "contract": "contracts/TheThirdLaw.sol:TheThirdLaw",
            "label": "position",
            "offset": 0,
            "slot": "1",
            "type": "t_struct(Position)376_storage"
          },
          {
            "astId": 345,
            "contract": "contracts/TheThirdLaw.sol:TheThirdLaw",
            "label": "velocity",
            "offset": 0,
            "slot": "3",
            "type": "t_struct(Velocity)381_storage"
          },
          {
            "astId": 347,
            "contract": "contracts/TheThirdLaw.sol:TheThirdLaw",
            "label": "remainingTorpedoes",
            "offset": 0,
            "slot": "5",
            "type": "t_uint256"
          },
          {
            "astId": 349,
            "contract": "contracts/TheThirdLaw.sol:TheThirdLaw",
            "label": "remainingMines",
            "offset": 0,
            "slot": "6",
            "type": "t_uint256"
          },
          {
            "astId": 353,
            "contract": "contracts/TheThirdLaw.sol:TheThirdLaw",
            "label": "torpedoes",
            "offset": 0,
            "slot": "7",
            "type": "t_array(t_struct(Torpedo)367_storage)dyn_storage"
          },
          {
            "astId": 357,
            "contract": "contracts/TheThirdLaw.sol:TheThirdLaw",
            "label": "mines",
            "offset": 0,
            "slot": "8",
            "type": "t_array(t_struct(Mine)371_storage)dyn_storage"
          }
        ],
        "numberOfBytes": "288"
      },
      "t_struct(Torpedo)367_storage": {
        "encoding": "inplace",
        "label": "struct TheThirdLaw.Torpedo",
        "members": [
          {
            "astId": 361,
            "contract": "contracts/TheThirdLaw.sol:TheThirdLaw",
            "label": "position",
            "offset": 0,
            "slot": "0",
            "type": "t_struct(Position)376_storage"
          },
          {
            "astId": 364,
            "contract": "contracts/TheThirdLaw.sol:TheThirdLaw",
            "label": "velocity",
            "offset": 0,
            "slot": "2",
            "type": "t_struct(Velocity)381_storage"
          },
          {
            "astId": 366,
            "contract": "contracts/TheThirdLaw.sol:TheThirdLaw",
            "label": "remainingFuel",
            "offset": 0,
            "slot": "4",
            "type": "t_uint256"
          }
        ],
        "numberOfBytes": "160"
      },
      "t_struct(Velocity)381_storage": {
        "encoding": "inplace",
        "label": "struct TheThirdLaw.Velocity",
        "members": [
          {
            "astId": 378,
            "contract": "contracts/TheThirdLaw.sol:TheThirdLaw",
            "label": "row",
            "offset": 0,
            "slot": "0",
            "type": "t_int256"
          },
          {
            "astId": 380,
            "contract": "contracts/TheThirdLaw.sol:TheThirdLaw",
            "label": "col",
            "offset": 0,
            "slot": "1",
            "type": "t_int256"
          }
        ],
        "numberOfBytes": "64"
      },
      "t_uint256": {
        "encoding": "inplace",
        "label": "uint256",
        "numberOfBytes": "32"
      }
    }
  }
}