{
  "address": "0x31c4d528564580b84e814515D47F3BeB671e1C62",
  "abi": [
    {
      "inputs": [],
      "stateMutability": "nonpayable",
      "type": "constructor"
    },
    {
      "inputs": [],
      "name": "AlreadyRegistered",
      "type": "error"
    },
    {
      "inputs": [],
      "name": "ContractPaused",
      "type": "error"
    },
    {
      "inputs": [],
      "name": "GameNotActive",
      "type": "error"
    },
    {
      "inputs": [],
      "name": "NotEnoughFunds",
      "type": "error"
    },
    {
      "inputs": [],
      "name": "NotEnoughMines",
      "type": "error"
    },
    {
      "inputs": [],
      "name": "NotEnoughTimePassed",
      "type": "error"
    },
    {
      "inputs": [],
      "name": "NotEnoughTorpedoes",
      "type": "error"
    },
    {
      "inputs": [],
      "name": "NotFirstGame",
      "type": "error"
    },
    {
      "inputs": [
        {
          "internalType": "uint256",
          "name": "_gameId",
          "type": "uint256"
        }
      ],
      "name": "NotInvited",
      "type": "error"
    },
    {
      "inputs": [],
      "name": "NotYourGame",
      "type": "error"
    },
    {
      "inputs": [],
      "name": "NotYourTurn",
      "type": "error"
    },
    {
      "anonymous": false,
      "inputs": [
        {
          "indexed": true,
          "internalType": "address",
          "name": "_player1Address",
          "type": "address"
        },
        {
          "indexed": true,
          "internalType": "address",
          "name": "_player2Address",
          "type": "address"
        },
        {
          "indexed": true,
          "internalType": "uint256",
          "name": "_gameId",
          "type": "uint256"
        }
      ],
      "name": "GameOver",
      "type": "event"
    },
    {
      "anonymous": false,
      "inputs": [
        {
          "indexed": true,
          "internalType": "address",
          "name": "_player1Address",
          "type": "address"
        },
        {
          "indexed": true,
          "internalType": "address",
          "name": "_player2Address",
          "type": "address"
        },
        {
          "indexed": true,
          "internalType": "uint256",
          "name": "_gameId",
          "type": "uint256"
        }
      ],
      "name": "GameStarted",
      "type": "event"
    },
    {
      "anonymous": false,
      "inputs": [
        {
          "indexed": true,
          "internalType": "address",
          "name": "_player1Address",
          "type": "address"
        },
        {
          "indexed": true,
          "internalType": "address",
          "name": "_player2Address",
          "type": "address"
        },
        {
          "indexed": true,
          "internalType": "uint256",
          "name": "_gameId",
          "type": "uint256"
        }
      ],
      "name": "InviteToGame",
      "type": "event"
    },
    {
      "anonymous": false,
      "inputs": [
        {
          "indexed": true,
          "internalType": "address",
          "name": "_player1Address",
          "type": "address"
        },
        {
          "indexed": true,
          "internalType": "address",
          "name": "_player2Address",
          "type": "address"
        },
        {
          "indexed": true,
          "internalType": "uint256",
          "name": "_gameId",
          "type": "uint256"
        }
      ],
      "name": "JoinGame",
      "type": "event"
    },
    {
      "anonymous": false,
      "inputs": [
        {
          "indexed": true,
          "internalType": "address",
          "name": "_player1Address",
          "type": "address"
        },
        {
          "indexed": true,
          "internalType": "uint256",
          "name": "_gameId",
          "type": "uint256"
        }
      ],
      "name": "OpenGameCreated",
      "type": "event"
    },
    {
      "anonymous": false,
      "inputs": [
        {
          "indexed": true,
          "internalType": "address",
          "name": "_player1Address",
          "type": "address"
        },
        {
          "indexed": true,
          "internalType": "address",
          "name": "_player2Address",
          "type": "address"
        },
        {
          "indexed": true,
          "internalType": "uint256",
          "name": "_gameId",
          "type": "uint256"
        }
      ],
      "name": "OpenGameJoined",
      "type": "event"
    },
    {
      "anonymous": false,
      "inputs": [
        {
          "indexed": true,
          "internalType": "address",
          "name": "previousOwner",
          "type": "address"
        },
        {
          "indexed": true,
          "internalType": "address",
          "name": "newOwner",
          "type": "address"
        }
      ],
      "name": "OwnershipTransferred",
      "type": "event"
    },
    {
      "inputs": [
        {
          "internalType": "uint256",
          "name": "_gameId",
          "type": "uint256"
        }
      ],
      "name": "acceptFreeInvite",
      "outputs": [],
      "stateMutability": "nonpayable",
      "type": "function"
    },
    {
      "inputs": [
        {
          "internalType": "uint256",
          "name": "_gameId",
          "type": "uint256"
        }
      ],
      "name": "acceptInvite",
      "outputs": [],
      "stateMutability": "payable",
      "type": "function"
    },
    {
      "inputs": [],
      "name": "active",
      "outputs": [
        {
          "internalType": "bool",
          "name": "",
          "type": "bool"
        }
      ],
      "stateMutability": "view",
      "type": "function"
    },
    {
      "inputs": [
        {
          "internalType": "int256",
          "name": "_ratingA",
          "type": "int256"
        },
        {
          "internalType": "int256",
          "name": "_ratingB",
          "type": "int256"
        },
        {
          "internalType": "enum Status",
          "name": "_result",
          "type": "uint8"
        }
      ],
      "name": "calculateElo",
      "outputs": [
        {
          "internalType": "uint256",
          "name": "",
          "type": "uint256"
        },
        {
          "internalType": "uint256",
          "name": "",
          "type": "uint256"
        }
      ],
      "stateMutability": "pure",
      "type": "function"
    },
    {
      "inputs": [],
      "name": "createOrJoinRandomGame",
      "outputs": [],
      "stateMutability": "payable",
      "type": "function"
    },
    {
      "inputs": [
        {
          "internalType": "uint256",
          "name": "_gameId",
          "type": "uint256"
        }
      ],
      "name": "endGame",
      "outputs": [],
      "stateMutability": "nonpayable",
      "type": "function"
    },
    {
      "inputs": [],
      "name": "feeBalance",
      "outputs": [
        {
          "internalType": "uint256",
          "name": "",
          "type": "uint256"
        }
      ],
      "stateMutability": "view",
      "type": "function"
    },
    {
      "inputs": [],
      "name": "feePercent",
      "outputs": [
        {
          "internalType": "uint256",
          "name": "",
          "type": "uint256"
        }
      ],
      "stateMutability": "view",
      "type": "function"
    },
    {
      "inputs": [
        {
          "internalType": "uint256",
          "name": "_gameId",
          "type": "uint256"
        }
      ],
      "name": "forceMove",
      "outputs": [],
      "stateMutability": "nonpayable",
      "type": "function"
    },
    {
      "inputs": [],
      "name": "gameCost",
      "outputs": [
        {
          "internalType": "uint256",
          "name": "",
          "type": "uint256"
        }
      ],
      "stateMutability": "view",
      "type": "function"
    },
    {
      "inputs": [
        {
          "internalType": "uint256",
          "name": "",
          "type": "uint256"
        }
      ],
      "name": "games",
      "outputs": [
        {
          "internalType": "uint256",
          "name": "id",
          "type": "uint256"
        },
        {
          "internalType": "address",
          "name": "player1Address",
          "type": "address"
        },
        {
          "internalType": "address",
          "name": "player2Address",
          "type": "address"
        },
        {
          "components": [
            {
              "internalType": "address",
              "name": "ownerAddress",
              "type": "address"
            },
            {
              "components": [
                {
                  "internalType": "int256",
                  "name": "row",
                  "type": "int256"
                },
                {
                  "internalType": "int256",
                  "name": "col",
                  "type": "int256"
                }
              ],
              "internalType": "struct TheThirdLaw.Position",
              "name": "position",
              "type": "tuple"
            },
            {
              "components": [
                {
                  "internalType": "int256",
                  "name": "row",
                  "type": "int256"
                },
                {
                  "internalType": "int256",
                  "name": "col",
                  "type": "int256"
                }
              ],
              "internalType": "struct TheThirdLaw.Velocity",
              "name": "velocity",
              "type": "tuple"
            },
            {
              "internalType": "uint256",
              "name": "remainingTorpedoes",
              "type": "uint256"
            },
            {
              "internalType": "uint256",
              "name": "remainingMines",
              "type": "uint256"
            },
            {
              "components": [
                {
                  "components": [
                    {
                      "internalType": "int256",
                      "name": "row",
                      "type": "int256"
                    },
                    {
                      "internalType": "int256",
                      "name": "col",
                      "type": "int256"
                    }
                  ],
                  "internalType": "struct TheThirdLaw.Position",
                  "name": "position",
                  "type": "tuple"
                },
                {
                  "components": [
                    {
                      "internalType": "int256",
                      "name": "row",
                      "type": "int256"
                    },
                    {
                      "internalType": "int256",
                      "name": "col",
                      "type": "int256"
                    }
                  ],
                  "internalType": "struct TheThirdLaw.Velocity",
                  "name": "velocity",
                  "type": "tuple"
                },
                {
                  "internalType": "uint256",
                  "name": "remainingFuel",
                  "type": "uint256"
                }
              ],
              "internalType": "struct TheThirdLaw.Torpedo[]",
              "name": "torpedoes",
              "type": "tuple[]"
            },
            {
              "components": [
                {
                  "components": [
                    {
                      "internalType": "int256",
                      "name": "row",
                      "type": "int256"
                    },
                    {
                      "internalType": "int256",
                      "name": "col",
                      "type": "int256"
                    }
                  ],
                  "internalType": "struct TheThirdLaw.Position",
                  "name": "position",
                  "type": "tuple"
                }
              ],
              "internalType": "struct TheThirdLaw.Mine[]",
              "name": "mines",
              "type": "tuple[]"
            }
          ],
          "internalType": "struct TheThirdLaw.Ship",
          "name": "player1Ship",
          "type": "tuple"
        },
        {
          "components": [
            {
              "internalType": "address",
              "name": "ownerAddress",
              "type": "address"
            },
            {
              "components": [
                {
                  "internalType": "int256",
                  "name": "row",
                  "type": "int256"
                },
                {
                  "internalType": "int256",
                  "name": "col",
                  "type": "int256"
                }
              ],
              "internalType": "struct TheThirdLaw.Position",
              "name": "position",
              "type": "tuple"
            },
            {
              "components": [
                {
                  "internalType": "int256",
                  "name": "row",
                  "type": "int256"
                },
                {
                  "internalType": "int256",
                  "name": "col",
                  "type": "int256"
                }
              ],
              "internalType": "struct TheThirdLaw.Velocity",
              "name": "velocity",
              "type": "tuple"
            },
            {
              "internalType": "uint256",
              "name": "remainingTorpedoes",
              "type": "uint256"
            },
            {
              "internalType": "uint256",
              "name": "remainingMines",
              "type": "uint256"
            },
            {
              "components": [
                {
                  "components": [
                    {
                      "internalType": "int256",
                      "name": "row",
                      "type": "int256"
                    },
                    {
                      "internalType": "int256",
                      "name": "col",
                      "type": "int256"
                    }
                  ],
                  "internalType": "struct TheThirdLaw.Position",
                  "name": "position",
                  "type": "tuple"
                },
                {
                  "components": [
                    {
                      "internalType": "int256",
                      "name": "row",
                      "type": "int256"
                    },
                    {
                      "internalType": "int256",
                      "name": "col",
                      "type": "int256"
                    }
                  ],
                  "internalType": "struct TheThirdLaw.Velocity",
                  "name": "velocity",
                  "type": "tuple"
                },
                {
                  "internalType": "uint256",
                  "name": "remainingFuel",
                  "type": "uint256"
                }
              ],
              "internalType": "struct TheThirdLaw.Torpedo[]",
              "name": "torpedoes",
              "type": "tuple[]"
            },
            {
              "components": [
                {
                  "components": [
                    {
                      "internalType": "int256",
                      "name": "row",
                      "type": "int256"
                    },
                    {
                      "internalType": "int256",
                      "name": "col",
                      "type": "int256"
                    }
                  ],
                  "internalType": "struct TheThirdLaw.Position",
                  "name": "position",
                  "type": "tuple"
                }
              ],
              "internalType": "struct TheThirdLaw.Mine[]",
              "name": "mines",
              "type": "tuple[]"
            }
          ],
          "internalType": "struct TheThirdLaw.Ship",
          "name": "player2Ship",
          "type": "tuple"
        },
        {
          "internalType": "enum Status",
          "name": "status",
          "type": "uint8"
        },
        {
          "internalType": "uint256",
          "name": "value",
          "type": "uint256"
        },
        {
          "internalType": "address",
          "name": "currentPlayer",
          "type": "address"
        },
        {
          "internalType": "uint256",
          "name": "lastTurnTimestamp",
          "type": "uint256"
        }
      ],
      "stateMutability": "view",
      "type": "function"
    },
    {
      "inputs": [],
      "name": "getAllELO",
      "outputs": [
        {
          "components": [
            {
              "internalType": "address",
              "name": "playerAddress",
              "type": "address"
            },
            {
              "internalType": "uint256",
              "name": "eloRating",
              "type": "uint256"
            }
          ],
          "internalType": "struct TheThirdLaw.PlayerELO[]",
          "name": "",
          "type": "tuple[]"
        }
      ],
      "stateMutability": "view",
      "type": "function"
    },
    {
      "inputs": [
        {
          "internalType": "uint256",
          "name": "_gameId",
          "type": "uint256"
        }
      ],
      "name": "getGame",
      "outputs": [
        {
          "components": [
            {
              "internalType": "uint256",
              "name": "id",
              "type": "uint256"
            },
            {
              "internalType": "address",
              "name": "player1Address",
              "type": "address"
            },
            {
              "internalType": "address",
              "name": "player2Address",
              "type": "address"
            },
            {
              "components": [
                {
                  "internalType": "address",
                  "name": "ownerAddress",
                  "type": "address"
                },
                {
                  "components": [
                    {
                      "internalType": "int256",
                      "name": "row",
                      "type": "int256"
                    },
                    {
                      "internalType": "int256",
                      "name": "col",
                      "type": "int256"
                    }
                  ],
                  "internalType": "struct TheThirdLaw.Position",
                  "name": "position",
                  "type": "tuple"
                },
                {
                  "components": [
                    {
                      "internalType": "int256",
                      "name": "row",
                      "type": "int256"
                    },
                    {
                      "internalType": "int256",
                      "name": "col",
                      "type": "int256"
                    }
                  ],
                  "internalType": "struct TheThirdLaw.Velocity",
                  "name": "velocity",
                  "type": "tuple"
                },
                {
                  "internalType": "uint256",
                  "name": "remainingTorpedoes",
                  "type": "uint256"
                },
                {
                  "internalType": "uint256",
                  "name": "remainingMines",
                  "type": "uint256"
                },
                {
                  "components": [
                    {
                      "components": [
                        {
                          "internalType": "int256",
                          "name": "row",
                          "type": "int256"
                        },
                        {
                          "internalType": "int256",
                          "name": "col",
                          "type": "int256"
                        }
                      ],
                      "internalType": "struct TheThirdLaw.Position",
                      "name": "position",
                      "type": "tuple"
                    },
                    {
                      "components": [
                        {
                          "internalType": "int256",
                          "name": "row",
                          "type": "int256"
                        },
                        {
                          "internalType": "int256",
                          "name": "col",
                          "type": "int256"
                        }
                      ],
                      "internalType": "struct TheThirdLaw.Velocity",
                      "name": "velocity",
                      "type": "tuple"
                    },
                    {
                      "internalType": "uint256",
                      "name": "remainingFuel",
                      "type": "uint256"
                    }
                  ],
                  "internalType": "struct TheThirdLaw.Torpedo[]",
                  "name": "torpedoes",
                  "type": "tuple[]"
                },
                {
                  "components": [
                    {
                      "components": [
                        {
                          "internalType": "int256",
                          "name": "row",
                          "type": "int256"
                        },
                        {
                          "internalType": "int256",
                          "name": "col",
                          "type": "int256"
                        }
                      ],
                      "internalType": "struct TheThirdLaw.Position",
                      "name": "position",
                      "type": "tuple"
                    }
                  ],
                  "internalType": "struct TheThirdLaw.Mine[]",
                  "name": "mines",
                  "type": "tuple[]"
                }
              ],
              "internalType": "struct TheThirdLaw.Ship",
              "name": "player1Ship",
              "type": "tuple"
            },
            {
              "components": [
                {
                  "internalType": "address",
                  "name": "ownerAddress",
                  "type": "address"
                },
                {
                  "components": [
                    {
                      "internalType": "int256",
                      "name": "row",
                      "type": "int256"
                    },
                    {
                      "internalType": "int256",
                      "name": "col",
                      "type": "int256"
                    }
                  ],
                  "internalType": "struct TheThirdLaw.Position",
                  "name": "position",
                  "type": "tuple"
                },
                {
                  "components": [
                    {
                      "internalType": "int256",
                      "name": "row",
                      "type": "int256"
                    },
                    {
                      "internalType": "int256",
                      "name": "col",
                      "type": "int256"
                    }
                  ],
                  "internalType": "struct TheThirdLaw.Velocity",
                  "name": "velocity",
                  "type": "tuple"
                },
                {
                  "internalType": "uint256",
                  "name": "remainingTorpedoes",
                  "type": "uint256"
                },
                {
                  "internalType": "uint256",
                  "name": "remainingMines",
                  "type": "uint256"
                },
                {
                  "components": [
                    {
                      "components": [
                        {
                          "internalType": "int256",
                          "name": "row",
                          "type": "int256"
                        },
                        {
                          "internalType": "int256",
                          "name": "col",
                          "type": "int256"
                        }
                      ],
                      "internalType": "struct TheThirdLaw.Position",
                      "name": "position",
                      "type": "tuple"
                    },
                    {
                      "components": [
                        {
                          "internalType": "int256",
                          "name": "row",
                          "type": "int256"
                        },
                        {
                          "internalType": "int256",
                          "name": "col",
                          "type": "int256"
                        }
                      ],
                      "internalType": "struct TheThirdLaw.Velocity",
                      "name": "velocity",
                      "type": "tuple"
                    },
                    {
                      "internalType": "uint256",
                      "name": "remainingFuel",
                      "type": "uint256"
                    }
                  ],
                  "internalType": "struct TheThirdLaw.Torpedo[]",
                  "name": "torpedoes",
                  "type": "tuple[]"
                },
                {
                  "components": [
                    {
                      "components": [
                        {
                          "internalType": "int256",
                          "name": "row",
                          "type": "int256"
                        },
                        {
                          "internalType": "int256",
                          "name": "col",
                          "type": "int256"
                        }
                      ],
                      "internalType": "struct TheThirdLaw.Position",
                      "name": "position",
                      "type": "tuple"
                    }
                  ],
                  "internalType": "struct TheThirdLaw.Mine[]",
                  "name": "mines",
                  "type": "tuple[]"
                }
              ],
              "internalType": "struct TheThirdLaw.Ship",
              "name": "player2Ship",
              "type": "tuple"
            },
            {
              "internalType": "enum Status",
              "name": "status",
              "type": "uint8"
            },
            {
              "internalType": "uint256",
              "name": "value",
              "type": "uint256"
            },
            {
              "internalType": "address",
              "name": "currentPlayer",
              "type": "address"
            },
            {
              "internalType": "uint256",
              "name": "lastTurnTimestamp",
              "type": "uint256"
            }
          ],
          "internalType": "struct TheThirdLaw.Game",
          "name": "",
          "type": "tuple"
        }
      ],
      "stateMutability": "view",
      "type": "function"
    },
    {
      "inputs": [
        {
          "internalType": "address",
          "name": "_playerAddress",
          "type": "address"
        }
      ],
      "name": "getGamesForPlayer",
      "outputs": [
        {
          "components": [
            {
              "internalType": "uint256",
              "name": "id",
              "type": "uint256"
            },
            {
              "internalType": "address",
              "name": "player1Address",
              "type": "address"
            },
            {
              "internalType": "address",
              "name": "player2Address",
              "type": "address"
            },
            {
              "components": [
                {
                  "internalType": "address",
                  "name": "ownerAddress",
                  "type": "address"
                },
                {
                  "components": [
                    {
                      "internalType": "int256",
                      "name": "row",
                      "type": "int256"
                    },
                    {
                      "internalType": "int256",
                      "name": "col",
                      "type": "int256"
                    }
                  ],
                  "internalType": "struct TheThirdLaw.Position",
                  "name": "position",
                  "type": "tuple"
                },
                {
                  "components": [
                    {
                      "internalType": "int256",
                      "name": "row",
                      "type": "int256"
                    },
                    {
                      "internalType": "int256",
                      "name": "col",
                      "type": "int256"
                    }
                  ],
                  "internalType": "struct TheThirdLaw.Velocity",
                  "name": "velocity",
                  "type": "tuple"
                },
                {
                  "internalType": "uint256",
                  "name": "remainingTorpedoes",
                  "type": "uint256"
                },
                {
                  "internalType": "uint256",
                  "name": "remainingMines",
                  "type": "uint256"
                },
                {
                  "components": [
                    {
                      "components": [
                        {
                          "internalType": "int256",
                          "name": "row",
                          "type": "int256"
                        },
                        {
                          "internalType": "int256",
                          "name": "col",
                          "type": "int256"
                        }
                      ],
                      "internalType": "struct TheThirdLaw.Position",
                      "name": "position",
                      "type": "tuple"
                    },
                    {
                      "components": [
                        {
                          "internalType": "int256",
                          "name": "row",
                          "type": "int256"
                        },
                        {
                          "internalType": "int256",
                          "name": "col",
                          "type": "int256"
                        }
                      ],
                      "internalType": "struct TheThirdLaw.Velocity",
                      "name": "velocity",
                      "type": "tuple"
                    },
                    {
                      "internalType": "uint256",
                      "name": "remainingFuel",
                      "type": "uint256"
                    }
                  ],
                  "internalType": "struct TheThirdLaw.Torpedo[]",
                  "name": "torpedoes",
                  "type": "tuple[]"
                },
                {
                  "components": [
                    {
                      "components": [
                        {
                          "internalType": "int256",
                          "name": "row",
                          "type": "int256"
                        },
                        {
                          "internalType": "int256",
                          "name": "col",
                          "type": "int256"
                        }
                      ],
                      "internalType": "struct TheThirdLaw.Position",
                      "name": "position",
                      "type": "tuple"
                    }
                  ],
                  "internalType": "struct TheThirdLaw.Mine[]",
                  "name": "mines",
                  "type": "tuple[]"
                }
              ],
              "internalType": "struct TheThirdLaw.Ship",
              "name": "player1Ship",
              "type": "tuple"
            },
            {
              "components": [
                {
                  "internalType": "address",
                  "name": "ownerAddress",
                  "type": "address"
                },
                {
                  "components": [
                    {
                      "internalType": "int256",
                      "name": "row",
                      "type": "int256"
                    },
                    {
                      "internalType": "int256",
                      "name": "col",
                      "type": "int256"
                    }
                  ],
                  "internalType": "struct TheThirdLaw.Position",
                  "name": "position",
                  "type": "tuple"
                },
                {
                  "components": [
                    {
                      "internalType": "int256",
                      "name": "row",
                      "type": "int256"
                    },
                    {
                      "internalType": "int256",
                      "name": "col",
                      "type": "int256"
                    }
                  ],
                  "internalType": "struct TheThirdLaw.Velocity",
                  "name": "velocity",
                  "type": "tuple"
                },
                {
                  "internalType": "uint256",
                  "name": "remainingTorpedoes",
                  "type": "uint256"
                },
                {
                  "internalType": "uint256",
                  "name": "remainingMines",
                  "type": "uint256"
                },
                {
                  "components": [
                    {
                      "components": [
                        {
                          "internalType": "int256",
                          "name": "row",
                          "type": "int256"
                        },
                        {
                          "internalType": "int256",
                          "name": "col",
                          "type": "int256"
                        }
                      ],
                      "internalType": "struct TheThirdLaw.Position",
                      "name": "position",
                      "type": "tuple"
                    },
                    {
                      "components": [
                        {
                          "internalType": "int256",
                          "name": "row",
                          "type": "int256"
                        },
                        {
                          "internalType": "int256",
                          "name": "col",
                          "type": "int256"
                        }
                      ],
                      "internalType": "struct TheThirdLaw.Velocity",
                      "name": "velocity",
                      "type": "tuple"
                    },
                    {
                      "internalType": "uint256",
                      "name": "remainingFuel",
                      "type": "uint256"
                    }
                  ],
                  "internalType": "struct TheThirdLaw.Torpedo[]",
                  "name": "torpedoes",
                  "type": "tuple[]"
                },
                {
                  "components": [
                    {
                      "components": [
                        {
                          "internalType": "int256",
                          "name": "row",
                          "type": "int256"
                        },
                        {
                          "internalType": "int256",
                          "name": "col",
                          "type": "int256"
                        }
                      ],
                      "internalType": "struct TheThirdLaw.Position",
                      "name": "position",
                      "type": "tuple"
                    }
                  ],
                  "internalType": "struct TheThirdLaw.Mine[]",
                  "name": "mines",
                  "type": "tuple[]"
                }
              ],
              "internalType": "struct TheThirdLaw.Ship",
              "name": "player2Ship",
              "type": "tuple"
            },
            {
              "internalType": "enum Status",
              "name": "status",
              "type": "uint8"
            },
            {
              "internalType": "uint256",
              "name": "value",
              "type": "uint256"
            },
            {
              "internalType": "address",
              "name": "currentPlayer",
              "type": "address"
            },
            {
              "internalType": "uint256",
              "name": "lastTurnTimestamp",
              "type": "uint256"
            }
          ],
          "internalType": "struct TheThirdLaw.Game[]",
          "name": "",
          "type": "tuple[]"
        }
      ],
      "stateMutability": "view",
      "type": "function"
    },
    {
      "inputs": [
        {
          "internalType": "address",
          "name": "_playerAddress",
          "type": "address"
        }
      ],
      "name": "getPlayer",
      "outputs": [
        {
          "components": [
            {
              "internalType": "address",
              "name": "ownerAddress",
              "type": "address"
            },
            {
              "internalType": "uint256[]",
              "name": "gameIds",
              "type": "uint256[]"
            },
            {
              "internalType": "uint256[]",
              "name": "inviteIds",
              "type": "uint256[]"
            },
            {
              "internalType": "uint256",
              "name": "victories",
              "type": "uint256"
            },
            {
              "internalType": "uint256",
              "name": "defaultVictories",
              "type": "uint256"
            },
            {
              "internalType": "uint256",
              "name": "defaultLosses",
              "type": "uint256"
            },
            {
              "internalType": "uint256",
              "name": "draws",
              "type": "uint256"
            },
            {
              "internalType": "uint256",
              "name": "losses",
              "type": "uint256"
            },
            {
              "internalType": "uint256",
              "name": "eloRating",
              "type": "uint256"
            },
            {
              "internalType": "uint256",
              "name": "currentShipId",
              "type": "uint256"
            },
            {
              "internalType": "uint256",
              "name": "gamesStarted",
              "type": "uint256"
            }
          ],
          "internalType": "struct TheThirdLaw.Player",
          "name": "",
          "type": "tuple"
        }
      ],
      "stateMutability": "view",
      "type": "function"
    },
    {
      "inputs": [
        {
          "internalType": "address",
          "name": "_player2Address",
          "type": "address"
        }
      ],
      "name": "inviteToFreeGame",
      "outputs": [],
      "stateMutability": "nonpayable",
      "type": "function"
    },
    {
      "inputs": [
        {
          "internalType": "address",
          "name": "_player2Address",
          "type": "address"
        }
      ],
      "name": "inviteToGame",
      "outputs": [],
      "stateMutability": "payable",
      "type": "function"
    },
    {
      "inputs": [],
      "name": "maxMines",
      "outputs": [
        {
          "internalType": "uint256",
          "name": "",
          "type": "uint256"
        }
      ],
      "stateMutability": "view",
      "type": "function"
    },
    {
      "inputs": [],
      "name": "maxTorpedoes",
      "outputs": [
        {
          "internalType": "uint256",
          "name": "",
          "type": "uint256"
        }
      ],
      "stateMutability": "view",
      "type": "function"
    },
    {
      "inputs": [],
      "name": "mineRange",
      "outputs": [
        {
          "internalType": "uint256",
          "name": "",
          "type": "uint256"
        }
      ],
      "stateMutability": "view",
      "type": "function"
    },
    {
      "inputs": [],
      "name": "owner",
      "outputs": [
        {
          "internalType": "address",
          "name": "",
          "type": "address"
        }
      ],
      "stateMutability": "view",
      "type": "function"
    },
    {
      "inputs": [],
      "name": "pause",
      "outputs": [],
      "stateMutability": "nonpayable",
      "type": "function"
    },
    {
      "inputs": [
        {
          "internalType": "address",
          "name": "",
          "type": "address"
        }
      ],
      "name": "players",
      "outputs": [
        {
          "internalType": "address",
          "name": "ownerAddress",
          "type": "address"
        },
        {
          "internalType": "uint256",
          "name": "victories",
          "type": "uint256"
        },
        {
          "internalType": "uint256",
          "name": "defaultVictories",
          "type": "uint256"
        },
        {
          "internalType": "uint256",
          "name": "defaultLosses",
          "type": "uint256"
        },
        {
          "internalType": "uint256",
          "name": "draws",
          "type": "uint256"
        },
        {
          "internalType": "uint256",
          "name": "losses",
          "type": "uint256"
        },
        {
          "internalType": "uint256",
          "name": "eloRating",
          "type": "uint256"
        },
        {
          "internalType": "uint256",
          "name": "currentShipId",
          "type": "uint256"
        },
        {
          "internalType": "uint256",
          "name": "gamesStarted",
          "type": "uint256"
        }
      ],
      "stateMutability": "view",
      "type": "function"
    },
    {
      "inputs": [
        {
          "internalType": "uint256",
          "name": "_gameId",
          "type": "uint256"
        }
      ],
      "name": "rejectInvite",
      "outputs": [],
      "stateMutability": "nonpayable",
      "type": "function"
    },
    {
      "inputs": [],
      "name": "renounceOwnership",
      "outputs": [],
      "stateMutability": "nonpayable",
      "type": "function"
    },
    {
      "inputs": [
        {
          "internalType": "uint256",
          "name": "_feePercent",
          "type": "uint256"
        }
      ],
      "name": "setFeePercent",
      "outputs": [],
      "stateMutability": "nonpayable",
      "type": "function"
    },
    {
      "inputs": [
        {
          "internalType": "uint256",
          "name": "_gameCost",
          "type": "uint256"
        }
      ],
      "name": "setGameCost",
      "outputs": [],
      "stateMutability": "nonpayable",
      "type": "function"
    },
    {
      "inputs": [
        {
          "internalType": "uint256",
          "name": "_mineRange",
          "type": "uint256"
        }
      ],
      "name": "setMineRange",
      "outputs": [],
      "stateMutability": "nonpayable",
      "type": "function"
    },
    {
      "inputs": [
        {
          "internalType": "uint256",
          "name": "_maxMines",
          "type": "uint256"
        }
      ],
      "name": "setNumberMines",
      "outputs": [],
      "stateMutability": "nonpayable",
      "type": "function"
    },
    {
      "inputs": [
        {
          "internalType": "uint256",
          "name": "_maxTorpedoes",
          "type": "uint256"
        }
      ],
      "name": "setNumberTorpedoes",
      "outputs": [],
      "stateMutability": "nonpayable",
      "type": "function"
    },
    {
      "inputs": [
        {
          "internalType": "int256",
          "name": "_torpedoAccel",
          "type": "int256"
        }
      ],
      "name": "setTorpedoAccel",
      "outputs": [],
      "stateMutability": "nonpayable",
      "type": "function"
    },
    {
      "inputs": [
        {
          "internalType": "uint256",
          "name": "_torpedoFuel",
          "type": "uint256"
        }
      ],
      "name": "setTorpedoFuel",
      "outputs": [],
      "stateMutability": "nonpayable",
      "type": "function"
    },
    {
      "inputs": [
        {
          "internalType": "uint256",
          "name": "_gameId",
          "type": "uint256"
        },
        {
          "internalType": "enum LeftOrRight",
          "name": "_leftOrRight",
          "type": "uint8"
        },
        {
          "internalType": "enum UpOrDown",
          "name": "_upOrDown",
          "type": "uint8"
        },
        {
          "internalType": "enum Action",
          "name": "_action",
          "type": "uint8"
        }
      ],
      "name": "takeFreeTurn",
      "outputs": [],
      "stateMutability": "nonpayable",
      "type": "function"
    },
    {
      "inputs": [
        {
          "internalType": "uint256",
          "name": "_gameId",
          "type": "uint256"
        },
        {
          "internalType": "enum LeftOrRight",
          "name": "_leftOrRight",
          "type": "uint8"
        },
        {
          "internalType": "enum UpOrDown",
          "name": "_upOrDown",
          "type": "uint8"
        },
        {
          "internalType": "enum Action",
          "name": "_action",
          "type": "uint8"
        }
      ],
      "name": "takeTurn",
      "outputs": [],
      "stateMutability": "nonpayable",
      "type": "function"
    },
    {
      "inputs": [],
      "name": "torpedoAccel",
      "outputs": [
        {
          "internalType": "int256",
          "name": "",
          "type": "int256"
        }
      ],
      "stateMutability": "view",
      "type": "function"
    },
    {
      "inputs": [],
      "name": "torpedoFuel",
      "outputs": [
        {
          "internalType": "uint256",
          "name": "",
          "type": "uint256"
        }
      ],
      "stateMutability": "view",
      "type": "function"
    },
    {
      "inputs": [],
      "name": "torpedoRange",
      "outputs": [
        {
          "internalType": "int256",
          "name": "",
          "type": "int256"
        }
      ],
      "stateMutability": "view",
      "type": "function"
    },
    {
      "inputs": [
        {
          "internalType": "address",
          "name": "newOwner",
          "type": "address"
        }
      ],
      "name": "transferOwnership",
      "outputs": [],
      "stateMutability": "nonpayable",
      "type": "function"
    },
    {
      "inputs": [],
      "name": "turnTimeout",
      "outputs": [
        {
          "internalType": "uint256",
          "name": "",
          "type": "uint256"
        }
      ],
      "stateMutability": "view",
      "type": "function"
    },
    {
      "inputs": [],
      "name": "withdrawFee",
      "outputs": [],
      "stateMutability": "nonpayable",
      "type": "function"
    }
  ],
  "transactionHash": "0xf8c33e9900764619e62786245e7707d27e9c020c0dc24397ad9ef7f5e1a5e3de",
  "args": [],
  "numDeployments": 1,
  "solcInputHash": "e2b1eb1f409e128bcc4f66d6dfe23f2d",
  "bytecode": "0x608060405266038d7ea4c68000600455600a600555600060065560056007556005600855600a6009556002600a556001600b556001600c5562015180600d556001600e60006101000a81548160ff0219169083151502179055506000600f553480156200006b57600080fd5b50620000773362000089565b601180546001018155600052620000d9565b600080546001600160a01b038381166001600160a01b0319831681178455604051919092169283917f8be0079c531659141344cd1fd0a4f28419497f9722a3daafe3b4186f6b6457e09190a35050565b6147a780620000e96000396000f3fe60806040526004361061023b5760003560e01c80637ce3489b1161012e578063c15e7e30116100ab578063d0399bb81161006f578063d0399bb814610678578063e2eb41ff14610698578063e941fa7814610756578063f2fde38b1461076b578063f9d860731461078b57600080fd5b8063c15e7e30146105fa578063c1699a981461061a578063c2e80b4714610622578063cab896dc14610642578063cd607b621461065857600080fd5b80638da5cb5b116100f25780638da5cb5b1461055f57806391c8767114610587578063a2f77bcc146105a7578063b69667fe146105d4578063bf8e9176146105e757600080fd5b80637ce3489b146104bf5780637f17b79d146104df5780637fd6f15c146104ff5780638456cb591461051557806384d2957e1461052a57600080fd5b8063526aef4c116101bc5780636461625311610180578063646162531461043e57806367c5f6e51461045e5780636cc4b0b71461047e5780636d64aa0614610494578063715018a6146104aa57600080fd5b8063526aef4c146103ad578063544722af146103cf57806356ce1175146103e55780635c12cd4b146103fb57806360b71d4e1461042857600080fd5b80632ad852ab116102035780632ad852ab146103135780633c6e43a91461033357806341b02d711461035757806346b9bfe41461036d5780634f764e351461038d57600080fd5b806302fb0c5e146102405780630aa1b2661461026f578063117a5b901461029c57806314a8a004146102d157806323673f78146102f3575b600080fd5b34801561024c57600080fd5b50600e5461025a9060ff1681565b60405190151581526020015b60405180910390f35b34801561027b57600080fd5b5061028f61028a36600461408e565b6107a1565b60405161026691906142fd565b3480156102a857600080fd5b506102bc6102b736600461435f565b610c71565b60405161026699989796959493929190614378565b3480156102dd57600080fd5b506102f16102ec366004614401565b610fce565b005b3480156102ff57600080fd5b506102f161030e36600461408e565b6110b9565b34801561031f57600080fd5b506102f161032e36600461435f565b611121565b34801561033f57600080fd5b5061034960075481565b604051908152602001610266565b34801561036357600080fd5b50610349600b5481565b34801561037957600080fd5b506102f161038836600461435f565b61115b565b34801561039957600080fd5b506102f16103a836600461435f565b611168565b3480156103b957600080fd5b506103c2611175565b6040516102669190614454565b3480156103db57600080fd5b50610349600a5481565b3480156103f157600080fd5b5061034960085481565b34801561040757600080fd5b5061041b61041636600461408e565b61125f565b60405161026691906144dc565b34801561043457600080fd5b5061034960065481565b34801561044a57600080fd5b506102f161045936600461435f565b6113f7565b34801561046a57600080fd5b506102f161047936600461435f565b6114e1565b34801561048a57600080fd5b50610349600d5481565b3480156104a057600080fd5b50610349600c5481565b3480156104b657600080fd5b506102f16114ee565b3480156104cb57600080fd5b506102f16104da36600461435f565b611502565b3480156104eb57600080fd5b506102f16104fa36600461435f565b61150f565b34801561050b57600080fd5b5061034960055481565b34801561052157600080fd5b506102f161151c565b34801561053657600080fd5b5061054a61054536600461459c565b611530565b60408051928352602083019190915201610266565b34801561056b57600080fd5b506000546040516001600160a01b039091168152602001610266565b34801561059357600080fd5b506102f16105a236600461435f565b6116b4565b3480156105b357600080fd5b506105c76105c236600461435f565b6117c0565b60405161026691906145d9565b6102f16105e236600461408e565b611b7e565b6102f16105f536600461435f565b611bc3565b34801561060657600080fd5b506102f1610615366004614401565b611be5565b6102f1611c13565b34801561062e57600080fd5b506102f161063d36600461435f565b611eec565b34801561064e57600080fd5b5061034960045481565b34801561066457600080fd5b506102f161067336600461435f565b611ef9565b34801561068457600080fd5b506102f161069336600461435f565b611f06565b3480156106a457600080fd5b506107086106b336600461408e565b601060205260009081526040902080546003820154600483015460058401546006850154600786015460088701546009880154600a909801546001600160a01b03909716979596949593949293919290919089565b604080516001600160a01b03909a168a5260208a0198909852968801959095526060870193909352608086019190915260a085015260c084015260e083015261010082015261012001610266565b34801561076257600080fd5b506102f161205b565b34801561077757600080fd5b506102f161078636600461408e565b612099565b34801561079757600080fd5b5061034960095481565b6001600160a01b038116600090815260106020908152604080832060010180548251818502810185019093528083526060949383018282801561080357602002820191906000526020600020905b8154815260200190600101908083116107ef575b505050505090506000815167ffffffffffffffff811115610826576108266145ec565b60405190808252806020026020018201604052801561085f57816020015b61084c613f43565b8152602001906001900390816108445790505b50905060005b8251811015610c6957601183828151811061088257610882614602565b60200260200101518154811061089a5761089a614602565b60009182526020808320604080516101208101825260199094029091018054845260018101546001600160a01b03908116858501526002820154811685840152825160e0810184526003830180549092168152835180850185526004840154815260058401548187015281860152835180850185526006840154815260078401548187015281850152600883015460608281019190915260098401546080830152600a8401805486518189028101890190975280875297989497918901969295939460a08701949391929184015b828210156109d85760008481526020908190206040805160a081018252600586029092018054606084019081526001808301546080860152908452825180840184526002830154815260038301548187015284860152600490910154918301919091529083529092019101610968565b50505050815260200160088201805480602002602001604051908101604052809291908181526020016000905b82821015610a4e57600084815260209081902060408051606081018252600286029092018054838501908152600191820154928401929092529082529083529092019101610a05565b5050509152505081526040805160e081018252600c840180546001600160a01b0316825282518084018452600d8601548152600e8601546020828101919091528381019190915283518085018552600f8701548152601087015481830152838501526011860154606084015260128601546080840152601386018054855181840281018401909652808652958201959394929360a08601939260009084015b82821015610b5d5760008481526020908190206040805160a081018252600586029092018054606084019081526001808301546080860152908452825180840184526002830154815260038301548187015284860152600490910154918301919091529083529092019101610aed565b50505050815260200160088201805480602002602001604051908101604052809291908181526020016000905b82821015610bd357600084815260209081902060408051606081018252600286029092018054838501908152600191820154928401929092529082529083529092019101610b8a565b505050915250508152601582015460209091019060ff166007811115610bfb57610bfb614206565b6007811115610c0c57610c0c614206565b81526016820154602082015260178201546001600160a01b031660408201526018909101546060909101528251839083908110610c4b57610c4b614602565b60200260200101819052508080610c619061462e565b915050610865565b509392505050565b60118181548110610c8157600080fd5b6000918252602080832060199092029091018054600182015460028301546040805160e0810182526003860180546001600160a01b03908116835283518085018552600489015481526005890154818b0152838a015283518085018552600689015481526007890154818b0152838501526008880154606084015260098801546080840152600a880180548551818c0281018c01909652808652979b50958116999416979195909460a0870194909284015b82821015610da35760008481526020908190206040805160a081018252600586029092018054606084019081526001808301546080860152908452825180840184526002830154815260038301548187015284860152600490910154918301919091529083529092019101610d33565b50505050815260200160088201805480602002602001604051908101604052809291908181526020016000905b82821015610e1957600084815260209081902060408051606081018252600286029092018054838501908152600191820154928401929092529082529083529092019101610dd0565b505050915250506040805160e081018252600c840180546001600160a01b0316825282518084018452600d8601548152600e8601546020828101919091528084019190915283518085018552600f87015481526010870154818301528385015260118601546060840152601286015460808401526013860180548551818402810184019096528086529596959394929360a08601939260009084015b82821015610f255760008481526020908190206040805160a081018252600586029092018054606084019081526001808301546080860152908452825180840184526002830154815260038301548187015284860152600490910154918301919091529083529092019101610eb5565b50505050815260200160088201805480602002602001604051908101604052809291908181526020016000905b82821015610f9b57600084815260209081902060408051606081018252600286029092018054838501908152600191820154928401929092529082529083529092019101610f52565b50505091525050601582015460168301546017840154601890940154929360ff9092169290916001600160a01b03169089565b600060118581548110610fe357610fe3614602565b60009182526020808320338452601090915260408320600101805460199093029091019350919061101657611016614602565b9060005260206000200154851461104057604051632353b39d60e01b815260040160405180910390fd5b60065b601582015460ff16600781111561105c5761105c614206565b146110795760405162a3097160e01b815260040160405180910390fd5b60178101546001600160a01b031633146110a657604051631cc191eb60e31b815260040160405180910390fd5b6110b28585858561210f565b5050505050565b600e5460ff166110dc5760405163ab35696f60e01b815260040160405180910390fd5b6001600160a01b03818116600090815260106020526040902054161561111557604051632353b39d60e01b815260040160405180910390fd5b61111e816124ac565b50565b336000908152601060205260409020600a01541561115257604051632353b39d60e01b815260040160405180910390fd5b61111e81612678565b61116361282d565b600b55565b61117061282d565b600a55565b606060006111836001612887565b67ffffffffffffffff81111561119b5761119b6145ec565b6040519080825280602002602001820160405280156111e057816020015b60408051808201909152600080825260208201528152602001906001900390816111b95790505b50905060005b6111f06001612887565b81101561125957600080611205600184612898565b915091506040518060400160405280836001600160a01b031681526020018281525084848151811061123957611239614602565b6020026020010181905250505080806112519061462e565b9150506111e6565b50919050565b6112c560405180610160016040528060006001600160a01b03168152602001606081526020016060815260200160008152602001600081526020016000815260200160008152602001600081526020016000815260200160008152602001600081525090565b6001600160a01b038083166000908152601060209081526040918290208251610160810184528154909416845260018101805484518185028101850190955280855291938584019390929083018282801561133f57602002820191906000526020600020905b81548152602001906001019080831161132b575b505050505081526020016002820180548060200260200160405190810160405280929190818152602001828054801561139757602002820191906000526020600020905b815481526020019060010190808311611383575b5050505050815260200160038201548152602001600482015481526020016005820154815260200160068201548152602001600782015481526020016008820154815260200160098201548152602001600a820154815250509050919050565b60006011828154811061140c5761140c614602565b6000918252602090912060199091020190506006601582015460ff16600781111561143957611439614206565b146114565760405162a3097160e01b815260040160405180910390fd5b60018101546001600160a01b03163314801590611480575060028101546001600160a01b03163314155b1561149e57604051631794a8af60e11b815260040160405180910390fd5b600d5460188201546114b09042614647565b10156114cf57604051635ada9a9960e01b815260040160405180910390fd5b6114dd82600080600061210f565b5050565b6114e961282d565b600755565b6114f661282d565b61150060006128b4565b565b61150a61282d565b600555565b61151761282d565b600455565b61152461282d565b600e805460ff19169055565b600080610320611548611543868861465a565b612904565b13156115585750839050826116ac565b6000600284600781111561156e5761156e614206565b148061158b5750600484600781111561158957611589614206565b145b1561159857506064611635565b60018460078111156115ac576115ac614206565b14806115c9575060038460078111156115c7576115c7614206565b145b156115d657506000611635565b60058460078111156115ea576115ea614206565b036115f757506032611635565b60405162461bcd60e51b815260206004820152600e60248201526d125b9d985b1a59081c995cdd5b1d60921b60448201526064015b60405180910390fd5b600080611645888885600161291b565b91509150600080821561166f5761165c848b61465a565b9150611668848a614681565b9050611688565b611679848b614681565b9150611685848a61465a565b90505b600082121561169657600091505b60008112156116a3575060005b90955093505050505b935093915050565b336001600160a01b0316601182815481106116d1576116d1614602565b60009182526020909120600260199092020101546001600160a01b03161461170f5760405163da271c6960e01b81526004810182905260240161162c565b6011818154811061172257611722614602565b9060005260206000209060190201601601546006600082825461174591906146a9565b9250508190555060006011828154811061176157611761614602565b90600052602060002090601902016016018190555060076011828154811061178b5761178b614602565b60009182526020909120601560199092020101805460ff191660018360078111156117b8576117b8614206565b021790555050565b6117c8613f43565b601182815481106117db576117db614602565b60009182526020808320604080516101208101825260199094029091018054845260018101546001600160a01b03908116858501526002820154811685840152825160e0810184526003830180549092168152835180850185526004840154815260058401548187015281860152835180850185526006840154815260078401548187015281850152600883015460608281019190915260098401546080830152600a8401805486518189028101890190975280875297989497918901969295939460a08701949391929184015b828210156119195760008481526020908190206040805160a0810182526005860290920180546060840190815260018083015460808601529084528251808401845260028301548152600383015481870152848601526004909101549183019190915290835290920191016118a9565b50505050815260200160088201805480602002602001604051908101604052809291908181526020016000905b8282101561198f57600084815260209081902060408051606081018252600286029092018054838501908152600191820154928401929092529082529083529092019101611946565b5050509152505081526040805160e081018252600c840180546001600160a01b0316825282518084018452600d8601548152600e8601546020828101919091528381019190915283518085018552600f8701548152601087015481830152838501526011860154606084015260128601546080840152601386018054855181840281018401909652808652958201959394929360a08601939260009084015b82821015611a9e5760008481526020908190206040805160a081018252600586029092018054606084019081526001808301546080860152908452825180840184526002830154815260038301548187015284860152600490910154918301919091529083529092019101611a2e565b50505050815260200160088201805480602002602001604051908101604052809291908181526020016000905b82821015611b1457600084815260209081902060408051606081018252600286029092018054838501908152600191820154928401929092529082529083529092019101611acb565b505050915250508152601582015460209091019060ff166007811115611b3c57611b3c614206565b6007811115611b4d57611b4d614206565b81526016820154602082015260178201546001600160a01b0316604082015260189091015460609091015292915050565b600e5460ff16611ba15760405163ab35696f60e01b815260040160405180910390fd5b600454341461111557604051631036b5ad60e31b815260040160405180910390fd5b600454341461115257604051631036b5ad60e31b815260040160405180910390fd5b600060118581548110611bfa57611bfa614602565b6000918252602090912060199091020190506006611043565b600e5460ff16611c365760405163ab35696f60e01b815260040160405180910390fd5b6004543414611c5857604051631036b5ad60e31b815260040160405180910390fd5b336000908152601060205260409020546001600160a01b0316611c7e57611c7e33612a61565b600f54600003611daa5760118054600f81905560018101808355600083905290919082908110611cb057611cb0614602565b906000526020600020906019020160000181905550336011600f5481548110611cdb57611cdb614602565b906000526020600020906019020160010160006101000a8154816001600160a01b0302191690836001600160a01b03160217905550346011600f5481548110611d2657611d26614602565b600091825260208083206016601990930201919091019290925533808252601083526040808320600f8054600180840180548083018255908852888820019190915581546002909301805491820181558652958520909501559254925190917f9aa587534c85aa2ba48b98ff99fee0cc8eb86a8965d3f542170059a691760a9b91a3565b336011600f5481548110611dc057611dc0614602565b906000526020600020906019020160020160006101000a8154816001600160a01b0302191690836001600160a01b03160217905550346011600f5481548110611e0b57611e0b614602565b90600052602060002090601902016016016000828254611e2b91906146a9565b90915550503360009081526010602090815260408220600f8054600180840180548083018255908752858720019190915581546002909301805491820181558552929093209091015554611e7e90612bca565b600f54336001600160a01b03166011600f5481548110611ea057611ea0614602565b600091825260208220600160199092020101546040516001600160a01b03909116917fb557d97ea9c1990e22ef70ef429658b7ee91548555170ee2e47762cf6382502291a46000600f55565b611ef461282d565b600855565b611f0161282d565b600955565b336001600160a01b031660118281548110611f2357611f23614602565b60009182526020909120600160199092020101546001600160a01b031614801590611f865750336001600160a01b031660118281548110611f6657611f66614602565b60009182526020909120600260199092020101546001600160a01b031614155b15611fa457604051631794a8af60e11b815260040160405180910390fd5b600660118281548110611fb957611fb9614602565b600091825260209091206015601990920201015460ff166007811115611fe157611fe1614206565b14611ffe5760405162a3097160e01b815260040160405180910390fd5b600d546011828154811061201457612014614602565b906000526020600020906019020160180154426120319190614647565b101561205057604051635ada9a9960e01b815260040160405180910390fd5b61111e816005613035565b61206361282d565b600654604051339180156108fc02916000818181858888f19350505050158015612091573d6000803e3d6000fd5b506000600655565b6120a161282d565b6001600160a01b0381166121065760405162461bcd60e51b815260206004820152602660248201527f4f776e61626c653a206e6577206f776e657220697320746865207a65726f206160448201526564647265737360d01b606482015260840161162c565b61111e816128b4565b60006011858154811061212457612124614602565b600091825260208220600160199092020190810154601782015491935082916001600160a01b0391821691160361216457505060038101600c820161216f565b5050600c8101600382015b600186600281111561218357612183614206565b036121ab5760018260030160010160008282546121a0919061465a565b909155506121e29050565b60028660028111156121bf576121bf614206565b036121e25760018260030160010160008282546121dc9190614681565b90915550505b60018560028111156121f6576121f6614206565b0361221e576001826003016000016000828254612213919061465a565b909155506122559050565b600285600281111561223257612232614206565b0361225557600182600301600001600082825461224f9190614681565b90915550505b600184600281111561226957612269614206565b0361234b5781600501546000036122935760405163bab1d9e760e01b815260040160405180910390fd5b60018260050160008282546122a89190614647565b90915550506040805160a08101825260018085015460608301908152600280870154608085015290835283518085018552600380880154825260048089015460208481019190915280870193845260095497870197885260078a01805480880182556000918252908290209751805160059092029098019081559681015195870195909555915180519386019390935591909201519083015591519101556123f6565b600284600281111561235f5761235f614206565b036123f657816006015460000361238957604051630adb358f60e11b815260040160405180910390fd5b600182600601600082825461239e9190614647565b9091555050604080516060810182526001808501546020808401918252600280880154958501959095529083526008860180548084018255600091825290829020935180519190950290930192835592909201519101555b6123ff82613670565b61240983836136af565b6124138383613714565b612421838383600801613790565b61242f83828460070161385d565b426018840155600183015460178401546001600160a01b0391821691160361247c5760028301546017840180546001600160a01b0319166001600160a01b039092169190911790556124a3565b60018301546017840180546001600160a01b0319166001600160a01b039092169190911790555b50505050505050565b336000908152601060205260409020546001600160a01b03166124d2576124d233612a61565b6001600160a01b03818116600090815260106020526040902054166124fa576124fa81612a61565b60118054600181018083556000839052909182918290811061251e5761251e614602565b906000526020600020906019020160000181905550336011828154811061254757612547614602565b906000526020600020906019020160010160006101000a8154816001600160a01b0302191690836001600160a01b03160217905550816011828154811061259057612590614602565b906000526020600020906019020160020160006101000a8154816001600160a01b0302191690836001600160a01b0316021790555034601182815481106125d9576125d9614602565b600091825260208083206016601990930201919091019290925533808252601083526040808320600190810180548083018255908552858520018690556001600160a01b038716808552828520808301805480850182559087528787200188905560020180549283018155855294842001859055518493927f64104361ad73841dc20b552e4700f3f464329596092336a5e3c02d8862623b6691a45050565b336001600160a01b03166011828154811061269557612695614602565b60009182526020909120600260199092020101546001600160a01b0316146126d35760405163da271c6960e01b81526004810182905260240161162c565b34601182815481106126e7576126e7614602565b9060005260206000209060190201601601600082825461270791906146a9565b92505081905550601060006011838154811061272557612725614602565b60009182526020808320600160199093020191909101546001600160a01b031683528201929092526040018120600a018054916127618361462e565b9190505550601060006011838154811061277d5761277d614602565b60009182526020808320600260199093020191909101546001600160a01b031683528201929092526040018120600a018054916127b98361462e565b91905055506127c781612bca565b80336001600160a01b0316601183815481106127e5576127e5614602565b600091825260208220600160199092020101546040516001600160a01b03909116917fbfd436d24d21060f278a8b528282bc3a5bca811b5e108e411c10ca75d65f646791a450565b6000546001600160a01b031633146115005760405162461bcd60e51b815260206004820181905260248201527f4f776e61626c653a2063616c6c6572206973206e6f7420746865206f776e6572604482015260640161162c565b600061289282613c84565b92915050565b60008080806128a78686613c8f565b9097909650945050505050565b600080546001600160a01b038381166001600160a01b0319831681178455604051919092169283917f8be0079c531659141344cd1fd0a4f28419497f9722a3daafe3b4186f6b6457e09190a35050565b60008082121561291757612892826146bc565b5090565b6000806127108302868610828161293457888803612938565b8789035b9050610466811061298b5760405162461bcd60e51b815260206004820152601b60248201527f526174696e6720646966666572656e636520746f6f206c617267650000000000604482015260640161162c565b81156129e25761032081106129e25760405162461bcd60e51b815260206004820152601b60248201527f526174696e6720646966666572656e636520746f6f206c617267650000000000604482015260640161162c565b6000806000806000866129f95785610320016129ff565b85610320035b9450612a11600a601987046001613cba565b9350612a1c84613d77565b9250826064018881612a3057612a306146d8565b0491508b8b029050818110985088612a4a57818103612a4e565b8082035b9950505050505050505094509492505050565b6001600160a01b038181166000908152601060205260409020541615612a9a57604051630ea075bf60e21b815260040160405180910390fd5b60408051610160810182526001600160a01b0383811680835283516000808252602080830187528086019283528651828152808201885286880152606086018290526080860182905260a0860182905260c0860182905260e086018290526104b0610100870152610120860182905261014086018290529281526010835294909420835181546001600160a01b03191693169290921782559251805192939192612b4a9260018501920190613fb6565b5060408201518051612b66916002840191602090910190613fb6565b50606082015160038201556080820151600482015560a0820151600582015560c0820151600682015560e082015160078201556101008201516008820155610120820151600982015561014090910151600a909101556114dd6001826104b0613d90565b600060118281548110612bdf57612bdf614602565b90600052602060002090601902016003019050600060118381548110612c0757612c07614602565b600091825260208220600c601990920201019150612c266002436146ee565b15612c3357600019612c36565b60015b905060118481548110612c4b57612c4b614602565b600091825260209091206001601990920201015483546001600160a01b0319166001600160a01b039091161783556040805180820190915280612c8f83600c614702565b8152602001612c9e600c6146bc565b9052805160018501556020908101516002808601919091556040805180820190915260008082529201829052600385018290556004850182905560075460058601556008546006860155612cf290426146ee565b15612cff57600019612d02565b60015b905060118581548110612d1757612d17614602565b600091825260209091206002601990920201015483546001600160a01b0319166001600160a01b039091161783556040805180820190915280612d5b83600c614702565b8152600c6020918201528151600186015590810151600280860191909155604080518082019091526000808252920182905260038501829055600485019190915560075460058501556008546006850155612db69044614732565b600003612e425760118581548110612dd057612dd0614602565b906000526020600020906019020160010160009054906101000a90046001600160a01b031660118681548110612e0857612e08614602565b906000526020600020906019020160170160006101000a8154816001600160a01b0302191690836001600160a01b03160217905550612ec3565b60118581548110612e5557612e55614602565b906000526020600020906019020160020160009054906101000a90046001600160a01b031660118681548110612e8d57612e8d614602565b906000526020600020906019020160170160006101000a8154816001600160a01b0302191690836001600160a01b031602179055505b600660118681548110612ed857612ed8614602565b60009182526020909120601560199092020101805460ff19166001836007811115612f0557612f05614206565b02179055506000606460055460118881548110612f2457612f24614602565b906000526020600020906019020160160154612f409190614746565b612f4a919061475d565b90508060066000828254612f5e91906146a9565b925050819055508060118781548110612f7957612f79614602565b90600052602060002090601902016016016000828254612f999190614647565b925050819055508560118781548110612fb457612fb4614602565b6000918252602090912060026019909202010154601180546001600160a01b039092169189908110612fe857612fe8614602565b600091825260208220600160199092020101546040516001600160a01b03909116917fee0dca10a9957dad74da3fe318a3ccc561c46d96be0ab0b66e7aff32aab94cf391a4505050505050565b60006011838154811061304a5761304a614602565b90600052602060002090601902019050818160150160006101000a81548160ff0219169083600781111561308057613080614206565b02179055506017810180546001600160a01b031916905560018260078111156130ab576130ab614206565b0361316a5760028101546001600160a01b031660009081526010602052604081206003018054600192906130e09084906146a9565b90915550506001818101546001600160a01b0316600090815260106020526040812060070180549091906131159084906146a9565b9091555050601681018054600091829055600283015460405191926001600160a01b039091169183156108fc0291849190818181858888f19350505050158015613163573d6000803e3d6000fd5b505061355c565b600282600781111561317e5761317e614206565b03613244576001818101546001600160a01b0316600090815260106020526040812060030180549091906131b39084906146a9565b909155505060028101546001600160a01b031660009081526010602052604081206007018054600192906131e89084906146a9565b9091555050601681018054600091829055600183015460405191926001600160a01b039091169183156108fc0291849190818181858888f19350505050158015613236573d6000803e3d6000fd5b50506000601682015561355c565b600382600781111561325857613258614206565b036133545760028101546001600160a01b0316600090815260106020526040812060040180546001929061328d9084906146a9565b90915550506001818101546001600160a01b0316600090815260106020526040812060050180549091906132c29084906146a9565b90915550506016810180546000918290559060646132e183604b614746565b6132eb919061475d565b60028401546040519192506001600160a01b03169082156108fc029083906000818181858888f19350505050158015613328573d6000803e3d6000fd5b506133338183614647565b9150816006600082825461334791906146a9565b9091555061355c92505050565b600482600781111561336857613368614206565b03613438576001818101546001600160a01b03166000908152601060205260408120600401805490919061339d9084906146a9565b909155505060028101546001600160a01b031660009081526010602052604081206005018054600192906133d29084906146a9565b90915550506016810180546000918290559060646133f183604b614746565b6133fb919061475d565b60018401546040519192506001600160a01b03169082156108fc029083906000818181858888f19350505050158015613328573d6000803e3d6000fd5b600582600781111561344c5761344c614206565b0361355c576001818101546001600160a01b0316600090815260106020526040812060060180549091906134819084906146a9565b909155505060028101546001600160a01b031660009081526010602052604081206006018054600192906134b69084906146a9565b9091555050601681018054600091829055906134d360028361475d565b60018401546040519192506001600160a01b03169082156108fc029083906000818181858888f19350505050158015613510573d6000803e3d6000fd5b5061351b8183614647565b60028401546040519193506001600160a01b03169083156108fc029084906000818181858888f19350505050158015613558573d6000803e3d6000fd5b5050505b600281015460018201546001600160a01b039081169116146136285760018101546001600160a01b03908116600090815260106020526040808220600890810154600286015490941683529082200154909182916135bb919086611530565b600180860180546001600160a01b03908116600090815260106020526040808220600890810188905560028b01548416835291200184905590549395509193506136089290911684613d90565b506002830154613624906001906001600160a01b031683613d90565b5050505b6002810154600182015460405185926001600160a01b039081169216907fd13e8f06e2982264b04d30acdae3d74f4241e1dde5c38af5f6a38820d14348f590600090a4505050565b6003810154600182018054600090613689908490614681565b909155505060048101546002820180546000906136a7908490614681565b909155505050565b600f6136c18260010160000154612904565b13806136dc5750600f6136da8260010160010154612904565b135b156114dd57600182015481546001600160a01b039182169116036137075781546114dd906003613035565b81546114dd906004613035565b600761375882600101604051806040016040529081600082015481526020016001820154815250506040518060400160405280600081526020016000815250613dae565b116114dd57600182015481546001600160a01b039182169116036137835781546114dd906001613035565b81546114dd906002613035565b60005b815481101561385757600a54604080518082019091526001850154815260028501546020820152835461380891908590859081106137d3576137d3614602565b906000526020600020906002020160000160405180604001604052908160008201548152602001600182015481525050613dae565b1161384557600184015483546001600160a01b03918216911603613838578354613833906001613035565b613845565b8354613845906002613035565b8061384f8161462e565b915050613793565b50505050565b60005b81548110156138575781818154811061387b5761387b614602565b90600052602060002090600502016004015460000315613c725760018282815481106138a9576138a9614602565b906000526020600020906005020160040160008282546138c99190614647565b9250508190555060008282815481106138e4576138e4614602565b60009182526020909120600590910201546001850154613904919061465a565b9050600083838154811061391a5761391a614602565b6000918252602090912060016005909202010154600286015461393d919061465a565b9050600082131561398a57600184848154811061395c5761395c614602565b9060005260206000209060050201600201600001600082825461397f9190614681565b909155506139d09050565b60008212156139d05760018484815481106139a7576139a7614602565b906000526020600020906005020160020160000160008282546139ca919061465a565b90915550505b6000811315613a1b5760018484815481106139ed576139ed614602565b90600052602060002090600502016002016001016000828254613a109190614681565b90915550613a619050565b6000811215613a61576001848481548110613a3857613a38614602565b90600052602060002090600502016002016001016000828254613a5b919061465a565b90915550505b838381548110613a7357613a73614602565b906000526020600020906005020160020160000154848481548110613a9a57613a9a614602565b90600052602060002090600502016000016000016000828254613abd9190614681565b92505081905550838381548110613ad657613ad6614602565b906000526020600020906005020160020160010154848481548110613afd57613afd614602565b90600052602060002090600502016000016001016000828254613b209190614681565b92505081905550600c54613b628660010160000154868681548110613b4757613b47614602565b6000918252602090912060059091020154611543919061465a565b13158015613bad5750600c54613baa8660010160010154868681548110613b8b57613b8b614602565b906000526020600020906005020160000160010154611543919061465a565b13155b15613bea57600186015485546001600160a01b03918216911603613bdd578554613bd8906001613035565b613bea565b8554613bea906002613035565b6007613c40858581548110613c0157613c01614602565b60009182526020808320604080518082018252600590940290910180548452600101548383015280518082019091528381529081019290925290613dae565b11613c6f576000848481548110613c5957613c59614602565b9060005260206000209060050201600401819055505b50505b80613c7c8161462e565b915050613860565b600061289282613de9565b60008080613c9d8585613df3565b600081815260029690960160205260409095205494959350505050565b6000838015613d5a57600184168015613cd557859250613cd9565b8392505b508260011c8460011c94505b8415613d54578560801c15613cf957600080fd5b85860281810181811015613d0c57600080fd5b8590049650506001851615613d49578583028387820414613d32578615613d3257600080fd5b81810181811015613d4257600080fd5b8590049350505b8460011c9450613ce5565b50610c69565b838015613d6a5760009250613d6e565b8392505b50509392505050565b6000612892613d8b613d8b613d8b85613dff565b613dff565b6000613da6846001600160a01b03851684613ea3565b949350505050565b6000613dc782602001518460200151611543919061465a565b82518451613dd8916115439161465a565b613de29190614681565b9392505050565b6000612892825490565b6000613de28383613ec0565b60b581600160881b8110613e185760409190911b9060801c5b69010000000000000000008110613e345760209190911b9060401c5b650100000000008110613e4c5760109190911b9060201c5b63010000008110613e625760089190911b9060101c5b62010000010260121c80820401600190811c80830401811c80830401811c80830401811c80830401811c80830401811c80830401901c908190048111900390565b60008281526002840160205260408120829055613da68484613eea565b6000826000018281548110613ed757613ed7614602565b9060005260206000200154905092915050565b6000818152600183016020526040812054613de290849084908490613f3b57508154600181810184556000848152602080822090930184905584548482528286019093526040902091909155612892565b506000612892565b6040518061012001604052806000815260200160006001600160a01b0316815260200160006001600160a01b03168152602001613f7e613ffd565b8152602001613f8b613ffd565b8152602001600081526020016000815260200160006001600160a01b03168152602001600081525090565b828054828255906000526020600020908101928215613ff1579160200282015b82811115613ff1578251825591602001919060010190613fd6565b50612917929150614079565b6040518060e0016040528060006001600160a01b03168152602001614035604051806040016040528060008152602001600081525090565b8152602001614057604051806040016040528060008152602001600081525090565b8152602001600081526020016000815260200160608152602001606081525090565b5b80821115612917576000815560010161407a565b6000602082840312156140a057600080fd5b81356001600160a01b0381168114613de257600080fd5b600081518084526020808501945080840160005b838110156140fc576140e98783515180518252602090810151910152565b60409690960195908201906001016140cb565b509495945050505050565b80516001600160a01b0316825260208082015180518285015280820151604085015260009161012091858301919050604085810151805160608901526020810151608089015250606086015160a08881019190915260808088015160c08a01528188015160e08a01969096528551948590526101408901958401949091906000905b808210156141de5786516141a889825180518252602090810151910152565b868101516141c2878b018280518252602090810151910152565b5085015188850152968201969585019560019190910190614189565b5050505050505060c08301518482036101008601526141fd82826140b7565b95945050505050565b634e487b7160e01b600052602160045260246000fd5b6008811061423a57634e487b7160e01b600052602160045260246000fd5b9052565b600061012082518452602083015161426160208601826001600160a01b03169052565b50604083015161427c60408601826001600160a01b03169052565b50606083015181606086015261429482860182614107565b915050608083015184820360808601526142ae8282614107565b91505060a08301516142c360a086018261421c565b5060c083015160c085015260e08301516142e860e08601826001600160a01b03169052565b50610100928301519390920192909252919050565b6000602080830181845280855180835260408601915060408160051b870101925083870160005b8281101561435257603f1988860301845261434085835161423e565b94509285019290850190600101614324565b5092979650505050505050565b60006020828403121561437157600080fd5b5035919050565b8981526001600160a01b0389811660208301528881166040830152610120606083018190526000916143ac8483018b614107565b915083820360808501526143c0828a614107565b92506143cf60a085018961421c565b8660c085015280861660e08501525050826101008301529a9950505050505050505050565b6003811061111e57600080fd5b6000806000806080858703121561441757600080fd5b843593506020850135614429816143f4565b92506040850135614439816143f4565b91506060850135614449816143f4565b939692955090935050565b602080825282518282018190526000919060409081850190868401855b8281101561449f57815180516001600160a01b03168552860151868501529284019290850190600101614471565b5091979650505050505050565b600081518084526020808501945080840160005b838110156140fc578151875295820195908201906001016144c0565b602081526144f66020820183516001600160a01b03169052565b600060208301516101608060408501526145146101808501836144ac565b91506040850151601f1985840301606086015261453183826144ac565b92505060608501516080850152608085015160a085015260a085015160c085015260c085015160e085015260e0850151610100818187015280870151915050610120818187015280870151915050610140818187015280870151838701525050508091505092915050565b6000806000606084860312156145b157600080fd5b83359250602084013591506040840135600881106145ce57600080fd5b809150509250925092565b602081526000613de2602083018461423e565b634e487b7160e01b600052604160045260246000fd5b634e487b7160e01b600052603260045260246000fd5b634e487b7160e01b600052601160045260246000fd5b60006001820161464057614640614618565b5060010190565b8181038181111561289257612892614618565b818103600083128015838313168383128216171561467a5761467a614618565b5092915050565b80820182811260008312801582168215821617156146a1576146a1614618565b505092915050565b8082018082111561289257612892614618565b6000600160ff1b82016146d1576146d1614618565b5060000390565b634e487b7160e01b600052601260045260246000fd5b6000826146fd576146fd6146d8565b500790565b80820260008212600160ff1b8414161561471e5761471e614618565b818105831482151761289257612892614618565b600082614741576147416146d8565b500690565b808202811582820484141761289257612892614618565b60008261476c5761476c6146d8565b50049056fea26469706673582212205a778ae58f5775a8adfc565c785ca2cf25794e8e79c97ee50cf9d0c198bca8b264736f6c63430008130033",
  "devdoc": {
    "kind": "dev",
    "methods": {
      "owner()": {
        "details": "Returns the address of the current owner."
      },
      "renounceOwnership()": {
        "details": "Leaves the contract without owner. It will not be possible to call `onlyOwner` functions. Can only be called by the current owner. NOTE: Renouncing ownership will leave the contract without an owner, thereby disabling any functionality that is only available to the owner."
      },
      "transferOwnership(address)": {
        "details": "Transfers ownership of the contract to a new account (`newOwner`). Can only be called by the current owner."
      }
    },
    "version": 1
  },
  "userdoc": {
    "kind": "user",
    "methods": {},
    "version": 1
  },
  "storageLayout": {
    "storage": [
      {
        "astId": 7,
        "contract": "contracts/TheThirdLaw.sol:TheThirdLaw",
        "label": "_owner",
        "offset": 0,
        "slot": "0",
        "type": "t_address"
      },
      {
        "astId": 2407,
        "contract": "contracts/TheThirdLaw.sol:TheThirdLaw",
        "label": "addressToELO",
        "offset": 0,
        "slot": "1",
        "type": "t_struct(AddressToUintMap)900_storage"
      },
      {
        "astId": 2410,
        "contract": "contracts/TheThirdLaw.sol:TheThirdLaw",
        "label": "gameCost",
        "offset": 0,
        "slot": "4",
        "type": "t_uint256"
      },
      {
        "astId": 2413,
        "contract": "contracts/TheThirdLaw.sol:TheThirdLaw",
        "label": "feePercent",
        "offset": 0,
        "slot": "5",
        "type": "t_uint256"
      },
      {
        "astId": 2416,
        "contract": "contracts/TheThirdLaw.sol:TheThirdLaw",
        "label": "feeBalance",
        "offset": 0,
        "slot": "6",
        "type": "t_uint256"
      },
      {
        "astId": 2419,
        "contract": "contracts/TheThirdLaw.sol:TheThirdLaw",
        "label": "maxTorpedoes",
        "offset": 0,
        "slot": "7",
        "type": "t_uint256"
      },
      {
        "astId": 2422,
        "contract": "contracts/TheThirdLaw.sol:TheThirdLaw",
        "label": "maxMines",
        "offset": 0,
        "slot": "8",
        "type": "t_uint256"
      },
      {
        "astId": 2425,
        "contract": "contracts/TheThirdLaw.sol:TheThirdLaw",
        "label": "torpedoFuel",
        "offset": 0,
        "slot": "9",
        "type": "t_uint256"
      },
      {
        "astId": 2428,
        "contract": "contracts/TheThirdLaw.sol:TheThirdLaw",
        "label": "mineRange",
        "offset": 0,
        "slot": "10",
        "type": "t_uint256"
      },
      {
        "astId": 2431,
        "contract": "contracts/TheThirdLaw.sol:TheThirdLaw",
        "label": "torpedoAccel",
        "offset": 0,
        "slot": "11",
        "type": "t_int256"
      },
      {
        "astId": 2434,
        "contract": "contracts/TheThirdLaw.sol:TheThirdLaw",
        "label": "torpedoRange",
        "offset": 0,
        "slot": "12",
        "type": "t_int256"
      },
      {
        "astId": 2437,
        "contract": "contracts/TheThirdLaw.sol:TheThirdLaw",
        "label": "turnTimeout",
        "offset": 0,
        "slot": "13",
        "type": "t_uint256"
      },
      {
        "astId": 2440,
        "contract": "contracts/TheThirdLaw.sol:TheThirdLaw",
        "label": "active",
        "offset": 0,
        "slot": "14",
        "type": "t_bool"
      },
      {
        "astId": 2443,
        "contract": "contracts/TheThirdLaw.sol:TheThirdLaw",
        "label": "openGameId",
        "offset": 0,
        "slot": "15",
        "type": "t_uint256"
      },
      {
        "astId": 2448,
        "contract": "contracts/TheThirdLaw.sol:TheThirdLaw",
        "label": "players",
        "offset": 0,
        "slot": "16",
        "type": "t_mapping(t_address,t_struct(Player)2545_storage)"
      },
      {
        "astId": 2452,
        "contract": "contracts/TheThirdLaw.sol:TheThirdLaw",
        "label": "games",
        "offset": 0,
        "slot": "17",
        "type": "t_array(t_struct(Game)2520_storage)dyn_storage"
      }
    ],
    "types": {
      "t_address": {
        "encoding": "inplace",
        "label": "address",
        "numberOfBytes": "20"
      },
      "t_array(t_bytes32)dyn_storage": {
        "base": "t_bytes32",
        "encoding": "dynamic_array",
        "label": "bytes32[]",
        "numberOfBytes": "32"
      },
      "t_array(t_struct(Game)2520_storage)dyn_storage": {
        "base": "t_struct(Game)2520_storage",
        "encoding": "dynamic_array",
        "label": "struct TheThirdLaw.Game[]",
        "numberOfBytes": "32"
      },
      "t_array(t_struct(Mine)2579_storage)dyn_storage": {
        "base": "t_struct(Mine)2579_storage",
        "encoding": "dynamic_array",
        "label": "struct TheThirdLaw.Mine[]",
        "numberOfBytes": "32"
      },
      "t_array(t_struct(Torpedo)2575_storage)dyn_storage": {
        "base": "t_struct(Torpedo)2575_storage",
        "encoding": "dynamic_array",
        "label": "struct TheThirdLaw.Torpedo[]",
        "numberOfBytes": "32"
      },
      "t_array(t_uint256)dyn_storage": {
        "base": "t_uint256",
        "encoding": "dynamic_array",
        "label": "uint256[]",
        "numberOfBytes": "32"
      },
      "t_bool": {
        "encoding": "inplace",
        "label": "bool",
        "numberOfBytes": "1"
      },
      "t_bytes32": {
        "encoding": "inplace",
        "label": "bytes32",
        "numberOfBytes": "32"
      },
      "t_enum(Status)2398": {
        "encoding": "inplace",
        "label": "enum Status",
        "numberOfBytes": "1"
      },
      "t_int256": {
        "encoding": "inplace",
        "label": "int256",
        "numberOfBytes": "32"
      },
      "t_mapping(t_address,t_struct(Player)2545_storage)": {
        "encoding": "mapping",
        "key": "t_address",
        "label": "mapping(address => struct TheThirdLaw.Player)",
        "numberOfBytes": "32",
        "value": "t_struct(Player)2545_storage"
      },
      "t_mapping(t_bytes32,t_bytes32)": {
        "encoding": "mapping",
        "key": "t_bytes32",
        "label": "mapping(bytes32 => bytes32)",
        "numberOfBytes": "32",
        "value": "t_bytes32"
      },
      "t_mapping(t_bytes32,t_uint256)": {
        "encoding": "mapping",
        "key": "t_bytes32",
        "label": "mapping(bytes32 => uint256)",
        "numberOfBytes": "32",
        "value": "t_uint256"
      },
      "t_struct(AddressToUintMap)900_storage": {
        "encoding": "inplace",
        "label": "struct EnumerableMap.AddressToUintMap",
        "members": [
          {
            "astId": 899,
            "contract": "contracts/TheThirdLaw.sol:TheThirdLaw",
            "label": "_inner",
            "offset": 0,
            "slot": "0",
            "type": "t_struct(Bytes32ToBytes32Map)150_storage"
          }
        ],
        "numberOfBytes": "96"
      },
      "t_struct(Bytes32Set)1597_storage": {
        "encoding": "inplace",
        "label": "struct EnumerableSet.Bytes32Set",
        "members": [
          {
            "astId": 1596,
            "contract": "contracts/TheThirdLaw.sol:TheThirdLaw",
            "label": "_inner",
            "offset": 0,
            "slot": "0",
            "type": "t_struct(Set)1403_storage"
          }
        ],
        "numberOfBytes": "64"
      },
      "t_struct(Bytes32ToBytes32Map)150_storage": {
        "encoding": "inplace",
        "label": "struct EnumerableMap.Bytes32ToBytes32Map",
        "members": [
          {
            "astId": 145,
            "contract": "contracts/TheThirdLaw.sol:TheThirdLaw",
            "label": "_keys",
            "offset": 0,
            "slot": "0",
            "type": "t_struct(Bytes32Set)1597_storage"
          },
          {
            "astId": 149,
            "contract": "contracts/TheThirdLaw.sol:TheThirdLaw",
            "label": "_values",
            "offset": 0,
            "slot": "2",
            "type": "t_mapping(t_bytes32,t_bytes32)"
          }
        ],
        "numberOfBytes": "96"
      },
      "t_struct(Game)2520_storage": {
        "encoding": "inplace",
        "label": "struct TheThirdLaw.Game",
        "members": [
          {
            "astId": 2500,
            "contract": "contracts/TheThirdLaw.sol:TheThirdLaw",
            "label": "id",
            "offset": 0,
            "slot": "0",
            "type": "t_uint256"
          },
          {
            "astId": 2502,
            "contract": "contracts/TheThirdLaw.sol:TheThirdLaw",
            "label": "player1Address",
            "offset": 0,
            "slot": "1",
            "type": "t_address"
          },
          {
            "astId": 2504,
            "contract": "contracts/TheThirdLaw.sol:TheThirdLaw",
            "label": "player2Address",
            "offset": 0,
            "slot": "2",
            "type": "t_address"
          },
          {
            "astId": 2507,
            "contract": "contracts/TheThirdLaw.sol:TheThirdLaw",
            "label": "player1Ship",
            "offset": 0,
            "slot": "3",
            "type": "t_struct(Ship)2566_storage"
          },
          {
            "astId": 2510,
            "contract": "contracts/TheThirdLaw.sol:TheThirdLaw",
            "label": "player2Ship",
            "offset": 0,
            "slot": "12",
            "type": "t_struct(Ship)2566_storage"
          },
          {
            "astId": 2513,
            "contract": "contracts/TheThirdLaw.sol:TheThirdLaw",
            "label": "status",
            "offset": 0,
            "slot": "21",
            "type": "t_enum(Status)2398"
          },
          {
            "astId": 2515,
            "contract": "contracts/TheThirdLaw.sol:TheThirdLaw",
            "label": "value",
            "offset": 0,
            "slot": "22",
            "type": "t_uint256"
          },
          {
            "astId": 2517,
            "contract": "contracts/TheThirdLaw.sol:TheThirdLaw",
            "label": "currentPlayer",
            "offset": 0,
            "slot": "23",
            "type": "t_address"
          },
          {
            "astId": 2519,
            "contract": "contracts/TheThirdLaw.sol:TheThirdLaw",
            "label": "lastTurnTimestamp",
            "offset": 0,
            "slot": "24",
            "type": "t_uint256"
          }
        ],
        "numberOfBytes": "800"
      },
      "t_struct(Mine)2579_storage": {
        "encoding": "inplace",
        "label": "struct TheThirdLaw.Mine",
        "members": [
          {
            "astId": 2578,
            "contract": "contracts/TheThirdLaw.sol:TheThirdLaw",
            "label": "position",
            "offset": 0,
            "slot": "0",
            "type": "t_struct(Position)2584_storage"
          }
        ],
        "numberOfBytes": "64"
      },
      "t_struct(Player)2545_storage": {
        "encoding": "inplace",
        "label": "struct TheThirdLaw.Player",
        "members": [
          {
            "astId": 2522,
            "contract": "contracts/TheThirdLaw.sol:TheThirdLaw",
            "label": "ownerAddress",
            "offset": 0,
            "slot": "0",
            "type": "t_address"
          },
          {
            "astId": 2525,
            "contract": "contracts/TheThirdLaw.sol:TheThirdLaw",
            "label": "gameIds",
            "offset": 0,
            "slot": "1",
            "type": "t_array(t_uint256)dyn_storage"
          },
          {
            "astId": 2528,
            "contract": "contracts/TheThirdLaw.sol:TheThirdLaw",
            "label": "inviteIds",
            "offset": 0,
            "slot": "2",
            "type": "t_array(t_uint256)dyn_storage"
          },
          {
            "astId": 2530,
            "contract": "contracts/TheThirdLaw.sol:TheThirdLaw",
            "label": "victories",
            "offset": 0,
            "slot": "3",
            "type": "t_uint256"
          },
          {
            "astId": 2532,
            "contract": "contracts/TheThirdLaw.sol:TheThirdLaw",
            "label": "defaultVictories",
            "offset": 0,
            "slot": "4",
            "type": "t_uint256"
          },
          {
            "astId": 2534,
            "contract": "contracts/TheThirdLaw.sol:TheThirdLaw",
            "label": "defaultLosses",
            "offset": 0,
            "slot": "5",
            "type": "t_uint256"
          },
          {
            "astId": 2536,
            "contract": "contracts/TheThirdLaw.sol:TheThirdLaw",
            "label": "draws",
            "offset": 0,
            "slot": "6",
            "type": "t_uint256"
          },
          {
            "astId": 2538,
            "contract": "contracts/TheThirdLaw.sol:TheThirdLaw",
            "label": "losses",
            "offset": 0,
            "slot": "7",
            "type": "t_uint256"
          },
          {
            "astId": 2540,
            "contract": "contracts/TheThirdLaw.sol:TheThirdLaw",
            "label": "eloRating",
            "offset": 0,
            "slot": "8",
            "type": "t_uint256"
          },
          {
            "astId": 2542,
            "contract": "contracts/TheThirdLaw.sol:TheThirdLaw",
            "label": "currentShipId",
            "offset": 0,
            "slot": "9",
            "type": "t_uint256"
          },
          {
            "astId": 2544,
            "contract": "contracts/TheThirdLaw.sol:TheThirdLaw",
            "label": "gamesStarted",
            "offset": 0,
            "slot": "10",
            "type": "t_uint256"
          }
        ],
        "numberOfBytes": "352"
      },
      "t_struct(Position)2584_storage": {
        "encoding": "inplace",
        "label": "struct TheThirdLaw.Position",
        "members": [
          {
            "astId": 2581,
            "contract": "contracts/TheThirdLaw.sol:TheThirdLaw",
            "label": "row",
            "offset": 0,
            "slot": "0",
            "type": "t_int256"
          },
          {
            "astId": 2583,
            "contract": "contracts/TheThirdLaw.sol:TheThirdLaw",
            "label": "col",
            "offset": 0,
            "slot": "1",
            "type": "t_int256"
          }
        ],
        "numberOfBytes": "64"
      },
      "t_struct(Set)1403_storage": {
        "encoding": "inplace",
        "label": "struct EnumerableSet.Set",
        "members": [
          {
            "astId": 1398,
            "contract": "contracts/TheThirdLaw.sol:TheThirdLaw",
            "label": "_values",
            "offset": 0,
            "slot": "0",
            "type": "t_array(t_bytes32)dyn_storage"
          },
          {
            "astId": 1402,
            "contract": "contracts/TheThirdLaw.sol:TheThirdLaw",
            "label": "_indexes",
            "offset": 0,
            "slot": "1",
            "type": "t_mapping(t_bytes32,t_uint256)"
          }
        ],
        "numberOfBytes": "64"
      },
      "t_struct(Ship)2566_storage": {
        "encoding": "inplace",
        "label": "struct TheThirdLaw.Ship",
        "members": [
          {
            "astId": 2547,
            "contract": "contracts/TheThirdLaw.sol:TheThirdLaw",
            "label": "ownerAddress",
            "offset": 0,
            "slot": "0",
            "type": "t_address"
          },
          {
            "astId": 2550,
            "contract": "contracts/TheThirdLaw.sol:TheThirdLaw",
            "label": "position",
            "offset": 0,
            "slot": "1",
            "type": "t_struct(Position)2584_storage"
          },
          {
            "astId": 2553,
            "contract": "contracts/TheThirdLaw.sol:TheThirdLaw",
            "label": "velocity",
            "offset": 0,
            "slot": "3",
            "type": "t_struct(Velocity)2589_storage"
          },
          {
            "astId": 2555,
            "contract": "contracts/TheThirdLaw.sol:TheThirdLaw",
            "label": "remainingTorpedoes",
            "offset": 0,
            "slot": "5",
            "type": "t_uint256"
          },
          {
            "astId": 2557,
            "contract": "contracts/TheThirdLaw.sol:TheThirdLaw",
            "label": "remainingMines",
            "offset": 0,
            "slot": "6",
            "type": "t_uint256"
          },
          {
            "astId": 2561,
            "contract": "contracts/TheThirdLaw.sol:TheThirdLaw",
            "label": "torpedoes",
            "offset": 0,
            "slot": "7",
            "type": "t_array(t_struct(Torpedo)2575_storage)dyn_storage"
          },
          {
            "astId": 2565,
            "contract": "contracts/TheThirdLaw.sol:TheThirdLaw",
            "label": "mines",
            "offset": 0,
            "slot": "8",
            "type": "t_array(t_struct(Mine)2579_storage)dyn_storage"
          }
        ],
        "numberOfBytes": "288"
      },
      "t_struct(Torpedo)2575_storage": {
        "encoding": "inplace",
        "label": "struct TheThirdLaw.Torpedo",
        "members": [
          {
            "astId": 2569,
            "contract": "contracts/TheThirdLaw.sol:TheThirdLaw",
            "label": "position",
            "offset": 0,
            "slot": "0",
            "type": "t_struct(Position)2584_storage"
          },
          {
            "astId": 2572,
            "contract": "contracts/TheThirdLaw.sol:TheThirdLaw",
            "label": "velocity",
            "offset": 0,
            "slot": "2",
            "type": "t_struct(Velocity)2589_storage"
          },
          {
            "astId": 2574,
            "contract": "contracts/TheThirdLaw.sol:TheThirdLaw",
            "label": "remainingFuel",
            "offset": 0,
            "slot": "4",
            "type": "t_uint256"
          }
        ],
        "numberOfBytes": "160"
      },
      "t_struct(Velocity)2589_storage": {
        "encoding": "inplace",
        "label": "struct TheThirdLaw.Velocity",
        "members": [
          {
            "astId": 2586,
            "contract": "contracts/TheThirdLaw.sol:TheThirdLaw",
            "label": "row",
            "offset": 0,
            "slot": "0",
            "type": "t_int256"
          },
          {
            "astId": 2588,
            "contract": "contracts/TheThirdLaw.sol:TheThirdLaw",
            "label": "col",
            "offset": 0,
            "slot": "1",
            "type": "t_int256"
          }
        ],
        "numberOfBytes": "64"
      },
      "t_uint256": {
        "encoding": "inplace",
        "label": "uint256",
        "numberOfBytes": "32"
      }
    }
  }
}