{
  "address": "0xf9a015C475fA703f1c600A4233DAF2783D99e2D0",
  "abi": [
    {
      "inputs": [],
      "stateMutability": "nonpayable",
      "type": "constructor"
    },
    {
      "inputs": [],
      "name": "AlreadyRegistered",
      "type": "error"
    },
    {
      "inputs": [],
      "name": "ContractPaused",
      "type": "error"
    },
    {
      "inputs": [],
      "name": "GameNotActive",
      "type": "error"
    },
    {
      "inputs": [],
      "name": "NotEnoughFunds",
      "type": "error"
    },
    {
      "inputs": [],
      "name": "NotEnoughMines",
      "type": "error"
    },
    {
      "inputs": [],
      "name": "NotEnoughTorpedoes",
      "type": "error"
    },
    {
      "inputs": [
        {
          "internalType": "uint256",
          "name": "_gameId",
          "type": "uint256"
        }
      ],
      "name": "NotInvited",
      "type": "error"
    },
    {
      "inputs": [],
      "name": "NotYourGame",
      "type": "error"
    },
    {
      "inputs": [],
      "name": "NotYourTurn",
      "type": "error"
    },
    {
      "anonymous": false,
      "inputs": [
        {
          "indexed": true,
          "internalType": "address",
          "name": "_player1Address",
          "type": "address"
        },
        {
          "indexed": true,
          "internalType": "address",
          "name": "_player2Address",
          "type": "address"
        },
        {
          "indexed": true,
          "internalType": "uint256",
          "name": "_gameId",
          "type": "uint256"
        }
      ],
      "name": "GameOver",
      "type": "event"
    },
    {
      "anonymous": false,
      "inputs": [
        {
          "indexed": true,
          "internalType": "address",
          "name": "_player1Address",
          "type": "address"
        },
        {
          "indexed": true,
          "internalType": "address",
          "name": "_player2Address",
          "type": "address"
        },
        {
          "indexed": true,
          "internalType": "uint256",
          "name": "_gameId",
          "type": "uint256"
        }
      ],
      "name": "GameStarted",
      "type": "event"
    },
    {
      "anonymous": false,
      "inputs": [
        {
          "indexed": true,
          "internalType": "address",
          "name": "_player1Address",
          "type": "address"
        },
        {
          "indexed": true,
          "internalType": "address",
          "name": "_player2Address",
          "type": "address"
        },
        {
          "indexed": true,
          "internalType": "uint256",
          "name": "_gameId",
          "type": "uint256"
        }
      ],
      "name": "InviteToGame",
      "type": "event"
    },
    {
      "anonymous": false,
      "inputs": [
        {
          "indexed": true,
          "internalType": "address",
          "name": "_player1Address",
          "type": "address"
        },
        {
          "indexed": true,
          "internalType": "address",
          "name": "_player2Address",
          "type": "address"
        },
        {
          "indexed": true,
          "internalType": "uint256",
          "name": "_gameId",
          "type": "uint256"
        }
      ],
      "name": "JoinGame",
      "type": "event"
    },
    {
      "anonymous": false,
      "inputs": [
        {
          "indexed": true,
          "internalType": "address",
          "name": "_player1Address",
          "type": "address"
        },
        {
          "indexed": true,
          "internalType": "uint256",
          "name": "_gameId",
          "type": "uint256"
        }
      ],
      "name": "OpenGameCreated",
      "type": "event"
    },
    {
      "anonymous": false,
      "inputs": [
        {
          "indexed": true,
          "internalType": "address",
          "name": "_player1Address",
          "type": "address"
        },
        {
          "indexed": true,
          "internalType": "address",
          "name": "_player2Address",
          "type": "address"
        },
        {
          "indexed": true,
          "internalType": "uint256",
          "name": "_gameId",
          "type": "uint256"
        }
      ],
      "name": "OpenGameJoined",
      "type": "event"
    },
    {
      "anonymous": false,
      "inputs": [
        {
          "indexed": true,
          "internalType": "address",
          "name": "previousOwner",
          "type": "address"
        },
        {
          "indexed": true,
          "internalType": "address",
          "name": "newOwner",
          "type": "address"
        }
      ],
      "name": "OwnershipTransferred",
      "type": "event"
    },
    {
      "inputs": [
        {
          "internalType": "uint256",
          "name": "_gameId",
          "type": "uint256"
        }
      ],
      "name": "acceptInvite",
      "outputs": [],
      "stateMutability": "payable",
      "type": "function"
    },
    {
      "inputs": [],
      "name": "active",
      "outputs": [
        {
          "internalType": "bool",
          "name": "",
          "type": "bool"
        }
      ],
      "stateMutability": "view",
      "type": "function"
    },
    {
      "inputs": [
        {
          "internalType": "uint256",
          "name": "_gameId",
          "type": "uint256"
        }
      ],
      "name": "endGame",
      "outputs": [],
      "stateMutability": "nonpayable",
      "type": "function"
    },
    {
      "inputs": [],
      "name": "feeBalance",
      "outputs": [
        {
          "internalType": "uint256",
          "name": "",
          "type": "uint256"
        }
      ],
      "stateMutability": "view",
      "type": "function"
    },
    {
      "inputs": [],
      "name": "feePercent",
      "outputs": [
        {
          "internalType": "uint256",
          "name": "",
          "type": "uint256"
        }
      ],
      "stateMutability": "view",
      "type": "function"
    },
    {
      "inputs": [],
      "name": "gameCost",
      "outputs": [
        {
          "internalType": "uint256",
          "name": "",
          "type": "uint256"
        }
      ],
      "stateMutability": "view",
      "type": "function"
    },
    {
      "inputs": [
        {
          "internalType": "uint256",
          "name": "",
          "type": "uint256"
        }
      ],
      "name": "games",
      "outputs": [
        {
          "internalType": "uint256",
          "name": "id",
          "type": "uint256"
        },
        {
          "internalType": "address",
          "name": "player1Address",
          "type": "address"
        },
        {
          "internalType": "address",
          "name": "player2Address",
          "type": "address"
        },
        {
          "components": [
            {
              "internalType": "address",
              "name": "ownerAddress",
              "type": "address"
            },
            {
              "components": [
                {
                  "internalType": "int256",
                  "name": "row",
                  "type": "int256"
                },
                {
                  "internalType": "int256",
                  "name": "col",
                  "type": "int256"
                }
              ],
              "internalType": "struct TheThirdLaw.Position",
              "name": "position",
              "type": "tuple"
            },
            {
              "components": [
                {
                  "internalType": "int256",
                  "name": "row",
                  "type": "int256"
                },
                {
                  "internalType": "int256",
                  "name": "col",
                  "type": "int256"
                }
              ],
              "internalType": "struct TheThirdLaw.Velocity",
              "name": "velocity",
              "type": "tuple"
            },
            {
              "internalType": "uint256",
              "name": "remainingTorpedoes",
              "type": "uint256"
            },
            {
              "internalType": "uint256",
              "name": "remainingMines",
              "type": "uint256"
            },
            {
              "components": [
                {
                  "components": [
                    {
                      "internalType": "int256",
                      "name": "row",
                      "type": "int256"
                    },
                    {
                      "internalType": "int256",
                      "name": "col",
                      "type": "int256"
                    }
                  ],
                  "internalType": "struct TheThirdLaw.Position",
                  "name": "position",
                  "type": "tuple"
                },
                {
                  "components": [
                    {
                      "internalType": "int256",
                      "name": "row",
                      "type": "int256"
                    },
                    {
                      "internalType": "int256",
                      "name": "col",
                      "type": "int256"
                    }
                  ],
                  "internalType": "struct TheThirdLaw.Velocity",
                  "name": "velocity",
                  "type": "tuple"
                },
                {
                  "internalType": "uint256",
                  "name": "remainingFuel",
                  "type": "uint256"
                }
              ],
              "internalType": "struct TheThirdLaw.Torpedo[]",
              "name": "torpedoes",
              "type": "tuple[]"
            },
            {
              "components": [
                {
                  "components": [
                    {
                      "internalType": "int256",
                      "name": "row",
                      "type": "int256"
                    },
                    {
                      "internalType": "int256",
                      "name": "col",
                      "type": "int256"
                    }
                  ],
                  "internalType": "struct TheThirdLaw.Position",
                  "name": "position",
                  "type": "tuple"
                }
              ],
              "internalType": "struct TheThirdLaw.Mine[]",
              "name": "mines",
              "type": "tuple[]"
            }
          ],
          "internalType": "struct TheThirdLaw.Ship",
          "name": "player1Ship",
          "type": "tuple"
        },
        {
          "components": [
            {
              "internalType": "address",
              "name": "ownerAddress",
              "type": "address"
            },
            {
              "components": [
                {
                  "internalType": "int256",
                  "name": "row",
                  "type": "int256"
                },
                {
                  "internalType": "int256",
                  "name": "col",
                  "type": "int256"
                }
              ],
              "internalType": "struct TheThirdLaw.Position",
              "name": "position",
              "type": "tuple"
            },
            {
              "components": [
                {
                  "internalType": "int256",
                  "name": "row",
                  "type": "int256"
                },
                {
                  "internalType": "int256",
                  "name": "col",
                  "type": "int256"
                }
              ],
              "internalType": "struct TheThirdLaw.Velocity",
              "name": "velocity",
              "type": "tuple"
            },
            {
              "internalType": "uint256",
              "name": "remainingTorpedoes",
              "type": "uint256"
            },
            {
              "internalType": "uint256",
              "name": "remainingMines",
              "type": "uint256"
            },
            {
              "components": [
                {
                  "components": [
                    {
                      "internalType": "int256",
                      "name": "row",
                      "type": "int256"
                    },
                    {
                      "internalType": "int256",
                      "name": "col",
                      "type": "int256"
                    }
                  ],
                  "internalType": "struct TheThirdLaw.Position",
                  "name": "position",
                  "type": "tuple"
                },
                {
                  "components": [
                    {
                      "internalType": "int256",
                      "name": "row",
                      "type": "int256"
                    },
                    {
                      "internalType": "int256",
                      "name": "col",
                      "type": "int256"
                    }
                  ],
                  "internalType": "struct TheThirdLaw.Velocity",
                  "name": "velocity",
                  "type": "tuple"
                },
                {
                  "internalType": "uint256",
                  "name": "remainingFuel",
                  "type": "uint256"
                }
              ],
              "internalType": "struct TheThirdLaw.Torpedo[]",
              "name": "torpedoes",
              "type": "tuple[]"
            },
            {
              "components": [
                {
                  "components": [
                    {
                      "internalType": "int256",
                      "name": "row",
                      "type": "int256"
                    },
                    {
                      "internalType": "int256",
                      "name": "col",
                      "type": "int256"
                    }
                  ],
                  "internalType": "struct TheThirdLaw.Position",
                  "name": "position",
                  "type": "tuple"
                }
              ],
              "internalType": "struct TheThirdLaw.Mine[]",
              "name": "mines",
              "type": "tuple[]"
            }
          ],
          "internalType": "struct TheThirdLaw.Ship",
          "name": "player2Ship",
          "type": "tuple"
        },
        {
          "internalType": "enum Status",
          "name": "status",
          "type": "uint8"
        },
        {
          "internalType": "uint256",
          "name": "value",
          "type": "uint256"
        },
        {
          "internalType": "address",
          "name": "currentPlayer",
          "type": "address"
        },
        {
          "internalType": "uint256",
          "name": "lastTurnTimestamp",
          "type": "uint256"
        }
      ],
      "stateMutability": "view",
      "type": "function"
    },
    {
      "inputs": [
        {
          "internalType": "uint256",
          "name": "_gameId",
          "type": "uint256"
        }
      ],
      "name": "getGame",
      "outputs": [
        {
          "components": [
            {
              "internalType": "uint256",
              "name": "id",
              "type": "uint256"
            },
            {
              "internalType": "address",
              "name": "player1Address",
              "type": "address"
            },
            {
              "internalType": "address",
              "name": "player2Address",
              "type": "address"
            },
            {
              "components": [
                {
                  "internalType": "address",
                  "name": "ownerAddress",
                  "type": "address"
                },
                {
                  "components": [
                    {
                      "internalType": "int256",
                      "name": "row",
                      "type": "int256"
                    },
                    {
                      "internalType": "int256",
                      "name": "col",
                      "type": "int256"
                    }
                  ],
                  "internalType": "struct TheThirdLaw.Position",
                  "name": "position",
                  "type": "tuple"
                },
                {
                  "components": [
                    {
                      "internalType": "int256",
                      "name": "row",
                      "type": "int256"
                    },
                    {
                      "internalType": "int256",
                      "name": "col",
                      "type": "int256"
                    }
                  ],
                  "internalType": "struct TheThirdLaw.Velocity",
                  "name": "velocity",
                  "type": "tuple"
                },
                {
                  "internalType": "uint256",
                  "name": "remainingTorpedoes",
                  "type": "uint256"
                },
                {
                  "internalType": "uint256",
                  "name": "remainingMines",
                  "type": "uint256"
                },
                {
                  "components": [
                    {
                      "components": [
                        {
                          "internalType": "int256",
                          "name": "row",
                          "type": "int256"
                        },
                        {
                          "internalType": "int256",
                          "name": "col",
                          "type": "int256"
                        }
                      ],
                      "internalType": "struct TheThirdLaw.Position",
                      "name": "position",
                      "type": "tuple"
                    },
                    {
                      "components": [
                        {
                          "internalType": "int256",
                          "name": "row",
                          "type": "int256"
                        },
                        {
                          "internalType": "int256",
                          "name": "col",
                          "type": "int256"
                        }
                      ],
                      "internalType": "struct TheThirdLaw.Velocity",
                      "name": "velocity",
                      "type": "tuple"
                    },
                    {
                      "internalType": "uint256",
                      "name": "remainingFuel",
                      "type": "uint256"
                    }
                  ],
                  "internalType": "struct TheThirdLaw.Torpedo[]",
                  "name": "torpedoes",
                  "type": "tuple[]"
                },
                {
                  "components": [
                    {
                      "components": [
                        {
                          "internalType": "int256",
                          "name": "row",
                          "type": "int256"
                        },
                        {
                          "internalType": "int256",
                          "name": "col",
                          "type": "int256"
                        }
                      ],
                      "internalType": "struct TheThirdLaw.Position",
                      "name": "position",
                      "type": "tuple"
                    }
                  ],
                  "internalType": "struct TheThirdLaw.Mine[]",
                  "name": "mines",
                  "type": "tuple[]"
                }
              ],
              "internalType": "struct TheThirdLaw.Ship",
              "name": "player1Ship",
              "type": "tuple"
            },
            {
              "components": [
                {
                  "internalType": "address",
                  "name": "ownerAddress",
                  "type": "address"
                },
                {
                  "components": [
                    {
                      "internalType": "int256",
                      "name": "row",
                      "type": "int256"
                    },
                    {
                      "internalType": "int256",
                      "name": "col",
                      "type": "int256"
                    }
                  ],
                  "internalType": "struct TheThirdLaw.Position",
                  "name": "position",
                  "type": "tuple"
                },
                {
                  "components": [
                    {
                      "internalType": "int256",
                      "name": "row",
                      "type": "int256"
                    },
                    {
                      "internalType": "int256",
                      "name": "col",
                      "type": "int256"
                    }
                  ],
                  "internalType": "struct TheThirdLaw.Velocity",
                  "name": "velocity",
                  "type": "tuple"
                },
                {
                  "internalType": "uint256",
                  "name": "remainingTorpedoes",
                  "type": "uint256"
                },
                {
                  "internalType": "uint256",
                  "name": "remainingMines",
                  "type": "uint256"
                },
                {
                  "components": [
                    {
                      "components": [
                        {
                          "internalType": "int256",
                          "name": "row",
                          "type": "int256"
                        },
                        {
                          "internalType": "int256",
                          "name": "col",
                          "type": "int256"
                        }
                      ],
                      "internalType": "struct TheThirdLaw.Position",
                      "name": "position",
                      "type": "tuple"
                    },
                    {
                      "components": [
                        {
                          "internalType": "int256",
                          "name": "row",
                          "type": "int256"
                        },
                        {
                          "internalType": "int256",
                          "name": "col",
                          "type": "int256"
                        }
                      ],
                      "internalType": "struct TheThirdLaw.Velocity",
                      "name": "velocity",
                      "type": "tuple"
                    },
                    {
                      "internalType": "uint256",
                      "name": "remainingFuel",
                      "type": "uint256"
                    }
                  ],
                  "internalType": "struct TheThirdLaw.Torpedo[]",
                  "name": "torpedoes",
                  "type": "tuple[]"
                },
                {
                  "components": [
                    {
                      "components": [
                        {
                          "internalType": "int256",
                          "name": "row",
                          "type": "int256"
                        },
                        {
                          "internalType": "int256",
                          "name": "col",
                          "type": "int256"
                        }
                      ],
                      "internalType": "struct TheThirdLaw.Position",
                      "name": "position",
                      "type": "tuple"
                    }
                  ],
                  "internalType": "struct TheThirdLaw.Mine[]",
                  "name": "mines",
                  "type": "tuple[]"
                }
              ],
              "internalType": "struct TheThirdLaw.Ship",
              "name": "player2Ship",
              "type": "tuple"
            },
            {
              "internalType": "enum Status",
              "name": "status",
              "type": "uint8"
            },
            {
              "internalType": "uint256",
              "name": "value",
              "type": "uint256"
            },
            {
              "internalType": "address",
              "name": "currentPlayer",
              "type": "address"
            },
            {
              "internalType": "uint256",
              "name": "lastTurnTimestamp",
              "type": "uint256"
            }
          ],
          "internalType": "struct TheThirdLaw.Game",
          "name": "",
          "type": "tuple"
        }
      ],
      "stateMutability": "view",
      "type": "function"
    },
    {
      "inputs": [
        {
          "internalType": "address",
          "name": "_playerAddress",
          "type": "address"
        }
      ],
      "name": "getGamesForPlayer",
      "outputs": [
        {
          "components": [
            {
              "internalType": "uint256",
              "name": "id",
              "type": "uint256"
            },
            {
              "internalType": "address",
              "name": "player1Address",
              "type": "address"
            },
            {
              "internalType": "address",
              "name": "player2Address",
              "type": "address"
            },
            {
              "components": [
                {
                  "internalType": "address",
                  "name": "ownerAddress",
                  "type": "address"
                },
                {
                  "components": [
                    {
                      "internalType": "int256",
                      "name": "row",
                      "type": "int256"
                    },
                    {
                      "internalType": "int256",
                      "name": "col",
                      "type": "int256"
                    }
                  ],
                  "internalType": "struct TheThirdLaw.Position",
                  "name": "position",
                  "type": "tuple"
                },
                {
                  "components": [
                    {
                      "internalType": "int256",
                      "name": "row",
                      "type": "int256"
                    },
                    {
                      "internalType": "int256",
                      "name": "col",
                      "type": "int256"
                    }
                  ],
                  "internalType": "struct TheThirdLaw.Velocity",
                  "name": "velocity",
                  "type": "tuple"
                },
                {
                  "internalType": "uint256",
                  "name": "remainingTorpedoes",
                  "type": "uint256"
                },
                {
                  "internalType": "uint256",
                  "name": "remainingMines",
                  "type": "uint256"
                },
                {
                  "components": [
                    {
                      "components": [
                        {
                          "internalType": "int256",
                          "name": "row",
                          "type": "int256"
                        },
                        {
                          "internalType": "int256",
                          "name": "col",
                          "type": "int256"
                        }
                      ],
                      "internalType": "struct TheThirdLaw.Position",
                      "name": "position",
                      "type": "tuple"
                    },
                    {
                      "components": [
                        {
                          "internalType": "int256",
                          "name": "row",
                          "type": "int256"
                        },
                        {
                          "internalType": "int256",
                          "name": "col",
                          "type": "int256"
                        }
                      ],
                      "internalType": "struct TheThirdLaw.Velocity",
                      "name": "velocity",
                      "type": "tuple"
                    },
                    {
                      "internalType": "uint256",
                      "name": "remainingFuel",
                      "type": "uint256"
                    }
                  ],
                  "internalType": "struct TheThirdLaw.Torpedo[]",
                  "name": "torpedoes",
                  "type": "tuple[]"
                },
                {
                  "components": [
                    {
                      "components": [
                        {
                          "internalType": "int256",
                          "name": "row",
                          "type": "int256"
                        },
                        {
                          "internalType": "int256",
                          "name": "col",
                          "type": "int256"
                        }
                      ],
                      "internalType": "struct TheThirdLaw.Position",
                      "name": "position",
                      "type": "tuple"
                    }
                  ],
                  "internalType": "struct TheThirdLaw.Mine[]",
                  "name": "mines",
                  "type": "tuple[]"
                }
              ],
              "internalType": "struct TheThirdLaw.Ship",
              "name": "player1Ship",
              "type": "tuple"
            },
            {
              "components": [
                {
                  "internalType": "address",
                  "name": "ownerAddress",
                  "type": "address"
                },
                {
                  "components": [
                    {
                      "internalType": "int256",
                      "name": "row",
                      "type": "int256"
                    },
                    {
                      "internalType": "int256",
                      "name": "col",
                      "type": "int256"
                    }
                  ],
                  "internalType": "struct TheThirdLaw.Position",
                  "name": "position",
                  "type": "tuple"
                },
                {
                  "components": [
                    {
                      "internalType": "int256",
                      "name": "row",
                      "type": "int256"
                    },
                    {
                      "internalType": "int256",
                      "name": "col",
                      "type": "int256"
                    }
                  ],
                  "internalType": "struct TheThirdLaw.Velocity",
                  "name": "velocity",
                  "type": "tuple"
                },
                {
                  "internalType": "uint256",
                  "name": "remainingTorpedoes",
                  "type": "uint256"
                },
                {
                  "internalType": "uint256",
                  "name": "remainingMines",
                  "type": "uint256"
                },
                {
                  "components": [
                    {
                      "components": [
                        {
                          "internalType": "int256",
                          "name": "row",
                          "type": "int256"
                        },
                        {
                          "internalType": "int256",
                          "name": "col",
                          "type": "int256"
                        }
                      ],
                      "internalType": "struct TheThirdLaw.Position",
                      "name": "position",
                      "type": "tuple"
                    },
                    {
                      "components": [
                        {
                          "internalType": "int256",
                          "name": "row",
                          "type": "int256"
                        },
                        {
                          "internalType": "int256",
                          "name": "col",
                          "type": "int256"
                        }
                      ],
                      "internalType": "struct TheThirdLaw.Velocity",
                      "name": "velocity",
                      "type": "tuple"
                    },
                    {
                      "internalType": "uint256",
                      "name": "remainingFuel",
                      "type": "uint256"
                    }
                  ],
                  "internalType": "struct TheThirdLaw.Torpedo[]",
                  "name": "torpedoes",
                  "type": "tuple[]"
                },
                {
                  "components": [
                    {
                      "components": [
                        {
                          "internalType": "int256",
                          "name": "row",
                          "type": "int256"
                        },
                        {
                          "internalType": "int256",
                          "name": "col",
                          "type": "int256"
                        }
                      ],
                      "internalType": "struct TheThirdLaw.Position",
                      "name": "position",
                      "type": "tuple"
                    }
                  ],
                  "internalType": "struct TheThirdLaw.Mine[]",
                  "name": "mines",
                  "type": "tuple[]"
                }
              ],
              "internalType": "struct TheThirdLaw.Ship",
              "name": "player2Ship",
              "type": "tuple"
            },
            {
              "internalType": "enum Status",
              "name": "status",
              "type": "uint8"
            },
            {
              "internalType": "uint256",
              "name": "value",
              "type": "uint256"
            },
            {
              "internalType": "address",
              "name": "currentPlayer",
              "type": "address"
            },
            {
              "internalType": "uint256",
              "name": "lastTurnTimestamp",
              "type": "uint256"
            }
          ],
          "internalType": "struct TheThirdLaw.Game[]",
          "name": "",
          "type": "tuple[]"
        }
      ],
      "stateMutability": "view",
      "type": "function"
    },
    {
      "inputs": [
        {
          "internalType": "address",
          "name": "_playerAddress",
          "type": "address"
        }
      ],
      "name": "getPlayer",
      "outputs": [
        {
          "components": [
            {
              "internalType": "address",
              "name": "ownerAddress",
              "type": "address"
            },
            {
              "internalType": "uint256[]",
              "name": "gameIds",
              "type": "uint256[]"
            },
            {
              "internalType": "uint256[]",
              "name": "inviteIds",
              "type": "uint256[]"
            },
            {
              "internalType": "uint256",
              "name": "victories",
              "type": "uint256"
            },
            {
              "internalType": "uint256",
              "name": "defaultVictories",
              "type": "uint256"
            },
            {
              "internalType": "uint256",
              "name": "defaultLosses",
              "type": "uint256"
            },
            {
              "internalType": "uint256",
              "name": "draws",
              "type": "uint256"
            },
            {
              "internalType": "uint256",
              "name": "losses",
              "type": "uint256"
            },
            {
              "internalType": "uint256",
              "name": "eloRating",
              "type": "uint256"
            },
            {
              "internalType": "uint256",
              "name": "currentShipId",
              "type": "uint256"
            }
          ],
          "internalType": "struct TheThirdLaw.Player",
          "name": "",
          "type": "tuple"
        }
      ],
      "stateMutability": "view",
      "type": "function"
    },
    {
      "inputs": [
        {
          "internalType": "address",
          "name": "_player2Address",
          "type": "address"
        }
      ],
      "name": "inviteToGame",
      "outputs": [],
      "stateMutability": "payable",
      "type": "function"
    },
    {
      "inputs": [],
      "name": "maxMines",
      "outputs": [
        {
          "internalType": "uint256",
          "name": "",
          "type": "uint256"
        }
      ],
      "stateMutability": "view",
      "type": "function"
    },
    {
      "inputs": [],
      "name": "maxTorpedoes",
      "outputs": [
        {
          "internalType": "uint256",
          "name": "",
          "type": "uint256"
        }
      ],
      "stateMutability": "view",
      "type": "function"
    },
    {
      "inputs": [],
      "name": "mineRange",
      "outputs": [
        {
          "internalType": "uint256",
          "name": "",
          "type": "uint256"
        }
      ],
      "stateMutability": "view",
      "type": "function"
    },
    {
      "inputs": [],
      "name": "owner",
      "outputs": [
        {
          "internalType": "address",
          "name": "",
          "type": "address"
        }
      ],
      "stateMutability": "view",
      "type": "function"
    },
    {
      "inputs": [],
      "name": "pause",
      "outputs": [],
      "stateMutability": "nonpayable",
      "type": "function"
    },
    {
      "inputs": [
        {
          "internalType": "address",
          "name": "",
          "type": "address"
        }
      ],
      "name": "players",
      "outputs": [
        {
          "internalType": "address",
          "name": "ownerAddress",
          "type": "address"
        },
        {
          "internalType": "uint256",
          "name": "victories",
          "type": "uint256"
        },
        {
          "internalType": "uint256",
          "name": "defaultVictories",
          "type": "uint256"
        },
        {
          "internalType": "uint256",
          "name": "defaultLosses",
          "type": "uint256"
        },
        {
          "internalType": "uint256",
          "name": "draws",
          "type": "uint256"
        },
        {
          "internalType": "uint256",
          "name": "losses",
          "type": "uint256"
        },
        {
          "internalType": "uint256",
          "name": "eloRating",
          "type": "uint256"
        },
        {
          "internalType": "uint256",
          "name": "currentShipId",
          "type": "uint256"
        }
      ],
      "stateMutability": "view",
      "type": "function"
    },
    {
      "inputs": [
        {
          "internalType": "uint256",
          "name": "_gameId",
          "type": "uint256"
        }
      ],
      "name": "rejectInvite",
      "outputs": [],
      "stateMutability": "nonpayable",
      "type": "function"
    },
    {
      "inputs": [],
      "name": "renounceOwnership",
      "outputs": [],
      "stateMutability": "nonpayable",
      "type": "function"
    },
    {
      "inputs": [
        {
          "internalType": "uint256",
          "name": "_feePercent",
          "type": "uint256"
        }
      ],
      "name": "setFeePercent",
      "outputs": [],
      "stateMutability": "nonpayable",
      "type": "function"
    },
    {
      "inputs": [
        {
          "internalType": "uint256",
          "name": "_gameCost",
          "type": "uint256"
        }
      ],
      "name": "setGameCost",
      "outputs": [],
      "stateMutability": "nonpayable",
      "type": "function"
    },
    {
      "inputs": [
        {
          "internalType": "uint256",
          "name": "_mineRange",
          "type": "uint256"
        }
      ],
      "name": "setMineRange",
      "outputs": [],
      "stateMutability": "nonpayable",
      "type": "function"
    },
    {
      "inputs": [
        {
          "internalType": "uint256",
          "name": "_maxMines",
          "type": "uint256"
        }
      ],
      "name": "setNumberMines",
      "outputs": [],
      "stateMutability": "nonpayable",
      "type": "function"
    },
    {
      "inputs": [
        {
          "internalType": "uint256",
          "name": "_maxTorpedoes",
          "type": "uint256"
        }
      ],
      "name": "setNumberTorpedoes",
      "outputs": [],
      "stateMutability": "nonpayable",
      "type": "function"
    },
    {
      "inputs": [
        {
          "internalType": "int256",
          "name": "_torpedoAccel",
          "type": "int256"
        }
      ],
      "name": "setTorpedoAccel",
      "outputs": [],
      "stateMutability": "nonpayable",
      "type": "function"
    },
    {
      "inputs": [
        {
          "internalType": "uint256",
          "name": "_torpedoFuel",
          "type": "uint256"
        }
      ],
      "name": "setTorpedoFuel",
      "outputs": [],
      "stateMutability": "nonpayable",
      "type": "function"
    },
    {
      "inputs": [
        {
          "internalType": "uint256",
          "name": "_gameId",
          "type": "uint256"
        },
        {
          "internalType": "enum LeftOrRight",
          "name": "_leftOrRight",
          "type": "uint8"
        },
        {
          "internalType": "enum UpOrDown",
          "name": "_upOrDown",
          "type": "uint8"
        },
        {
          "internalType": "enum Action",
          "name": "_action",
          "type": "uint8"
        }
      ],
      "name": "takeTurn",
      "outputs": [],
      "stateMutability": "nonpayable",
      "type": "function"
    },
    {
      "inputs": [],
      "name": "torpedoAccel",
      "outputs": [
        {
          "internalType": "int256",
          "name": "",
          "type": "int256"
        }
      ],
      "stateMutability": "view",
      "type": "function"
    },
    {
      "inputs": [],
      "name": "torpedoFuel",
      "outputs": [
        {
          "internalType": "uint256",
          "name": "",
          "type": "uint256"
        }
      ],
      "stateMutability": "view",
      "type": "function"
    },
    {
      "inputs": [
        {
          "internalType": "address",
          "name": "newOwner",
          "type": "address"
        }
      ],
      "name": "transferOwnership",
      "outputs": [],
      "stateMutability": "nonpayable",
      "type": "function"
    },
    {
      "inputs": [],
      "name": "turnTimeout",
      "outputs": [
        {
          "internalType": "uint256",
          "name": "",
          "type": "uint256"
        }
      ],
      "stateMutability": "view",
      "type": "function"
    },
    {
      "inputs": [],
      "name": "withdrawFee",
      "outputs": [],
      "stateMutability": "nonpayable",
      "type": "function"
    }
  ],
  "transactionHash": "0x41ffe77ad28bb80068bba65de6e58797c7f814102903a31cb41911fd2efbe17b",
  "args": [],
  "numDeployments": 3,
  "solcInputHash": "2b9630fe6c24e9422dd757adde312e68",
  "bytecode": "0x608060405266038d7ea4c680006001908155600a6002818155600060038181556005600481905580556006849055600792909255600891909155620493e0600955815460ff19169092179055600b55627e868d600c553480156200006257600080fd5b506200006e3362000080565b600e80546001018155600052620000d0565b600080546001600160a01b038381166001600160a01b0319831681178455604051919092169283917f8be0079c531659141344cd1fd0a4f28419497f9722a3daafe3b4186f6b6457e09190a35050565b6137e280620000e06000396000f3fe6080604052600436106101e35760003560e01c80637fd6f15c11610102578063c2e80b4711610095578063e2eb41ff11610064578063e2eb41ff1461054b578063e941fa78146105f8578063f2fde38b1461060d578063f9d860731461062d57600080fd5b8063c2e80b47146104d5578063cab896dc146104f5578063cd607b621461050b578063d0399bb81461052b57600080fd5b8063a2f77bcc116100d1578063a2f77bcc14610462578063b69667fe1461048f578063bf8e9176146104a2578063c15e7e30146104b557600080fd5b80637fd6f15c146103ef5780638456cb59146104055780638da5cb5b1461041a57806391c876711461044257600080fd5b806356ce11751161017a5780636cc4b0b7116101495780636cc4b0b714610384578063715018a61461039a5780637ce3489b146103af5780637f17b79d146103cf57600080fd5b806356ce11751461030b5780635c12cd4b1461032157806360b71d4e1461034e57806367c5f6e51461036457600080fd5b806341b02d71116101b657806341b02d711461029d57806346b9bfe4146102b35780634f764e35146102d5578063544722af146102f557600080fd5b806302fb0c5e146101e85780630aa1b26614610217578063117a5b90146102445780633c6e43a914610279575b600080fd5b3480156101f457600080fd5b50600a546102029060ff1681565b60405190151581526020015b60405180910390f35b34801561022357600080fd5b5061023761023236600461316d565b610643565b60405161020e91906133dc565b34801561025057600080fd5b5061026461025f36600461343e565b610b13565b60405161020e99989796959493929190613457565b34801561028557600080fd5b5061028f60045481565b60405190815260200161020e565b3480156102a957600080fd5b5061028f60085481565b3480156102bf57600080fd5b506102d36102ce36600461343e565b610e70565b005b3480156102e157600080fd5b506102d36102f036600461343e565b610e7d565b34801561030157600080fd5b5061028f60075481565b34801561031757600080fd5b5061028f60055481565b34801561032d57600080fd5b5061034161033c36600461316d565b610e8a565b60405161020e9190613503565b34801561035a57600080fd5b5061028f60035481565b34801561037057600080fd5b506102d361037f36600461343e565b611011565b34801561039057600080fd5b5061028f60095481565b3480156103a657600080fd5b506102d361101e565b3480156103bb57600080fd5b506102d36103ca36600461343e565b611032565b3480156103db57600080fd5b506102d36103ea36600461343e565b61103f565b3480156103fb57600080fd5b5061028f60025481565b34801561041157600080fd5b506102d361104c565b34801561042657600080fd5b506000546040516001600160a01b03909116815260200161020e565b34801561044e57600080fd5b506102d361045d36600461343e565b611060565b34801561046e57600080fd5b5061048261047d36600461343e565b611171565b60405161020e91906135b4565b6102d361049d36600461316d565b61152f565b6102d36104b036600461343e565b611717565b3480156104c157600080fd5b506102d36104d03660046135d4565b611862565b3480156104e157600080fd5b506102d36104f036600461343e565b611c66565b34801561050157600080fd5b5061028f60015481565b34801561051757600080fd5b506102d361052636600461343e565b611c73565b34801561053757600080fd5b506102d361054636600461343e565b611c80565b34801561055757600080fd5b506105b361056636600461316d565b600d60205260009081526040902080546003820154600483015460058401546006850154600786015460088701546009909701546001600160a01b03909616969495939492939192909188565b604080516001600160a01b0390991689526020890197909752958701949094526060860192909252608085015260a084015260c083015260e08201526101000161020e565b34801561060457600080fd5b506102d3611d2c565b34801561061957600080fd5b506102d361062836600461316d565b611d6a565b34801561063957600080fd5b5061028f60065481565b6001600160a01b0381166000908152600d602090815260408083206001018054825181850281018501909352808352606094938301828280156106a557602002820191906000526020600020905b815481526020019060010190808311610691575b505050505090506000815167ffffffffffffffff8111156106c8576106c8613627565b60405190808252806020026020018201604052801561070157816020015b6106ee613022565b8152602001906001900390816106e65790505b50905060005b8251811015610b0b57600e8382815181106107245761072461363d565b60200260200101518154811061073c5761073c61363d565b60009182526020808320604080516101208101825260199094029091018054845260018101546001600160a01b03908116858501526002820154811685840152825160e0810184526003830180549092168152835180850185526004840154815260058401548187015281860152835180850185526006840154815260078401548187015281850152600883015460608281019190915260098401546080830152600a8401805486518189028101890190975280875297989497918901969295939460a08701949391929184015b8282101561087a5760008481526020908190206040805160a08101825260058602909201805460608401908152600180830154608086015290845282518084018452600283015481526003830154818701528486015260049091015491830191909152908352909201910161080a565b50505050815260200160088201805480602002602001604051908101604052809291908181526020016000905b828210156108f0576000848152602090819020604080516060810182526002860290920180548385019081526001918201549284019290925290825290835290920191016108a7565b5050509152505081526040805160e081018252600c840180546001600160a01b0316825282518084018452600d8601548152600e8601546020828101919091528381019190915283518085018552600f8701548152601087015481830152838501526011860154606084015260128601546080840152601386018054855181840281018401909652808652958201959394929360a08601939260009084015b828210156109ff5760008481526020908190206040805160a08101825260058602909201805460608401908152600180830154608086015290845282518084018452600283015481526003830154818701528486015260049091015491830191909152908352909201910161098f565b50505050815260200160088201805480602002602001604051908101604052809291908181526020016000905b82821015610a7557600084815260209081902060408051606081018252600286029092018054838501908152600191820154928401929092529082529083529092019101610a2c565b505050915250508152601582015460209091019060ff166007811115610a9d57610a9d6132e5565b6007811115610aae57610aae6132e5565b81526016820154602082015260178201546001600160a01b031660408201526018909101546060909101528251839083908110610aed57610aed61363d565b60200260200101819052508080610b0390613669565b915050610707565b509392505050565b600e8181548110610b2357600080fd5b6000918252602080832060199092029091018054600182015460028301546040805160e0810182526003860180546001600160a01b03908116835283518085018552600489015481526005890154818b0152838a015283518085018552600689015481526007890154818b0152838501526008880154606084015260098801546080840152600a880180548551818c0281018c01909652808652979b50958116999416979195909460a0870194909284015b82821015610c455760008481526020908190206040805160a081018252600586029092018054606084019081526001808301546080860152908452825180840184526002830154815260038301548187015284860152600490910154918301919091529083529092019101610bd5565b50505050815260200160088201805480602002602001604051908101604052809291908181526020016000905b82821015610cbb57600084815260209081902060408051606081018252600286029092018054838501908152600191820154928401929092529082529083529092019101610c72565b505050915250506040805160e081018252600c840180546001600160a01b0316825282518084018452600d8601548152600e8601546020828101919091528084019190915283518085018552600f87015481526010870154818301528385015260118601546060840152601286015460808401526013860180548551818402810184019096528086529596959394929360a08601939260009084015b82821015610dc75760008481526020908190206040805160a081018252600586029092018054606084019081526001808301546080860152908452825180840184526002830154815260038301548187015284860152600490910154918301919091529083529092019101610d57565b50505050815260200160088201805480602002602001604051908101604052809291908181526020016000905b82821015610e3d57600084815260209081902060408051606081018252600286029092018054838501908152600191820154928401929092529082529083529092019101610df4565b50505091525050601582015460168301546017840154601890940154929360ff9092169290916001600160a01b03169089565b610e78611de0565b600855565b610e85611de0565b600755565b610ee960405180610140016040528060006001600160a01b031681526020016060815260200160608152602001600081526020016000815260200160008152602001600081526020016000815260200160008152602001600081525090565b6001600160a01b038083166000908152600d602090815260409182902082516101408101845281549094168452600181018054845181850281018501909552808552919385840193909290830182828015610f6357602002820191906000526020600020905b815481526020019060010190808311610f4f575b5050505050815260200160028201805480602002602001604051908101604052809291908181526020018280548015610fbb57602002820191906000526020600020905b815481526020019060010190808311610fa7575b505050505081526020016003820154815260200160048201548152602001600582015481526020016006820154815260200160078201548152602001600882015481526020016009820154815250509050919050565b611019611de0565b600455565b611026611de0565b6110306000611e3a565b565b61103a611de0565b600255565b611047611de0565b600155565b611054611de0565b600a805460ff19169055565b336001600160a01b0316600e828154811061107d5761107d61363d565b60009182526020909120600260199092020101546001600160a01b0316146110c05760405163da271c6960e01b8152600481018290526024015b60405180910390fd5b600e81815481106110d3576110d361363d565b906000526020600020906019020160160154600360008282546110f69190613682565b925050819055506000600e82815481106111125761111261363d565b9060005260206000209060190201601601819055506007600e828154811061113c5761113c61363d565b60009182526020909120601560199092020101805460ff19166001836007811115611169576111696132e5565b021790555050565b611179613022565b600e828154811061118c5761118c61363d565b60009182526020808320604080516101208101825260199094029091018054845260018101546001600160a01b03908116858501526002820154811685840152825160e0810184526003830180549092168152835180850185526004840154815260058401548187015281860152835180850185526006840154815260078401548187015281850152600883015460608281019190915260098401546080830152600a8401805486518189028101890190975280875297989497918901969295939460a08701949391929184015b828210156112ca5760008481526020908190206040805160a08101825260058602909201805460608401908152600180830154608086015290845282518084018452600283015481526003830154818701528486015260049091015491830191909152908352909201910161125a565b50505050815260200160088201805480602002602001604051908101604052809291908181526020016000905b82821015611340576000848152602090819020604080516060810182526002860290920180548385019081526001918201549284019290925290825290835290920191016112f7565b5050509152505081526040805160e081018252600c840180546001600160a01b0316825282518084018452600d8601548152600e8601546020828101919091528381019190915283518085018552600f8701548152601087015481830152838501526011860154606084015260128601546080840152601386018054855181840281018401909652808652958201959394929360a08601939260009084015b8282101561144f5760008481526020908190206040805160a0810182526005860290920180546060840190815260018083015460808601529084528251808401845260028301548152600383015481870152848601526004909101549183019190915290835290920191016113df565b50505050815260200160088201805480602002602001604051908101604052809291908181526020016000905b828210156114c55760008481526020908190206040805160608101825260028602909201805483850190815260019182015492840192909252908252908352909201910161147c565b505050915250508152601582015460209091019060ff1660078111156114ed576114ed6132e5565b60078111156114fe576114fe6132e5565b81526016820154602082015260178201546001600160a01b0316604082015260189091015460609091015292915050565b600a5460ff166115525760405163ab35696f60e01b815260040160405180910390fd5b600154341461157457604051631036b5ad60e31b815260040160405180910390fd5b336000908152600d60205260409020546001600160a01b031661159957611599611e8a565b600e805460018101808355600083905290918291829081106115bd576115bd61363d565b90600052602060002090601902016000018190555033600e82815481106115e6576115e661363d565b906000526020600020906019020160010160006101000a8154816001600160a01b0302191690836001600160a01b0316021790555081600e828154811061162f5761162f61363d565b906000526020600020906019020160020160006101000a8154816001600160a01b0302191690836001600160a01b0316021790555034600e82815481106116785761167861363d565b600091825260208083206016601990930201919091019290925533808252600d83526040808320600190810180548083018255908552858520018690556001600160a01b038716808552828520808301805480850182559087528787200188905560020180549283018155855294842001859055518493927f64104361ad73841dc20b552e4700f3f464329596092336a5e3c02d8862623b6691a45050565b600154341461173957604051631036b5ad60e31b815260040160405180910390fd5b336000908152600d60205260409020546001600160a01b031661175e5761175e611e8a565b336001600160a01b0316600e828154811061177b5761177b61363d565b60009182526020909120600260199092020101546001600160a01b0316146117b95760405163da271c6960e01b8152600481018290526024016110b7565b34600e82815481106117cd576117cd61363d565b906000526020600020906019020160160160008282546117ed9190613682565b909155506117fc905081611fcd565b80336001600160a01b0316600e838154811061181a5761181a61363d565b600091825260208220600160199092020101546040516001600160a01b03909116917fbfd436d24d21060f278a8b528282bc3a5bca811b5e108e411c10ca75d65f646791a450565b6000600e85815481106118775761187761363d565b6000918252602090912060199091020190506006601582015460ff1660078111156118a4576118a46132e5565b146118c15760405162a3097160e01b815260040160405180910390fd5b60178101546001600160a01b031633146118ee57604051631cc191eb60e31b815260040160405180910390fd5b6001810154601782015460009182916001600160a01b0391821691160361191e57505060038101600c8201611929565b5050600c8101600382015b600186600281111561193d5761193d6132e5565b0361196557600182600301600101600082825461195a9190613695565b9091555061199c9050565b6002866002811115611979576119796132e5565b0361199c57600182600301600101600082825461199691906136bc565b90915550505b60018560028111156119b0576119b06132e5565b036119d85760018260030160000160008282546119cd9190613695565b90915550611a0f9050565b60028560028111156119ec576119ec6132e5565b03611a0f576001826003016000016000828254611a0991906136bc565b90915550505b6001846002811115611a2357611a236132e5565b03611b05578160050154600003611a4d5760405163bab1d9e760e01b815260040160405180910390fd5b6001826005016000828254611a6291906136e4565b90915550506040805160a08101825260018085015460608301908152600280870154608085015290835283518085018552600380880154825260048089015460208481019190915280870193845260065497870197885260078a0180548088018255600091825290829020975180516005909202909801908155968101519587019590955591518051938601939093559190920151908301559151910155611bb0565b6002846002811115611b1957611b196132e5565b03611bb0578160060154600003611b4357604051630adb358f60e11b815260040160405180910390fd5b6001826006016000828254611b5891906136e4565b9091555050604080516060810182526001808501546020808401918252600280880154958501959095529083526008860180548084018255600091825290829020935180519190950290930192835592909201519101555b611bb98261243b565b611bc3838361247a565b611bcd83836124e3565b611bdb83838360080161255f565b611be983828460070161262c565b426018840155600183015460178401546001600160a01b03918216911603611c365760028301546017840180546001600160a01b0319166001600160a01b03909216919091179055611c5d565b60018301546017840180546001600160a01b0319166001600160a01b039092169190911790555b50505050505050565b611c6e611de0565b600555565b611c7b611de0565b600655565b336001600160a01b0316600e8281548110611c9d57611c9d61363d565b60009182526020909120600160199092020101546001600160a01b031614801590611d005750336001600160a01b0316600e8281548110611ce057611ce061363d565b60009182526020909120600260199092020101546001600160a01b031614155b15611d1e57604051631794a8af60e11b815260040160405180910390fd5b611d29816005612a5b565b50565b611d34611de0565b600354604051339180156108fc02916000818181858888f19350505050158015611d62573d6000803e3d6000fd5b506000600355565b611d72611de0565b6001600160a01b038116611dd75760405162461bcd60e51b815260206004820152602660248201527f4f776e61626c653a206e6577206f776e657220697320746865207a65726f206160448201526564647265737360d01b60648201526084016110b7565b611d2981611e3a565b6000546001600160a01b031633146110305760405162461bcd60e51b815260206004820181905260248201527f4f776e61626c653a2063616c6c6572206973206e6f7420746865206f776e657260448201526064016110b7565b600080546001600160a01b038381166001600160a01b0319831681178455604051919092169283917f8be0079c531659141344cd1fd0a4f28419497f9722a3daafe3b4186f6b6457e09190a35050565b336000908152600d60205260409020546001600160a01b031615611ec157604051630ea075bf60e21b815260040160405180910390fd5b60408051610140810182523380825282516000808252602080830186528085019283528551828152808201875285870152606085018290526080850182905260a0850182905260c0850182905260e085018290526104b06101008601526101208501829052928152600d835293909320825181546001600160a01b0319166001600160a01b0390911617815592518051929392611f649260018501920190613095565b5060408201518051611f80916002840191602090910190613095565b50606082015160038201556080820151600482015560a0820151600582015560c0820151600682015560e08201516007820155610100820151600882015561012090910151600990910155565b6000600e8281548110611fe257611fe261363d565b906000526020600020906019020160030190506000600e838154811061200a5761200a61363d565b600091825260208220600c60199092020101915061202960024361370d565b1561203657600019612039565b60015b9050600e848154811061204e5761204e61363d565b600091825260209091206001601990920201015483546001600160a01b0319166001600160a01b039091161783556040805180820190915280612092836014613721565b81526020016120a16014613751565b9052805160018501556020908101516002808601919091556040805180820190915260008082529201829052600385018290556004808601839055546005808701919091555460068601556120f6904261370d565b1561210357600019612106565b60015b9050600e858154811061211b5761211b61363d565b600091825260209091206002601990920201015483546001600160a01b0319166001600160a01b03909116178355604080518082019091528061215f836014613721565b81526014602091820152815160018601559081015160028086019190915560408051808201909152600080825292018290526003850182905560048086019290925590546005808601919091555460068501556121bc904461376d565b60000361224857600e85815481106121d6576121d661363d565b906000526020600020906019020160010160009054906101000a90046001600160a01b0316600e868154811061220e5761220e61363d565b906000526020600020906019020160170160006101000a8154816001600160a01b0302191690836001600160a01b031602179055506122c9565b600e858154811061225b5761225b61363d565b906000526020600020906019020160020160009054906101000a90046001600160a01b0316600e86815481106122935761229361363d565b906000526020600020906019020160170160006101000a8154816001600160a01b0302191690836001600160a01b031602179055505b6006600e86815481106122de576122de61363d565b60009182526020909120601560199092020101805460ff1916600183600781111561230b5761230b6132e5565b021790555060006064600254600e888154811061232a5761232a61363d565b9060005260206000209060190201601601546123469190613781565b6123509190613798565b905080600360008282546123649190613682565b9250508190555080600e878154811061237f5761237f61363d565b9060005260206000209060190201601601600082825461239f91906136e4565b9250508190555085600e87815481106123ba576123ba61363d565b6000918252602090912060026019909202010154600e80546001600160a01b0390921691899081106123ee576123ee61363d565b600091825260208220600160199092020101546040516001600160a01b03909116917fee0dca10a9957dad74da3fe318a3ccc561c46d96be0ab0b66e7aff32aab94cf391a4505050505050565b60038101546001820180546000906124549084906136bc565b909155505060048101546002820180546000906124729084906136bc565b909155505050565b601e61248c8260010160000154612fca565b13806124a75750601e6124a58260010160010154612fca565b135b156124d257600182015481546001600160a01b039182169116036124d65781546124d2906003612a5b565b5050565b81546124d2906004612a5b565b600a61252782600101604051806040016040529081600082015481526020016001820154815250506040518060400160405280600081526020016000815250612fe7565b116124d257600182015481546001600160a01b039182169116036125525781546124d2906001612a5b565b81546124d2906002612a5b565b60005b81548110156126265760075460408051808201909152600185015481526002850154602082015283546125d791908590859081106125a2576125a261363d565b906000526020600020906002020160000160405180604001604052908160008201548152602001600182015481525050612fe7565b1161261457600184015483546001600160a01b03918216911603612607578354612602906001612a5b565b612614565b8354612614906002612a5b565b8061261e81613669565b915050612562565b50505050565b60005b81548110156126265781818154811061264a5761264a61363d565b90600052602060002090600502016004015460000315612a495760018282815481106126785761267861363d565b9060005260206000209060050201600401600082825461269891906136e4565b92505081905550600060405180604001604052808484815481106126be576126be61363d565b9060005260206000209060050201600201600001548585815481106126e5576126e561363d565b600091825260209091206005909102015461270091906136bc565b81526020018484815481106127175761271761363d565b90600052602060002090600502016002016001015485858154811061273e5761273e61363d565b90600052602060002090600502016000016001015461275d91906136bc565b90526008546001860154825192935090916127809161277b91613695565b612fca565b131580156127a65750600854600285015460208301516127a39161277b91613695565b13155b156127e357600185015484546001600160a01b039182169116036127d65784546127d1906001612a5b565b6127e3565b84546127e3906002612a5b565b600184015481511215612830576001840154600854825161280491906136bc565b1215612824576008548151829061281c9083906136bc565b905250612871565b60018401548152612871565b60018401548151131561287157600184015460085482516128519190613695565b1315612869576008548151829061281c908390613695565b600184015481525b6002840154602082015112156128c9576002840154600854602083015161289891906136bc565b12156128ba57600854816020018181516128b291906136bc565b905250612915565b60028401546020820152612915565b60028401546020820151131561291557600284015460085460208301516128f09190613695565b131561290a57600854816020018181516128b29190613695565b600284015460208201525b60405180604001604052808484815481106129325761293261363d565b6000918252602090912060059091020154835161294f9190613695565b81526020018484815481106129665761296661363d565b906000526020600020906005020160000160010154836020015161298a9190613695565b81525083838154811061299f5761299f61363d565b90600052602060002090600502016002016000820151816000015560208201518160010155905050808383815481106129da576129da61363d565b600091825260208083208451600590930201918255928301516001909101556040805180820190915281815291820152600a90612a18908390612fe7565b11612a47576000838381548110612a3157612a3161363d565b9060005260206000209060050201600401819055505b505b80612a5381613669565b91505061262f565b6000600e8381548110612a7057612a7061363d565b90600052602060002090601902019050818160150160006101000a81548160ff02191690836007811115612aa657612aa66132e5565b02179055506017810180546001600160a01b03191690556001826007811115612ad157612ad16132e5565b03612b905760028101546001600160a01b03166000908152600d60205260408120600301805460019290612b06908490613682565b90915550506001818101546001600160a01b03166000908152600d602052604081206007018054909190612b3b908490613682565b9091555050601681018054600091829055600283015460405191926001600160a01b039091169183156108fc0291849190818181858888f19350505050158015612b89573d6000803e3d6000fd5b5050612f82565b6002826007811115612ba457612ba46132e5565b03612c6a576001818101546001600160a01b03166000908152600d602052604081206003018054909190612bd9908490613682565b909155505060028101546001600160a01b03166000908152600d60205260408120600701805460019290612c0e908490613682565b9091555050601681018054600091829055600183015460405191926001600160a01b039091169183156108fc0291849190818181858888f19350505050158015612c5c573d6000803e3d6000fd5b505060006016820155612f82565b6003826007811115612c7e57612c7e6132e5565b03612d7a5760028101546001600160a01b03166000908152600d60205260408120600401805460019290612cb3908490613682565b90915550506001818101546001600160a01b03166000908152600d602052604081206005018054909190612ce8908490613682565b9091555050601681018054600091829055906064612d0783604b613781565b612d119190613798565b60028401546040519192506001600160a01b03169082156108fc029083906000818181858888f19350505050158015612d4e573d6000803e3d6000fd5b50612d5981836136e4565b91508160036000828254612d6d9190613682565b90915550612f8292505050565b6004826007811115612d8e57612d8e6132e5565b03612e5e576001818101546001600160a01b03166000908152600d602052604081206004018054909190612dc3908490613682565b909155505060028101546001600160a01b03166000908152600d60205260408120600501805460019290612df8908490613682565b9091555050601681018054600091829055906064612e1783604b613781565b612e219190613798565b60018401546040519192506001600160a01b03169082156108fc029083906000818181858888f19350505050158015612d4e573d6000803e3d6000fd5b6005826007811115612e7257612e726132e5565b03612f82576001818101546001600160a01b03166000908152600d602052604081206006018054909190612ea7908490613682565b909155505060028101546001600160a01b03166000908152600d60205260408120600601805460019290612edc908490613682565b909155505060168101805460009182905590612ef9600283613798565b60018401546040519192506001600160a01b03169082156108fc029083906000818181858888f19350505050158015612f36573d6000803e3d6000fd5b50612f4181836136e4565b60028401546040519193506001600160a01b03169083156108fc029084906000818181858888f19350505050158015612f7e573d6000803e3d6000fd5b5050505b6002810154600182015460405185926001600160a01b039081169216907fd13e8f06e2982264b04d30acdae3d74f4241e1dde5c38af5f6a38820d14348f590600090a4505050565b600080821215612fe357612fdd82613751565b92915050565b5090565b60006130008260200151846020015161277b9190613695565b825184516130119161277b91613695565b61301b91906136bc565b9392505050565b6040518061012001604052806000815260200160006001600160a01b0316815260200160006001600160a01b0316815260200161305d6130dc565b815260200161306a6130dc565b8152602001600081526020016000815260200160006001600160a01b03168152602001600081525090565b8280548282559060005260206000209081019282156130d0579160200282015b828111156130d05782518255916020019190600101906130b5565b50612fe3929150613158565b6040518060e0016040528060006001600160a01b03168152602001613114604051806040016040528060008152602001600081525090565b8152602001613136604051806040016040528060008152602001600081525090565b8152602001600081526020016000815260200160608152602001606081525090565b5b80821115612fe35760008155600101613159565b60006020828403121561317f57600080fd5b81356001600160a01b038116811461301b57600080fd5b600081518084526020808501945080840160005b838110156131db576131c88783515180518252602090810151910152565b60409690960195908201906001016131aa565b509495945050505050565b80516001600160a01b0316825260208082015180518285015280820151604085015260009161012091858301919050604085810151805160608901526020810151608089015250606086015160a08881019190915260808088015160c08a01528188015160e08a01969096528551948590526101408901958401949091906000905b808210156132bd57865161328789825180518252602090810151910152565b868101516132a1878b018280518252602090810151910152565b5085015188850152968201969585019560019190910190613268565b5050505050505060c08301518482036101008601526132dc8282613196565b95945050505050565b634e487b7160e01b600052602160045260246000fd5b6008811061331957634e487b7160e01b600052602160045260246000fd5b9052565b600061012082518452602083015161334060208601826001600160a01b03169052565b50604083015161335b60408601826001600160a01b03169052565b506060830151816060860152613373828601826131e6565b9150506080830151848203608086015261338d82826131e6565b91505060a08301516133a260a08601826132fb565b5060c083015160c085015260e08301516133c760e08601826001600160a01b03169052565b50610100928301519390920192909252919050565b6000602080830181845280855180835260408601915060408160051b870101925083870160005b8281101561343157603f1988860301845261341f85835161331d565b94509285019290850190600101613403565b5092979650505050505050565b60006020828403121561345057600080fd5b5035919050565b8981526001600160a01b03898116602083015288811660408301526101206060830181905260009161348b8483018b6131e6565b9150838203608085015261349f828a6131e6565b92506134ae60a08501896132fb565b8660c085015280861660e08501525050826101008301529a9950505050505050505050565b600081518084526020808501945080840160005b838110156131db578151875295820195908201906001016134e7565b6020815261351d6020820183516001600160a01b03169052565b6000602083015161014080604085015261353b6101608501836134d3565b91506040850151601f1985840301606086015261355883826134d3565b92505060608501516080850152608085015160a085015260a085015160c085015260c085015160e085015260e0850151610100818187015280870151915050610120818187015280870151838701525050508091505092915050565b60208152600061301b602083018461331d565b60038110611d2957600080fd5b600080600080608085870312156135ea57600080fd5b8435935060208501356135fc816135c7565b9250604085013561360c816135c7565b9150606085013561361c816135c7565b939692955090935050565b634e487b7160e01b600052604160045260246000fd5b634e487b7160e01b600052603260045260246000fd5b634e487b7160e01b600052601160045260246000fd5b60006001820161367b5761367b613653565b5060010190565b80820180821115612fdd57612fdd613653565b81810360008312801583831316838312821617156136b5576136b5613653565b5092915050565b80820182811260008312801582168215821617156136dc576136dc613653565b505092915050565b81810381811115612fdd57612fdd613653565b634e487b7160e01b600052601260045260246000fd5b60008261371c5761371c6136f7565b500790565b80820260008212600160ff1b8414161561373d5761373d613653565b8181058314821517612fdd57612fdd613653565b6000600160ff1b820161376657613766613653565b5060000390565b60008261377c5761377c6136f7565b500690565b8082028115828204841417612fdd57612fdd613653565b6000826137a7576137a76136f7565b50049056fea26469706673582212205026b238c4566262994988936a1404302d15f2f5e0189aeb2dc04393884e4b2264736f6c63430008130033",
  "devdoc": {
    "kind": "dev",
    "methods": {
      "owner()": {
        "details": "Returns the address of the current owner."
      },
      "renounceOwnership()": {
        "details": "Leaves the contract without owner. It will not be possible to call `onlyOwner` functions. Can only be called by the current owner. NOTE: Renouncing ownership will leave the contract without an owner, thereby disabling any functionality that is only available to the owner."
      },
      "transferOwnership(address)": {
        "details": "Transfers ownership of the contract to a new account (`newOwner`). Can only be called by the current owner."
      }
    },
    "version": 1
  },
  "userdoc": {
    "kind": "user",
    "methods": {},
    "version": 1
  },
  "storageLayout": {
    "storage": [
      {
        "astId": 7,
        "contract": "contracts/TheThirdLaw.sol:TheThirdLaw",
        "label": "_owner",
        "offset": 0,
        "slot": "0",
        "type": "t_address"
      },
      {
        "astId": 197,
        "contract": "contracts/TheThirdLaw.sol:TheThirdLaw",
        "label": "gameCost",
        "offset": 0,
        "slot": "1",
        "type": "t_uint256"
      },
      {
        "astId": 200,
        "contract": "contracts/TheThirdLaw.sol:TheThirdLaw",
        "label": "feePercent",
        "offset": 0,
        "slot": "2",
        "type": "t_uint256"
      },
      {
        "astId": 203,
        "contract": "contracts/TheThirdLaw.sol:TheThirdLaw",
        "label": "feeBalance",
        "offset": 0,
        "slot": "3",
        "type": "t_uint256"
      },
      {
        "astId": 206,
        "contract": "contracts/TheThirdLaw.sol:TheThirdLaw",
        "label": "maxTorpedoes",
        "offset": 0,
        "slot": "4",
        "type": "t_uint256"
      },
      {
        "astId": 209,
        "contract": "contracts/TheThirdLaw.sol:TheThirdLaw",
        "label": "maxMines",
        "offset": 0,
        "slot": "5",
        "type": "t_uint256"
      },
      {
        "astId": 212,
        "contract": "contracts/TheThirdLaw.sol:TheThirdLaw",
        "label": "torpedoFuel",
        "offset": 0,
        "slot": "6",
        "type": "t_uint256"
      },
      {
        "astId": 215,
        "contract": "contracts/TheThirdLaw.sol:TheThirdLaw",
        "label": "mineRange",
        "offset": 0,
        "slot": "7",
        "type": "t_uint256"
      },
      {
        "astId": 218,
        "contract": "contracts/TheThirdLaw.sol:TheThirdLaw",
        "label": "torpedoAccel",
        "offset": 0,
        "slot": "8",
        "type": "t_int256"
      },
      {
        "astId": 225,
        "contract": "contracts/TheThirdLaw.sol:TheThirdLaw",
        "label": "turnTimeout",
        "offset": 0,
        "slot": "9",
        "type": "t_uint256"
      },
      {
        "astId": 228,
        "contract": "contracts/TheThirdLaw.sol:TheThirdLaw",
        "label": "active",
        "offset": 0,
        "slot": "10",
        "type": "t_bool"
      },
      {
        "astId": 231,
        "contract": "contracts/TheThirdLaw.sol:TheThirdLaw",
        "label": "openGameId",
        "offset": 0,
        "slot": "11",
        "type": "t_uint256"
      },
      {
        "astId": 234,
        "contract": "contracts/TheThirdLaw.sol:TheThirdLaw",
        "label": "insecureSeed",
        "offset": 0,
        "slot": "12",
        "type": "t_uint256"
      },
      {
        "astId": 239,
        "contract": "contracts/TheThirdLaw.sol:TheThirdLaw",
        "label": "players",
        "offset": 0,
        "slot": "13",
        "type": "t_mapping(t_address,t_struct(Player)334_storage)"
      },
      {
        "astId": 243,
        "contract": "contracts/TheThirdLaw.sol:TheThirdLaw",
        "label": "games",
        "offset": 0,
        "slot": "14",
        "type": "t_array(t_struct(Game)311_storage)dyn_storage"
      }
    ],
    "types": {
      "t_address": {
        "encoding": "inplace",
        "label": "address",
        "numberOfBytes": "20"
      },
      "t_array(t_struct(Game)311_storage)dyn_storage": {
        "base": "t_struct(Game)311_storage",
        "encoding": "dynamic_array",
        "label": "struct TheThirdLaw.Game[]",
        "numberOfBytes": "32"
      },
      "t_array(t_struct(Mine)368_storage)dyn_storage": {
        "base": "t_struct(Mine)368_storage",
        "encoding": "dynamic_array",
        "label": "struct TheThirdLaw.Mine[]",
        "numberOfBytes": "32"
      },
      "t_array(t_struct(Torpedo)364_storage)dyn_storage": {
        "base": "t_struct(Torpedo)364_storage",
        "encoding": "dynamic_array",
        "label": "struct TheThirdLaw.Torpedo[]",
        "numberOfBytes": "32"
      },
      "t_array(t_uint256)dyn_storage": {
        "base": "t_uint256",
        "encoding": "dynamic_array",
        "label": "uint256[]",
        "numberOfBytes": "32"
      },
      "t_bool": {
        "encoding": "inplace",
        "label": "bool",
        "numberOfBytes": "1"
      },
      "t_enum(Status)192": {
        "encoding": "inplace",
        "label": "enum Status",
        "numberOfBytes": "1"
      },
      "t_int256": {
        "encoding": "inplace",
        "label": "int256",
        "numberOfBytes": "32"
      },
      "t_mapping(t_address,t_struct(Player)334_storage)": {
        "encoding": "mapping",
        "key": "t_address",
        "label": "mapping(address => struct TheThirdLaw.Player)",
        "numberOfBytes": "32",
        "value": "t_struct(Player)334_storage"
      },
      "t_struct(Game)311_storage": {
        "encoding": "inplace",
        "label": "struct TheThirdLaw.Game",
        "members": [
          {
            "astId": 291,
            "contract": "contracts/TheThirdLaw.sol:TheThirdLaw",
            "label": "id",
            "offset": 0,
            "slot": "0",
            "type": "t_uint256"
          },
          {
            "astId": 293,
            "contract": "contracts/TheThirdLaw.sol:TheThirdLaw",
            "label": "player1Address",
            "offset": 0,
            "slot": "1",
            "type": "t_address"
          },
          {
            "astId": 295,
            "contract": "contracts/TheThirdLaw.sol:TheThirdLaw",
            "label": "player2Address",
            "offset": 0,
            "slot": "2",
            "type": "t_address"
          },
          {
            "astId": 298,
            "contract": "contracts/TheThirdLaw.sol:TheThirdLaw",
            "label": "player1Ship",
            "offset": 0,
            "slot": "3",
            "type": "t_struct(Ship)355_storage"
          },
          {
            "astId": 301,
            "contract": "contracts/TheThirdLaw.sol:TheThirdLaw",
            "label": "player2Ship",
            "offset": 0,
            "slot": "12",
            "type": "t_struct(Ship)355_storage"
          },
          {
            "astId": 304,
            "contract": "contracts/TheThirdLaw.sol:TheThirdLaw",
            "label": "status",
            "offset": 0,
            "slot": "21",
            "type": "t_enum(Status)192"
          },
          {
            "astId": 306,
            "contract": "contracts/TheThirdLaw.sol:TheThirdLaw",
            "label": "value",
            "offset": 0,
            "slot": "22",
            "type": "t_uint256"
          },
          {
            "astId": 308,
            "contract": "contracts/TheThirdLaw.sol:TheThirdLaw",
            "label": "currentPlayer",
            "offset": 0,
            "slot": "23",
            "type": "t_address"
          },
          {
            "astId": 310,
            "contract": "contracts/TheThirdLaw.sol:TheThirdLaw",
            "label": "lastTurnTimestamp",
            "offset": 0,
            "slot": "24",
            "type": "t_uint256"
          }
        ],
        "numberOfBytes": "800"
      },
      "t_struct(Mine)368_storage": {
        "encoding": "inplace",
        "label": "struct TheThirdLaw.Mine",
        "members": [
          {
            "astId": 367,
            "contract": "contracts/TheThirdLaw.sol:TheThirdLaw",
            "label": "position",
            "offset": 0,
            "slot": "0",
            "type": "t_struct(Position)373_storage"
          }
        ],
        "numberOfBytes": "64"
      },
      "t_struct(Player)334_storage": {
        "encoding": "inplace",
        "label": "struct TheThirdLaw.Player",
        "members": [
          {
            "astId": 313,
            "contract": "contracts/TheThirdLaw.sol:TheThirdLaw",
            "label": "ownerAddress",
            "offset": 0,
            "slot": "0",
            "type": "t_address"
          },
          {
            "astId": 316,
            "contract": "contracts/TheThirdLaw.sol:TheThirdLaw",
            "label": "gameIds",
            "offset": 0,
            "slot": "1",
            "type": "t_array(t_uint256)dyn_storage"
          },
          {
            "astId": 319,
            "contract": "contracts/TheThirdLaw.sol:TheThirdLaw",
            "label": "inviteIds",
            "offset": 0,
            "slot": "2",
            "type": "t_array(t_uint256)dyn_storage"
          },
          {
            "astId": 321,
            "contract": "contracts/TheThirdLaw.sol:TheThirdLaw",
            "label": "victories",
            "offset": 0,
            "slot": "3",
            "type": "t_uint256"
          },
          {
            "astId": 323,
            "contract": "contracts/TheThirdLaw.sol:TheThirdLaw",
            "label": "defaultVictories",
            "offset": 0,
            "slot": "4",
            "type": "t_uint256"
          },
          {
            "astId": 325,
            "contract": "contracts/TheThirdLaw.sol:TheThirdLaw",
            "label": "defaultLosses",
            "offset": 0,
            "slot": "5",
            "type": "t_uint256"
          },
          {
            "astId": 327,
            "contract": "contracts/TheThirdLaw.sol:TheThirdLaw",
            "label": "draws",
            "offset": 0,
            "slot": "6",
            "type": "t_uint256"
          },
          {
            "astId": 329,
            "contract": "contracts/TheThirdLaw.sol:TheThirdLaw",
            "label": "losses",
            "offset": 0,
            "slot": "7",
            "type": "t_uint256"
          },
          {
            "astId": 331,
            "contract": "contracts/TheThirdLaw.sol:TheThirdLaw",
            "label": "eloRating",
            "offset": 0,
            "slot": "8",
            "type": "t_uint256"
          },
          {
            "astId": 333,
            "contract": "contracts/TheThirdLaw.sol:TheThirdLaw",
            "label": "currentShipId",
            "offset": 0,
            "slot": "9",
            "type": "t_uint256"
          }
        ],
        "numberOfBytes": "320"
      },
      "t_struct(Position)373_storage": {
        "encoding": "inplace",
        "label": "struct TheThirdLaw.Position",
        "members": [
          {
            "astId": 370,
            "contract": "contracts/TheThirdLaw.sol:TheThirdLaw",
            "label": "row",
            "offset": 0,
            "slot": "0",
            "type": "t_int256"
          },
          {
            "astId": 372,
            "contract": "contracts/TheThirdLaw.sol:TheThirdLaw",
            "label": "col",
            "offset": 0,
            "slot": "1",
            "type": "t_int256"
          }
        ],
        "numberOfBytes": "64"
      },
      "t_struct(Ship)355_storage": {
        "encoding": "inplace",
        "label": "struct TheThirdLaw.Ship",
        "members": [
          {
            "astId": 336,
            "contract": "contracts/TheThirdLaw.sol:TheThirdLaw",
            "label": "ownerAddress",
            "offset": 0,
            "slot": "0",
            "type": "t_address"
          },
          {
            "astId": 339,
            "contract": "contracts/TheThirdLaw.sol:TheThirdLaw",
            "label": "position",
            "offset": 0,
            "slot": "1",
            "type": "t_struct(Position)373_storage"
          },
          {
            "astId": 342,
            "contract": "contracts/TheThirdLaw.sol:TheThirdLaw",
            "label": "velocity",
            "offset": 0,
            "slot": "3",
            "type": "t_struct(Velocity)378_storage"
          },
          {
            "astId": 344,
            "contract": "contracts/TheThirdLaw.sol:TheThirdLaw",
            "label": "remainingTorpedoes",
            "offset": 0,
            "slot": "5",
            "type": "t_uint256"
          },
          {
            "astId": 346,
            "contract": "contracts/TheThirdLaw.sol:TheThirdLaw",
            "label": "remainingMines",
            "offset": 0,
            "slot": "6",
            "type": "t_uint256"
          },
          {
            "astId": 350,
            "contract": "contracts/TheThirdLaw.sol:TheThirdLaw",
            "label": "torpedoes",
            "offset": 0,
            "slot": "7",
            "type": "t_array(t_struct(Torpedo)364_storage)dyn_storage"
          },
          {
            "astId": 354,
            "contract": "contracts/TheThirdLaw.sol:TheThirdLaw",
            "label": "mines",
            "offset": 0,
            "slot": "8",
            "type": "t_array(t_struct(Mine)368_storage)dyn_storage"
          }
        ],
        "numberOfBytes": "288"
      },
      "t_struct(Torpedo)364_storage": {
        "encoding": "inplace",
        "label": "struct TheThirdLaw.Torpedo",
        "members": [
          {
            "astId": 358,
            "contract": "contracts/TheThirdLaw.sol:TheThirdLaw",
            "label": "position",
            "offset": 0,
            "slot": "0",
            "type": "t_struct(Position)373_storage"
          },
          {
            "astId": 361,
            "contract": "contracts/TheThirdLaw.sol:TheThirdLaw",
            "label": "velocity",
            "offset": 0,
            "slot": "2",
            "type": "t_struct(Velocity)378_storage"
          },
          {
            "astId": 363,
            "contract": "contracts/TheThirdLaw.sol:TheThirdLaw",
            "label": "remainingFuel",
            "offset": 0,
            "slot": "4",
            "type": "t_uint256"
          }
        ],
        "numberOfBytes": "160"
      },
      "t_struct(Velocity)378_storage": {
        "encoding": "inplace",
        "label": "struct TheThirdLaw.Velocity",
        "members": [
          {
            "astId": 375,
            "contract": "contracts/TheThirdLaw.sol:TheThirdLaw",
            "label": "row",
            "offset": 0,
            "slot": "0",
            "type": "t_int256"
          },
          {
            "astId": 377,
            "contract": "contracts/TheThirdLaw.sol:TheThirdLaw",
            "label": "col",
            "offset": 0,
            "slot": "1",
            "type": "t_int256"
          }
        ],
        "numberOfBytes": "64"
      },
      "t_uint256": {
        "encoding": "inplace",
        "label": "uint256",
        "numberOfBytes": "32"
      }
    }
  }
}