{
  "address": "0x591aEB4C7790945dCf339E7462705eb087878D8C",
  "abi": [
    {
      "inputs": [],
      "stateMutability": "nonpayable",
      "type": "constructor"
    },
    {
      "inputs": [],
      "name": "AlreadyRegistered",
      "type": "error"
    },
    {
      "inputs": [],
      "name": "ContractPaused",
      "type": "error"
    },
    {
      "inputs": [],
      "name": "GameNotActive",
      "type": "error"
    },
    {
      "inputs": [],
      "name": "NotEnoughFunds",
      "type": "error"
    },
    {
      "inputs": [],
      "name": "NotEnoughMines",
      "type": "error"
    },
    {
      "inputs": [],
      "name": "NotEnoughTimePassed",
      "type": "error"
    },
    {
      "inputs": [],
      "name": "NotEnoughTorpedoes",
      "type": "error"
    },
    {
      "inputs": [],
      "name": "NotFreeEligible",
      "type": "error"
    },
    {
      "inputs": [
        {
          "internalType": "uint256",
          "name": "_gameId",
          "type": "uint256"
        }
      ],
      "name": "NotInvited",
      "type": "error"
    },
    {
      "inputs": [],
      "name": "NotYourGame",
      "type": "error"
    },
    {
      "inputs": [],
      "name": "NotYourTurn",
      "type": "error"
    },
    {
      "inputs": [],
      "name": "YouAreInThisGame",
      "type": "error"
    },
    {
      "anonymous": false,
      "inputs": [
        {
          "indexed": true,
          "internalType": "address",
          "name": "_player1Address",
          "type": "address"
        },
        {
          "indexed": true,
          "internalType": "address",
          "name": "_player2Address",
          "type": "address"
        },
        {
          "indexed": true,
          "internalType": "uint256",
          "name": "_gameId",
          "type": "uint256"
        }
      ],
      "name": "GameOver",
      "type": "event"
    },
    {
      "anonymous": false,
      "inputs": [
        {
          "indexed": true,
          "internalType": "address",
          "name": "_player1Address",
          "type": "address"
        },
        {
          "indexed": true,
          "internalType": "address",
          "name": "_player2Address",
          "type": "address"
        },
        {
          "indexed": true,
          "internalType": "uint256",
          "name": "_gameId",
          "type": "uint256"
        }
      ],
      "name": "GameStarted",
      "type": "event"
    },
    {
      "anonymous": false,
      "inputs": [
        {
          "indexed": true,
          "internalType": "uint256",
          "name": "_gameId",
          "type": "uint256"
        },
        {
          "components": [
            {
              "internalType": "uint256",
              "name": "id",
              "type": "uint256"
            },
            {
              "internalType": "address",
              "name": "player1Address",
              "type": "address"
            },
            {
              "internalType": "address",
              "name": "player2Address",
              "type": "address"
            },
            {
              "components": [
                {
                  "internalType": "address",
                  "name": "ownerAddress",
                  "type": "address"
                },
                {
                  "components": [
                    {
                      "internalType": "int256",
                      "name": "row",
                      "type": "int256"
                    },
                    {
                      "internalType": "int256",
                      "name": "col",
                      "type": "int256"
                    }
                  ],
                  "internalType": "struct TheThirdLaw.Position",
                  "name": "position",
                  "type": "tuple"
                },
                {
                  "components": [
                    {
                      "internalType": "int256",
                      "name": "row",
                      "type": "int256"
                    },
                    {
                      "internalType": "int256",
                      "name": "col",
                      "type": "int256"
                    }
                  ],
                  "internalType": "struct TheThirdLaw.Velocity",
                  "name": "velocity",
                  "type": "tuple"
                },
                {
                  "internalType": "uint256",
                  "name": "remainingTorpedoes",
                  "type": "uint256"
                },
                {
                  "internalType": "uint256",
                  "name": "remainingMines",
                  "type": "uint256"
                },
                {
                  "components": [
                    {
                      "components": [
                        {
                          "internalType": "int256",
                          "name": "row",
                          "type": "int256"
                        },
                        {
                          "internalType": "int256",
                          "name": "col",
                          "type": "int256"
                        }
                      ],
                      "internalType": "struct TheThirdLaw.Position",
                      "name": "position",
                      "type": "tuple"
                    },
                    {
                      "components": [
                        {
                          "internalType": "int256",
                          "name": "row",
                          "type": "int256"
                        },
                        {
                          "internalType": "int256",
                          "name": "col",
                          "type": "int256"
                        }
                      ],
                      "internalType": "struct TheThirdLaw.Velocity",
                      "name": "velocity",
                      "type": "tuple"
                    },
                    {
                      "internalType": "uint256",
                      "name": "remainingFuel",
                      "type": "uint256"
                    }
                  ],
                  "internalType": "struct TheThirdLaw.Torpedo[]",
                  "name": "torpedoes",
                  "type": "tuple[]"
                },
                {
                  "components": [
                    {
                      "components": [
                        {
                          "internalType": "int256",
                          "name": "row",
                          "type": "int256"
                        },
                        {
                          "internalType": "int256",
                          "name": "col",
                          "type": "int256"
                        }
                      ],
                      "internalType": "struct TheThirdLaw.Position",
                      "name": "position",
                      "type": "tuple"
                    }
                  ],
                  "internalType": "struct TheThirdLaw.Mine[]",
                  "name": "mines",
                  "type": "tuple[]"
                }
              ],
              "internalType": "struct TheThirdLaw.Ship",
              "name": "player1Ship",
              "type": "tuple"
            },
            {
              "components": [
                {
                  "internalType": "address",
                  "name": "ownerAddress",
                  "type": "address"
                },
                {
                  "components": [
                    {
                      "internalType": "int256",
                      "name": "row",
                      "type": "int256"
                    },
                    {
                      "internalType": "int256",
                      "name": "col",
                      "type": "int256"
                    }
                  ],
                  "internalType": "struct TheThirdLaw.Position",
                  "name": "position",
                  "type": "tuple"
                },
                {
                  "components": [
                    {
                      "internalType": "int256",
                      "name": "row",
                      "type": "int256"
                    },
                    {
                      "internalType": "int256",
                      "name": "col",
                      "type": "int256"
                    }
                  ],
                  "internalType": "struct TheThirdLaw.Velocity",
                  "name": "velocity",
                  "type": "tuple"
                },
                {
                  "internalType": "uint256",
                  "name": "remainingTorpedoes",
                  "type": "uint256"
                },
                {
                  "internalType": "uint256",
                  "name": "remainingMines",
                  "type": "uint256"
                },
                {
                  "components": [
                    {
                      "components": [
                        {
                          "internalType": "int256",
                          "name": "row",
                          "type": "int256"
                        },
                        {
                          "internalType": "int256",
                          "name": "col",
                          "type": "int256"
                        }
                      ],
                      "internalType": "struct TheThirdLaw.Position",
                      "name": "position",
                      "type": "tuple"
                    },
                    {
                      "components": [
                        {
                          "internalType": "int256",
                          "name": "row",
                          "type": "int256"
                        },
                        {
                          "internalType": "int256",
                          "name": "col",
                          "type": "int256"
                        }
                      ],
                      "internalType": "struct TheThirdLaw.Velocity",
                      "name": "velocity",
                      "type": "tuple"
                    },
                    {
                      "internalType": "uint256",
                      "name": "remainingFuel",
                      "type": "uint256"
                    }
                  ],
                  "internalType": "struct TheThirdLaw.Torpedo[]",
                  "name": "torpedoes",
                  "type": "tuple[]"
                },
                {
                  "components": [
                    {
                      "components": [
                        {
                          "internalType": "int256",
                          "name": "row",
                          "type": "int256"
                        },
                        {
                          "internalType": "int256",
                          "name": "col",
                          "type": "int256"
                        }
                      ],
                      "internalType": "struct TheThirdLaw.Position",
                      "name": "position",
                      "type": "tuple"
                    }
                  ],
                  "internalType": "struct TheThirdLaw.Mine[]",
                  "name": "mines",
                  "type": "tuple[]"
                }
              ],
              "internalType": "struct TheThirdLaw.Ship",
              "name": "player2Ship",
              "type": "tuple"
            },
            {
              "internalType": "enum Status",
              "name": "status",
              "type": "uint8"
            },
            {
              "internalType": "uint256",
              "name": "value",
              "type": "uint256"
            },
            {
              "internalType": "address",
              "name": "currentPlayer",
              "type": "address"
            },
            {
              "internalType": "uint256",
              "name": "lastTurnTimestamp",
              "type": "uint256"
            },
            {
              "internalType": "uint256",
              "name": "round",
              "type": "uint256"
            },
            {
              "internalType": "uint256[]",
              "name": "logBlocks",
              "type": "uint256[]"
            },
            {
              "internalType": "bool",
              "name": "free",
              "type": "bool"
            }
          ],
          "indexed": false,
          "internalType": "struct TheThirdLaw.Game",
          "name": "_game",
          "type": "tuple"
        }
      ],
      "name": "GameState",
      "type": "event"
    },
    {
      "anonymous": false,
      "inputs": [
        {
          "indexed": true,
          "internalType": "address",
          "name": "_player1Address",
          "type": "address"
        },
        {
          "indexed": true,
          "internalType": "address",
          "name": "_player2Address",
          "type": "address"
        },
        {
          "indexed": true,
          "internalType": "uint256",
          "name": "_gameId",
          "type": "uint256"
        }
      ],
      "name": "InviteToGame",
      "type": "event"
    },
    {
      "anonymous": false,
      "inputs": [
        {
          "indexed": true,
          "internalType": "address",
          "name": "_player1Address",
          "type": "address"
        },
        {
          "indexed": true,
          "internalType": "address",
          "name": "_player2Address",
          "type": "address"
        },
        {
          "indexed": true,
          "internalType": "uint256",
          "name": "_gameId",
          "type": "uint256"
        }
      ],
      "name": "JoinGame",
      "type": "event"
    },
    {
      "anonymous": false,
      "inputs": [
        {
          "indexed": true,
          "internalType": "address",
          "name": "_player1Address",
          "type": "address"
        },
        {
          "indexed": true,
          "internalType": "uint256",
          "name": "_gameId",
          "type": "uint256"
        }
      ],
      "name": "OpenGameCreated",
      "type": "event"
    },
    {
      "anonymous": false,
      "inputs": [
        {
          "indexed": true,
          "internalType": "address",
          "name": "_player1Address",
          "type": "address"
        },
        {
          "indexed": true,
          "internalType": "address",
          "name": "_player2Address",
          "type": "address"
        },
        {
          "indexed": true,
          "internalType": "uint256",
          "name": "_gameId",
          "type": "uint256"
        }
      ],
      "name": "OpenGameJoined",
      "type": "event"
    },
    {
      "anonymous": false,
      "inputs": [
        {
          "indexed": true,
          "internalType": "address",
          "name": "previousOwner",
          "type": "address"
        },
        {
          "indexed": true,
          "internalType": "address",
          "name": "newOwner",
          "type": "address"
        }
      ],
      "name": "OwnershipTransferred",
      "type": "event"
    },
    {
      "anonymous": false,
      "inputs": [
        {
          "indexed": true,
          "internalType": "address",
          "name": "_playerAddress",
          "type": "address"
        },
        {
          "indexed": true,
          "internalType": "uint256",
          "name": "_gameId",
          "type": "uint256"
        },
        {
          "indexed": false,
          "internalType": "enum LeftOrRight",
          "name": "_leftOrRight",
          "type": "uint8"
        },
        {
          "indexed": false,
          "internalType": "enum UpOrDown",
          "name": "_upOrDown",
          "type": "uint8"
        },
        {
          "indexed": false,
          "internalType": "enum Action",
          "name": "_action",
          "type": "uint8"
        }
      ],
      "name": "PlayerInput",
      "type": "event"
    },
    {
      "inputs": [
        {
          "internalType": "uint256",
          "name": "_gameId",
          "type": "uint256"
        }
      ],
      "name": "acceptFreeInvite",
      "outputs": [],
      "stateMutability": "nonpayable",
      "type": "function"
    },
    {
      "inputs": [
        {
          "internalType": "uint256",
          "name": "_gameId",
          "type": "uint256"
        }
      ],
      "name": "acceptInvite",
      "outputs": [],
      "stateMutability": "payable",
      "type": "function"
    },
    {
      "inputs": [],
      "name": "active",
      "outputs": [
        {
          "internalType": "bool",
          "name": "",
          "type": "bool"
        }
      ],
      "stateMutability": "view",
      "type": "function"
    },
    {
      "inputs": [
        {
          "internalType": "int256",
          "name": "_ratingA",
          "type": "int256"
        },
        {
          "internalType": "int256",
          "name": "_ratingB",
          "type": "int256"
        },
        {
          "internalType": "enum Status",
          "name": "_result",
          "type": "uint8"
        }
      ],
      "name": "calculateElo",
      "outputs": [
        {
          "internalType": "uint256",
          "name": "",
          "type": "uint256"
        },
        {
          "internalType": "uint256",
          "name": "",
          "type": "uint256"
        }
      ],
      "stateMutability": "pure",
      "type": "function"
    },
    {
      "inputs": [],
      "name": "createOrJoinRandomGame",
      "outputs": [],
      "stateMutability": "payable",
      "type": "function"
    },
    {
      "inputs": [
        {
          "internalType": "uint256",
          "name": "_gameId",
          "type": "uint256"
        }
      ],
      "name": "endGame",
      "outputs": [],
      "stateMutability": "nonpayable",
      "type": "function"
    },
    {
      "inputs": [],
      "name": "feeBalance",
      "outputs": [
        {
          "internalType": "uint256",
          "name": "",
          "type": "uint256"
        }
      ],
      "stateMutability": "view",
      "type": "function"
    },
    {
      "inputs": [],
      "name": "feePercent",
      "outputs": [
        {
          "internalType": "uint256",
          "name": "",
          "type": "uint256"
        }
      ],
      "stateMutability": "view",
      "type": "function"
    },
    {
      "inputs": [
        {
          "internalType": "uint256",
          "name": "_gameId",
          "type": "uint256"
        }
      ],
      "name": "forceMove",
      "outputs": [],
      "stateMutability": "nonpayable",
      "type": "function"
    },
    {
      "inputs": [],
      "name": "gameCost",
      "outputs": [
        {
          "internalType": "uint256",
          "name": "",
          "type": "uint256"
        }
      ],
      "stateMutability": "view",
      "type": "function"
    },
    {
      "inputs": [
        {
          "internalType": "uint256",
          "name": "",
          "type": "uint256"
        }
      ],
      "name": "games",
      "outputs": [
        {
          "internalType": "uint256",
          "name": "id",
          "type": "uint256"
        },
        {
          "internalType": "address",
          "name": "player1Address",
          "type": "address"
        },
        {
          "internalType": "address",
          "name": "player2Address",
          "type": "address"
        },
        {
          "components": [
            {
              "internalType": "address",
              "name": "ownerAddress",
              "type": "address"
            },
            {
              "components": [
                {
                  "internalType": "int256",
                  "name": "row",
                  "type": "int256"
                },
                {
                  "internalType": "int256",
                  "name": "col",
                  "type": "int256"
                }
              ],
              "internalType": "struct TheThirdLaw.Position",
              "name": "position",
              "type": "tuple"
            },
            {
              "components": [
                {
                  "internalType": "int256",
                  "name": "row",
                  "type": "int256"
                },
                {
                  "internalType": "int256",
                  "name": "col",
                  "type": "int256"
                }
              ],
              "internalType": "struct TheThirdLaw.Velocity",
              "name": "velocity",
              "type": "tuple"
            },
            {
              "internalType": "uint256",
              "name": "remainingTorpedoes",
              "type": "uint256"
            },
            {
              "internalType": "uint256",
              "name": "remainingMines",
              "type": "uint256"
            },
            {
              "components": [
                {
                  "components": [
                    {
                      "internalType": "int256",
                      "name": "row",
                      "type": "int256"
                    },
                    {
                      "internalType": "int256",
                      "name": "col",
                      "type": "int256"
                    }
                  ],
                  "internalType": "struct TheThirdLaw.Position",
                  "name": "position",
                  "type": "tuple"
                },
                {
                  "components": [
                    {
                      "internalType": "int256",
                      "name": "row",
                      "type": "int256"
                    },
                    {
                      "internalType": "int256",
                      "name": "col",
                      "type": "int256"
                    }
                  ],
                  "internalType": "struct TheThirdLaw.Velocity",
                  "name": "velocity",
                  "type": "tuple"
                },
                {
                  "internalType": "uint256",
                  "name": "remainingFuel",
                  "type": "uint256"
                }
              ],
              "internalType": "struct TheThirdLaw.Torpedo[]",
              "name": "torpedoes",
              "type": "tuple[]"
            },
            {
              "components": [
                {
                  "components": [
                    {
                      "internalType": "int256",
                      "name": "row",
                      "type": "int256"
                    },
                    {
                      "internalType": "int256",
                      "name": "col",
                      "type": "int256"
                    }
                  ],
                  "internalType": "struct TheThirdLaw.Position",
                  "name": "position",
                  "type": "tuple"
                }
              ],
              "internalType": "struct TheThirdLaw.Mine[]",
              "name": "mines",
              "type": "tuple[]"
            }
          ],
          "internalType": "struct TheThirdLaw.Ship",
          "name": "player1Ship",
          "type": "tuple"
        },
        {
          "components": [
            {
              "internalType": "address",
              "name": "ownerAddress",
              "type": "address"
            },
            {
              "components": [
                {
                  "internalType": "int256",
                  "name": "row",
                  "type": "int256"
                },
                {
                  "internalType": "int256",
                  "name": "col",
                  "type": "int256"
                }
              ],
              "internalType": "struct TheThirdLaw.Position",
              "name": "position",
              "type": "tuple"
            },
            {
              "components": [
                {
                  "internalType": "int256",
                  "name": "row",
                  "type": "int256"
                },
                {
                  "internalType": "int256",
                  "name": "col",
                  "type": "int256"
                }
              ],
              "internalType": "struct TheThirdLaw.Velocity",
              "name": "velocity",
              "type": "tuple"
            },
            {
              "internalType": "uint256",
              "name": "remainingTorpedoes",
              "type": "uint256"
            },
            {
              "internalType": "uint256",
              "name": "remainingMines",
              "type": "uint256"
            },
            {
              "components": [
                {
                  "components": [
                    {
                      "internalType": "int256",
                      "name": "row",
                      "type": "int256"
                    },
                    {
                      "internalType": "int256",
                      "name": "col",
                      "type": "int256"
                    }
                  ],
                  "internalType": "struct TheThirdLaw.Position",
                  "name": "position",
                  "type": "tuple"
                },
                {
                  "components": [
                    {
                      "internalType": "int256",
                      "name": "row",
                      "type": "int256"
                    },
                    {
                      "internalType": "int256",
                      "name": "col",
                      "type": "int256"
                    }
                  ],
                  "internalType": "struct TheThirdLaw.Velocity",
                  "name": "velocity",
                  "type": "tuple"
                },
                {
                  "internalType": "uint256",
                  "name": "remainingFuel",
                  "type": "uint256"
                }
              ],
              "internalType": "struct TheThirdLaw.Torpedo[]",
              "name": "torpedoes",
              "type": "tuple[]"
            },
            {
              "components": [
                {
                  "components": [
                    {
                      "internalType": "int256",
                      "name": "row",
                      "type": "int256"
                    },
                    {
                      "internalType": "int256",
                      "name": "col",
                      "type": "int256"
                    }
                  ],
                  "internalType": "struct TheThirdLaw.Position",
                  "name": "position",
                  "type": "tuple"
                }
              ],
              "internalType": "struct TheThirdLaw.Mine[]",
              "name": "mines",
              "type": "tuple[]"
            }
          ],
          "internalType": "struct TheThirdLaw.Ship",
          "name": "player2Ship",
          "type": "tuple"
        },
        {
          "internalType": "enum Status",
          "name": "status",
          "type": "uint8"
        },
        {
          "internalType": "uint256",
          "name": "value",
          "type": "uint256"
        },
        {
          "internalType": "address",
          "name": "currentPlayer",
          "type": "address"
        },
        {
          "internalType": "uint256",
          "name": "lastTurnTimestamp",
          "type": "uint256"
        },
        {
          "internalType": "uint256",
          "name": "round",
          "type": "uint256"
        },
        {
          "internalType": "bool",
          "name": "free",
          "type": "bool"
        }
      ],
      "stateMutability": "view",
      "type": "function"
    },
    {
      "inputs": [],
      "name": "getAllELO",
      "outputs": [
        {
          "components": [
            {
              "internalType": "address",
              "name": "playerAddress",
              "type": "address"
            },
            {
              "internalType": "uint256",
              "name": "eloRating",
              "type": "uint256"
            }
          ],
          "internalType": "struct TheThirdLaw.PlayerELO[]",
          "name": "",
          "type": "tuple[]"
        }
      ],
      "stateMutability": "view",
      "type": "function"
    },
    {
      "inputs": [
        {
          "internalType": "uint256",
          "name": "_gameId",
          "type": "uint256"
        }
      ],
      "name": "getGame",
      "outputs": [
        {
          "components": [
            {
              "internalType": "uint256",
              "name": "id",
              "type": "uint256"
            },
            {
              "internalType": "address",
              "name": "player1Address",
              "type": "address"
            },
            {
              "internalType": "address",
              "name": "player2Address",
              "type": "address"
            },
            {
              "components": [
                {
                  "internalType": "address",
                  "name": "ownerAddress",
                  "type": "address"
                },
                {
                  "components": [
                    {
                      "internalType": "int256",
                      "name": "row",
                      "type": "int256"
                    },
                    {
                      "internalType": "int256",
                      "name": "col",
                      "type": "int256"
                    }
                  ],
                  "internalType": "struct TheThirdLaw.Position",
                  "name": "position",
                  "type": "tuple"
                },
                {
                  "components": [
                    {
                      "internalType": "int256",
                      "name": "row",
                      "type": "int256"
                    },
                    {
                      "internalType": "int256",
                      "name": "col",
                      "type": "int256"
                    }
                  ],
                  "internalType": "struct TheThirdLaw.Velocity",
                  "name": "velocity",
                  "type": "tuple"
                },
                {
                  "internalType": "uint256",
                  "name": "remainingTorpedoes",
                  "type": "uint256"
                },
                {
                  "internalType": "uint256",
                  "name": "remainingMines",
                  "type": "uint256"
                },
                {
                  "components": [
                    {
                      "components": [
                        {
                          "internalType": "int256",
                          "name": "row",
                          "type": "int256"
                        },
                        {
                          "internalType": "int256",
                          "name": "col",
                          "type": "int256"
                        }
                      ],
                      "internalType": "struct TheThirdLaw.Position",
                      "name": "position",
                      "type": "tuple"
                    },
                    {
                      "components": [
                        {
                          "internalType": "int256",
                          "name": "row",
                          "type": "int256"
                        },
                        {
                          "internalType": "int256",
                          "name": "col",
                          "type": "int256"
                        }
                      ],
                      "internalType": "struct TheThirdLaw.Velocity",
                      "name": "velocity",
                      "type": "tuple"
                    },
                    {
                      "internalType": "uint256",
                      "name": "remainingFuel",
                      "type": "uint256"
                    }
                  ],
                  "internalType": "struct TheThirdLaw.Torpedo[]",
                  "name": "torpedoes",
                  "type": "tuple[]"
                },
                {
                  "components": [
                    {
                      "components": [
                        {
                          "internalType": "int256",
                          "name": "row",
                          "type": "int256"
                        },
                        {
                          "internalType": "int256",
                          "name": "col",
                          "type": "int256"
                        }
                      ],
                      "internalType": "struct TheThirdLaw.Position",
                      "name": "position",
                      "type": "tuple"
                    }
                  ],
                  "internalType": "struct TheThirdLaw.Mine[]",
                  "name": "mines",
                  "type": "tuple[]"
                }
              ],
              "internalType": "struct TheThirdLaw.Ship",
              "name": "player1Ship",
              "type": "tuple"
            },
            {
              "components": [
                {
                  "internalType": "address",
                  "name": "ownerAddress",
                  "type": "address"
                },
                {
                  "components": [
                    {
                      "internalType": "int256",
                      "name": "row",
                      "type": "int256"
                    },
                    {
                      "internalType": "int256",
                      "name": "col",
                      "type": "int256"
                    }
                  ],
                  "internalType": "struct TheThirdLaw.Position",
                  "name": "position",
                  "type": "tuple"
                },
                {
                  "components": [
                    {
                      "internalType": "int256",
                      "name": "row",
                      "type": "int256"
                    },
                    {
                      "internalType": "int256",
                      "name": "col",
                      "type": "int256"
                    }
                  ],
                  "internalType": "struct TheThirdLaw.Velocity",
                  "name": "velocity",
                  "type": "tuple"
                },
                {
                  "internalType": "uint256",
                  "name": "remainingTorpedoes",
                  "type": "uint256"
                },
                {
                  "internalType": "uint256",
                  "name": "remainingMines",
                  "type": "uint256"
                },
                {
                  "components": [
                    {
                      "components": [
                        {
                          "internalType": "int256",
                          "name": "row",
                          "type": "int256"
                        },
                        {
                          "internalType": "int256",
                          "name": "col",
                          "type": "int256"
                        }
                      ],
                      "internalType": "struct TheThirdLaw.Position",
                      "name": "position",
                      "type": "tuple"
                    },
                    {
                      "components": [
                        {
                          "internalType": "int256",
                          "name": "row",
                          "type": "int256"
                        },
                        {
                          "internalType": "int256",
                          "name": "col",
                          "type": "int256"
                        }
                      ],
                      "internalType": "struct TheThirdLaw.Velocity",
                      "name": "velocity",
                      "type": "tuple"
                    },
                    {
                      "internalType": "uint256",
                      "name": "remainingFuel",
                      "type": "uint256"
                    }
                  ],
                  "internalType": "struct TheThirdLaw.Torpedo[]",
                  "name": "torpedoes",
                  "type": "tuple[]"
                },
                {
                  "components": [
                    {
                      "components": [
                        {
                          "internalType": "int256",
                          "name": "row",
                          "type": "int256"
                        },
                        {
                          "internalType": "int256",
                          "name": "col",
                          "type": "int256"
                        }
                      ],
                      "internalType": "struct TheThirdLaw.Position",
                      "name": "position",
                      "type": "tuple"
                    }
                  ],
                  "internalType": "struct TheThirdLaw.Mine[]",
                  "name": "mines",
                  "type": "tuple[]"
                }
              ],
              "internalType": "struct TheThirdLaw.Ship",
              "name": "player2Ship",
              "type": "tuple"
            },
            {
              "internalType": "enum Status",
              "name": "status",
              "type": "uint8"
            },
            {
              "internalType": "uint256",
              "name": "value",
              "type": "uint256"
            },
            {
              "internalType": "address",
              "name": "currentPlayer",
              "type": "address"
            },
            {
              "internalType": "uint256",
              "name": "lastTurnTimestamp",
              "type": "uint256"
            },
            {
              "internalType": "uint256",
              "name": "round",
              "type": "uint256"
            },
            {
              "internalType": "uint256[]",
              "name": "logBlocks",
              "type": "uint256[]"
            },
            {
              "internalType": "bool",
              "name": "free",
              "type": "bool"
            }
          ],
          "internalType": "struct TheThirdLaw.Game",
          "name": "",
          "type": "tuple"
        }
      ],
      "stateMutability": "view",
      "type": "function"
    },
    {
      "inputs": [
        {
          "internalType": "address",
          "name": "_playerAddress",
          "type": "address"
        }
      ],
      "name": "getGamesForPlayer",
      "outputs": [
        {
          "components": [
            {
              "internalType": "uint256",
              "name": "id",
              "type": "uint256"
            },
            {
              "internalType": "address",
              "name": "player1Address",
              "type": "address"
            },
            {
              "internalType": "address",
              "name": "player2Address",
              "type": "address"
            },
            {
              "components": [
                {
                  "internalType": "address",
                  "name": "ownerAddress",
                  "type": "address"
                },
                {
                  "components": [
                    {
                      "internalType": "int256",
                      "name": "row",
                      "type": "int256"
                    },
                    {
                      "internalType": "int256",
                      "name": "col",
                      "type": "int256"
                    }
                  ],
                  "internalType": "struct TheThirdLaw.Position",
                  "name": "position",
                  "type": "tuple"
                },
                {
                  "components": [
                    {
                      "internalType": "int256",
                      "name": "row",
                      "type": "int256"
                    },
                    {
                      "internalType": "int256",
                      "name": "col",
                      "type": "int256"
                    }
                  ],
                  "internalType": "struct TheThirdLaw.Velocity",
                  "name": "velocity",
                  "type": "tuple"
                },
                {
                  "internalType": "uint256",
                  "name": "remainingTorpedoes",
                  "type": "uint256"
                },
                {
                  "internalType": "uint256",
                  "name": "remainingMines",
                  "type": "uint256"
                },
                {
                  "components": [
                    {
                      "components": [
                        {
                          "internalType": "int256",
                          "name": "row",
                          "type": "int256"
                        },
                        {
                          "internalType": "int256",
                          "name": "col",
                          "type": "int256"
                        }
                      ],
                      "internalType": "struct TheThirdLaw.Position",
                      "name": "position",
                      "type": "tuple"
                    },
                    {
                      "components": [
                        {
                          "internalType": "int256",
                          "name": "row",
                          "type": "int256"
                        },
                        {
                          "internalType": "int256",
                          "name": "col",
                          "type": "int256"
                        }
                      ],
                      "internalType": "struct TheThirdLaw.Velocity",
                      "name": "velocity",
                      "type": "tuple"
                    },
                    {
                      "internalType": "uint256",
                      "name": "remainingFuel",
                      "type": "uint256"
                    }
                  ],
                  "internalType": "struct TheThirdLaw.Torpedo[]",
                  "name": "torpedoes",
                  "type": "tuple[]"
                },
                {
                  "components": [
                    {
                      "components": [
                        {
                          "internalType": "int256",
                          "name": "row",
                          "type": "int256"
                        },
                        {
                          "internalType": "int256",
                          "name": "col",
                          "type": "int256"
                        }
                      ],
                      "internalType": "struct TheThirdLaw.Position",
                      "name": "position",
                      "type": "tuple"
                    }
                  ],
                  "internalType": "struct TheThirdLaw.Mine[]",
                  "name": "mines",
                  "type": "tuple[]"
                }
              ],
              "internalType": "struct TheThirdLaw.Ship",
              "name": "player1Ship",
              "type": "tuple"
            },
            {
              "components": [
                {
                  "internalType": "address",
                  "name": "ownerAddress",
                  "type": "address"
                },
                {
                  "components": [
                    {
                      "internalType": "int256",
                      "name": "row",
                      "type": "int256"
                    },
                    {
                      "internalType": "int256",
                      "name": "col",
                      "type": "int256"
                    }
                  ],
                  "internalType": "struct TheThirdLaw.Position",
                  "name": "position",
                  "type": "tuple"
                },
                {
                  "components": [
                    {
                      "internalType": "int256",
                      "name": "row",
                      "type": "int256"
                    },
                    {
                      "internalType": "int256",
                      "name": "col",
                      "type": "int256"
                    }
                  ],
                  "internalType": "struct TheThirdLaw.Velocity",
                  "name": "velocity",
                  "type": "tuple"
                },
                {
                  "internalType": "uint256",
                  "name": "remainingTorpedoes",
                  "type": "uint256"
                },
                {
                  "internalType": "uint256",
                  "name": "remainingMines",
                  "type": "uint256"
                },
                {
                  "components": [
                    {
                      "components": [
                        {
                          "internalType": "int256",
                          "name": "row",
                          "type": "int256"
                        },
                        {
                          "internalType": "int256",
                          "name": "col",
                          "type": "int256"
                        }
                      ],
                      "internalType": "struct TheThirdLaw.Position",
                      "name": "position",
                      "type": "tuple"
                    },
                    {
                      "components": [
                        {
                          "internalType": "int256",
                          "name": "row",
                          "type": "int256"
                        },
                        {
                          "internalType": "int256",
                          "name": "col",
                          "type": "int256"
                        }
                      ],
                      "internalType": "struct TheThirdLaw.Velocity",
                      "name": "velocity",
                      "type": "tuple"
                    },
                    {
                      "internalType": "uint256",
                      "name": "remainingFuel",
                      "type": "uint256"
                    }
                  ],
                  "internalType": "struct TheThirdLaw.Torpedo[]",
                  "name": "torpedoes",
                  "type": "tuple[]"
                },
                {
                  "components": [
                    {
                      "components": [
                        {
                          "internalType": "int256",
                          "name": "row",
                          "type": "int256"
                        },
                        {
                          "internalType": "int256",
                          "name": "col",
                          "type": "int256"
                        }
                      ],
                      "internalType": "struct TheThirdLaw.Position",
                      "name": "position",
                      "type": "tuple"
                    }
                  ],
                  "internalType": "struct TheThirdLaw.Mine[]",
                  "name": "mines",
                  "type": "tuple[]"
                }
              ],
              "internalType": "struct TheThirdLaw.Ship",
              "name": "player2Ship",
              "type": "tuple"
            },
            {
              "internalType": "enum Status",
              "name": "status",
              "type": "uint8"
            },
            {
              "internalType": "uint256",
              "name": "value",
              "type": "uint256"
            },
            {
              "internalType": "address",
              "name": "currentPlayer",
              "type": "address"
            },
            {
              "internalType": "uint256",
              "name": "lastTurnTimestamp",
              "type": "uint256"
            },
            {
              "internalType": "uint256",
              "name": "round",
              "type": "uint256"
            },
            {
              "internalType": "uint256[]",
              "name": "logBlocks",
              "type": "uint256[]"
            },
            {
              "internalType": "bool",
              "name": "free",
              "type": "bool"
            }
          ],
          "internalType": "struct TheThirdLaw.Game[]",
          "name": "",
          "type": "tuple[]"
        }
      ],
      "stateMutability": "view",
      "type": "function"
    },
    {
      "inputs": [
        {
          "internalType": "address",
          "name": "_playerAddress",
          "type": "address"
        }
      ],
      "name": "getPlayer",
      "outputs": [
        {
          "components": [
            {
              "internalType": "address",
              "name": "ownerAddress",
              "type": "address"
            },
            {
              "internalType": "uint256[]",
              "name": "gameIds",
              "type": "uint256[]"
            },
            {
              "internalType": "uint256[]",
              "name": "inviteIds",
              "type": "uint256[]"
            },
            {
              "internalType": "uint256",
              "name": "victories",
              "type": "uint256"
            },
            {
              "internalType": "uint256",
              "name": "defaultVictories",
              "type": "uint256"
            },
            {
              "internalType": "uint256",
              "name": "defaultLosses",
              "type": "uint256"
            },
            {
              "internalType": "uint256",
              "name": "draws",
              "type": "uint256"
            },
            {
              "internalType": "uint256",
              "name": "losses",
              "type": "uint256"
            },
            {
              "internalType": "uint256",
              "name": "eloRating",
              "type": "uint256"
            },
            {
              "internalType": "uint256",
              "name": "currentShipId",
              "type": "uint256"
            },
            {
              "internalType": "uint256",
              "name": "gamesStarted",
              "type": "uint256"
            }
          ],
          "internalType": "struct TheThirdLaw.Player",
          "name": "",
          "type": "tuple"
        }
      ],
      "stateMutability": "view",
      "type": "function"
    },
    {
      "inputs": [
        {
          "internalType": "address",
          "name": "_player2Address",
          "type": "address"
        }
      ],
      "name": "inviteToFreeGame",
      "outputs": [],
      "stateMutability": "nonpayable",
      "type": "function"
    },
    {
      "inputs": [
        {
          "internalType": "address",
          "name": "_player2Address",
          "type": "address"
        }
      ],
      "name": "inviteToGame",
      "outputs": [],
      "stateMutability": "payable",
      "type": "function"
    },
    {
      "inputs": [],
      "name": "maxMines",
      "outputs": [
        {
          "internalType": "uint256",
          "name": "",
          "type": "uint256"
        }
      ],
      "stateMutability": "view",
      "type": "function"
    },
    {
      "inputs": [],
      "name": "maxTorpedoes",
      "outputs": [
        {
          "internalType": "uint256",
          "name": "",
          "type": "uint256"
        }
      ],
      "stateMutability": "view",
      "type": "function"
    },
    {
      "inputs": [],
      "name": "mineRange",
      "outputs": [
        {
          "internalType": "uint256",
          "name": "",
          "type": "uint256"
        }
      ],
      "stateMutability": "view",
      "type": "function"
    },
    {
      "inputs": [],
      "name": "owner",
      "outputs": [
        {
          "internalType": "address",
          "name": "",
          "type": "address"
        }
      ],
      "stateMutability": "view",
      "type": "function"
    },
    {
      "inputs": [],
      "name": "pause",
      "outputs": [],
      "stateMutability": "nonpayable",
      "type": "function"
    },
    {
      "inputs": [
        {
          "internalType": "address",
          "name": "",
          "type": "address"
        }
      ],
      "name": "players",
      "outputs": [
        {
          "internalType": "address",
          "name": "ownerAddress",
          "type": "address"
        },
        {
          "internalType": "uint256",
          "name": "victories",
          "type": "uint256"
        },
        {
          "internalType": "uint256",
          "name": "defaultVictories",
          "type": "uint256"
        },
        {
          "internalType": "uint256",
          "name": "defaultLosses",
          "type": "uint256"
        },
        {
          "internalType": "uint256",
          "name": "draws",
          "type": "uint256"
        },
        {
          "internalType": "uint256",
          "name": "losses",
          "type": "uint256"
        },
        {
          "internalType": "uint256",
          "name": "eloRating",
          "type": "uint256"
        },
        {
          "internalType": "uint256",
          "name": "currentShipId",
          "type": "uint256"
        },
        {
          "internalType": "uint256",
          "name": "gamesStarted",
          "type": "uint256"
        }
      ],
      "stateMutability": "view",
      "type": "function"
    },
    {
      "inputs": [
        {
          "internalType": "uint256",
          "name": "_gameId",
          "type": "uint256"
        }
      ],
      "name": "rejectInvite",
      "outputs": [],
      "stateMutability": "nonpayable",
      "type": "function"
    },
    {
      "inputs": [],
      "name": "renounceOwnership",
      "outputs": [],
      "stateMutability": "nonpayable",
      "type": "function"
    },
    {
      "inputs": [
        {
          "internalType": "uint256",
          "name": "_feePercent",
          "type": "uint256"
        }
      ],
      "name": "setFeePercent",
      "outputs": [],
      "stateMutability": "nonpayable",
      "type": "function"
    },
    {
      "inputs": [
        {
          "internalType": "uint256",
          "name": "_gameCost",
          "type": "uint256"
        }
      ],
      "name": "setGameCost",
      "outputs": [],
      "stateMutability": "nonpayable",
      "type": "function"
    },
    {
      "inputs": [
        {
          "internalType": "uint256",
          "name": "_mineRange",
          "type": "uint256"
        }
      ],
      "name": "setMineRange",
      "outputs": [],
      "stateMutability": "nonpayable",
      "type": "function"
    },
    {
      "inputs": [
        {
          "internalType": "uint256",
          "name": "_maxMines",
          "type": "uint256"
        }
      ],
      "name": "setNumberMines",
      "outputs": [],
      "stateMutability": "nonpayable",
      "type": "function"
    },
    {
      "inputs": [
        {
          "internalType": "uint256",
          "name": "_maxTorpedoes",
          "type": "uint256"
        }
      ],
      "name": "setNumberTorpedoes",
      "outputs": [],
      "stateMutability": "nonpayable",
      "type": "function"
    },
    {
      "inputs": [
        {
          "internalType": "int256",
          "name": "_torpedoAccel",
          "type": "int256"
        }
      ],
      "name": "setTorpedoAccel",
      "outputs": [],
      "stateMutability": "nonpayable",
      "type": "function"
    },
    {
      "inputs": [
        {
          "internalType": "uint256",
          "name": "_torpedoFuel",
          "type": "uint256"
        }
      ],
      "name": "setTorpedoFuel",
      "outputs": [],
      "stateMutability": "nonpayable",
      "type": "function"
    },
    {
      "inputs": [
        {
          "internalType": "uint256",
          "name": "_gameId",
          "type": "uint256"
        },
        {
          "internalType": "enum LeftOrRight",
          "name": "_leftOrRight",
          "type": "uint8"
        },
        {
          "internalType": "enum UpOrDown",
          "name": "_upOrDown",
          "type": "uint8"
        },
        {
          "internalType": "enum Action",
          "name": "_action",
          "type": "uint8"
        }
      ],
      "name": "takeFreeTurn",
      "outputs": [],
      "stateMutability": "nonpayable",
      "type": "function"
    },
    {
      "inputs": [
        {
          "internalType": "uint256",
          "name": "_gameId",
          "type": "uint256"
        },
        {
          "internalType": "enum LeftOrRight",
          "name": "_leftOrRight",
          "type": "uint8"
        },
        {
          "internalType": "enum UpOrDown",
          "name": "_upOrDown",
          "type": "uint8"
        },
        {
          "internalType": "enum Action",
          "name": "_action",
          "type": "uint8"
        }
      ],
      "name": "takeTurn",
      "outputs": [],
      "stateMutability": "nonpayable",
      "type": "function"
    },
    {
      "inputs": [],
      "name": "torpedoAccel",
      "outputs": [
        {
          "internalType": "int256",
          "name": "",
          "type": "int256"
        }
      ],
      "stateMutability": "view",
      "type": "function"
    },
    {
      "inputs": [],
      "name": "torpedoFuel",
      "outputs": [
        {
          "internalType": "uint256",
          "name": "",
          "type": "uint256"
        }
      ],
      "stateMutability": "view",
      "type": "function"
    },
    {
      "inputs": [],
      "name": "torpedoRange",
      "outputs": [
        {
          "internalType": "int256",
          "name": "",
          "type": "int256"
        }
      ],
      "stateMutability": "view",
      "type": "function"
    },
    {
      "inputs": [
        {
          "internalType": "address",
          "name": "newOwner",
          "type": "address"
        }
      ],
      "name": "transferOwnership",
      "outputs": [],
      "stateMutability": "nonpayable",
      "type": "function"
    },
    {
      "inputs": [],
      "name": "turnTimeout",
      "outputs": [
        {
          "internalType": "uint256",
          "name": "",
          "type": "uint256"
        }
      ],
      "stateMutability": "view",
      "type": "function"
    },
    {
      "inputs": [],
      "name": "withdrawFee",
      "outputs": [],
      "stateMutability": "nonpayable",
      "type": "function"
    }
  ],
  "transactionHash": "0x458a9d497d44dcbe3e2bdf1d8ad931456f5000ca97880701f83de7f8b8d89cba",
  "args": [],
  "numDeployments": 1,
  "solcInputHash": "1b03538850d5997dbd5b14d0ae787837",
  "bytecode": "0x608060405266038d7ea4c68000600455600a600555600060065560056007556005600855600a6009556002600a556001600b556001600c5562015180600d556001600e60006101000a81548160ff0219169083151502179055506000600f5560006012553480156200007057600080fd5b506200007c3362000082565b620000d2565b600080546001600160a01b038381166001600160a01b0319831681178455604051919092169283917f8be0079c531659141344cd1fd0a4f28419497f9722a3daafe3b4186f6b6457e09190a35050565b61487380620000e26000396000f3fe60806040526004361061023b5760003560e01c80637ce3489b1161012e578063c15e7e30116100ab578063d0399bb81161006f578063d0399bb81461067a578063e2eb41ff1461069a578063e941fa7814610758578063f2fde38b1461076d578063f9d860731461078d57600080fd5b8063c15e7e30146105fc578063c1699a981461061c578063c2e80b4714610624578063cab896dc14610644578063cd607b621461065a57600080fd5b80638da5cb5b116100f25780638da5cb5b1461056157806391c8767114610589578063a2f77bcc146105a9578063b69667fe146105d6578063bf8e9176146105e957600080fd5b80637ce3489b146104c15780637f17b79d146104e15780637fd6f15c146105015780638456cb591461051757806384d2957e1461052c57600080fd5b8063526aef4c116101bc5780636461625311610180578063646162531461044057806367c5f6e5146104605780636cc4b0b7146104805780636d64aa0614610496578063715018a6146104ac57600080fd5b8063526aef4c146103af578063544722af146103d157806356ce1175146103e75780635c12cd4b146103fd57806360b71d4e1461042a57600080fd5b80632ad852ab116102035780632ad852ab146103155780633c6e43a91461033557806341b02d711461035957806346b9bfe41461036f5780634f764e351461038f57600080fd5b806302fb0c5e146102405780630aa1b2661461026f578063117a5b901461029c57806314a8a004146102d357806323673f78146102f5575b600080fd5b34801561024c57600080fd5b50600e5461025a9060ff1681565b60405190151581526020015b60405180910390f35b34801561027b57600080fd5b5061028f61028a366004613e79565b6107a3565b6040516102669190614146565b3480156102a857600080fd5b506102bc6102b73660046141a8565b610cfa565b6040516102669b9a999897969594939291906141c1565b3480156102df57600080fd5b506102f36102ee36600461425c565b611056565b005b34801561030157600080fd5b506102f3610310366004613e79565b611124565b34801561032157600080fd5b506102f36103303660046141a8565b611191565b34801561034157600080fd5b5061034b60075481565b604051908152602001610266565b34801561036557600080fd5b5061034b600b5481565b34801561037b57600080fd5b506102f361038a3660046141a8565b6111d0565b34801561039b57600080fd5b506102f36103aa3660046141a8565b6111dd565b3480156103bb57600080fd5b506103c46111ea565b60405161026691906142af565b3480156103dd57600080fd5b5061034b600a5481565b3480156103f357600080fd5b5061034b60085481565b34801561040957600080fd5b5061041d610418366004613e79565b6112d4565b6040516102669190614307565b34801561043657600080fd5b5061034b60065481565b34801561044c57600080fd5b506102f361045b3660046141a8565b61146c565b34801561046c57600080fd5b506102f361047b3660046141a8565b61153d565b34801561048c57600080fd5b5061034b600d5481565b3480156104a257600080fd5b5061034b600c5481565b3480156104b857600080fd5b506102f361154a565b3480156104cd57600080fd5b506102f36104dc3660046141a8565b61155e565b3480156104ed57600080fd5b506102f36104fc3660046141a8565b61156b565b34801561050d57600080fd5b5061034b60055481565b34801561052357600080fd5b506102f3611578565b34801561053857600080fd5b5061054c6105473660046143c7565b61158c565b60408051928352602083019190915201610266565b34801561056d57600080fd5b506000546040516001600160a01b039091168152602001610266565b34801561059557600080fd5b506102f36105a43660046141a8565b611710565b3480156105b557600080fd5b506105c96105c43660046141a8565b61179d565b6040516102669190614404565b6102f36105e4366004613e79565b611bd5565b6102f36105f73660046141a8565b611c25565b34801561060857600080fd5b506102f361061736600461425c565b611c52565b6102f3611cc5565b34801561063057600080fd5b506102f361063f3660046141a8565b611f16565b34801561065057600080fd5b5061034b60045481565b34801561066657600080fd5b506102f36106753660046141a8565b611f23565b34801561068657600080fd5b506102f36106953660046141a8565b611f30565b3480156106a657600080fd5b5061070a6106b5366004613e79565b601060205260009081526040902080546003820154600483015460058401546006850154600786015460088701546009880154600a909801546001600160a01b03909716979596949593949293919290919089565b604080516001600160a01b03909a168a5260208a0198909852968801959095526060870193909352608086019190915260a085015260c084015260e083015261010082015261012001610266565b34801561076457600080fd5b506102f3612020565b34801561077957600080fd5b506102f3610788366004613e79565b61205e565b34801561079957600080fd5b5061034b60095481565b6001600160a01b038116600090815260106020908152604080832060010180548251818502810185019093528083526060949383018282801561080557602002820191906000526020600020905b8154815260200190600101908083116107f1575b505050505090506000815167ffffffffffffffff81111561082857610828614417565b60405190808252806020026020018201604052801561086157816020015b61084e613d17565b8152602001906001900390816108465790505b50905060005b8251811015610cf257601160008483815181106108865761088661442d565b602090810291909101810151825281810192909252604090810160009081208251610180810184528154815260018201546001600160a01b03908116828701526002830154811682860152845160e0810186526003840180549092168152855180870187526004850154815260058501548189015281880152855180870187526006850154815260078501548189015281870152600884015460608281019190915260098501546080830152600a850180548851818b0281018b0190995280895294989597918901969295939460a08701949293919290919084015b828210156109d25760008481526020908190206040805160a081018252600586029092018054606084019081526001808301546080860152908452825180840184526002830154815260038301548187015284860152600490910154918301919091529083529092019101610962565b50505050815260200160088201805480602002602001604051908101604052809291908181526020016000905b82821015610a48576000848152602090819020604080516060810182526002860290920180548385019081526001918201549284019290925290825290835290920191016109ff565b5050509152505081526040805160e081018252600c840180546001600160a01b0316825282518084018452600d8601548152600e8601546020828101919091528381019190915283518085018552600f8701548152601087015481830152838501526011860154606084015260128601546080840152601386018054855181840281018401909652808652958201959394929360a08601939260009084015b82821015610b575760008481526020908190206040805160a081018252600586029092018054606084019081526001808301546080860152908452825180840184526002830154815260038301548187015284860152600490910154918301919091529083529092019101610ae7565b50505050815260200160088201805480602002602001604051908101604052809291908181526020016000905b82821015610bcd57600084815260209081902060408051606081018252600286029092018054838501908152600191820154928401929092529082529083529092019101610b84565b505050915250508152601582015460209091019060ff166007811115610bf557610bf5613ff1565b6007811115610c0657610c06613ff1565b8152602001601682015481526020016017820160009054906101000a90046001600160a01b03166001600160a01b03166001600160a01b031681526020016018820154815260200160198201548152602001601a8201805480602002602001604051908101604052809291908181526020018280548015610ca657602002820191906000526020600020905b815481526020019060010190808311610c92575b5050509183525050601b919091015460ff1615156020909101528251839083908110610cd457610cd461442d565b60200260200101819052508080610cea90614459565b915050610867565b509392505050565b6011602090815260009182526040808320805460018201546002830154845160e0810186526003850180546001600160a01b03908116835287518089018952600488015481526005880154818b0152838a015287518089018952600688015481526007880154818b0152838901526008870154606084015260098701546080840152600a870180548951818c0281018c01909a52808a52969a9582169991909416979295919460a0870194929184015b82821015610e1a5760008481526020908190206040805160a081018252600586029092018054606084019081526001808301546080860152908452825180840184526002830154815260038301548187015284860152600490910154918301919091529083529092019101610daa565b50505050815260200160088201805480602002602001604051908101604052809291908181526020016000905b82821015610e9057600084815260209081902060408051606081018252600286029092018054838501908152600191820154928401929092529082529083529092019101610e47565b505050915250506040805160e081018252600c840180546001600160a01b0316825282518084018452600d8601548152600e8601546020828101919091528084019190915283518085018552600f87015481526010870154818301528385015260118601546060840152601286015460808401526013860180548551818402810184019096528086529596959394929360a08601939260009084015b82821015610f9c5760008481526020908190206040805160a081018252600586029092018054606084019081526001808301546080860152908452825180840184526002830154815260038301548187015284860152600490910154918301919091529083529092019101610f2c565b50505050815260200160088201805480602002602001604051908101604052809291908181526020016000905b8282101561101257600084815260209081902060408051606081018252600286029092018054838501908152600191820154928401929092529082529083529092019101610fc9565b5050509152505060158201546016830154601784015460188501546019860154601b90960154949560ff9485169593946001600160a01b039093169391929091168b565b6000848152601160205260409020601b81015460ff166110895760405163592c9ed360e11b815260040160405180910390fd5b6006601582015460ff1660078111156110a4576110a4613ff1565b146110c15760405162a3097160e01b815260040160405180910390fd5b60178101546001600160a01b031633146110ee57604051631cc191eb60e31b815260040160405180910390fd5b6110fa600160c8614472565b81601901540361111157601b8101805460ff191690555b61111d858585856120d4565b5050505050565b600e5460ff166111475760405163ab35696f60e01b815260040160405180910390fd5b6001600160a01b0381166000908152601060205260409020600a01546003116111835760405163592c9ed360e11b815260040160405180910390fd5b61118e81600161250e565b50565b336000908152601060205260409020600a0154600310156111c55760405163592c9ed360e11b815260040160405180910390fd5b61118e816001612674565b6111d86127b1565b600b55565b6111e56127b1565b600a55565b606060006111f8600161280b565b67ffffffffffffffff81111561121057611210614417565b60405190808252806020026020018201604052801561125557816020015b604080518082019091526000808252602082015281526020019060019003908161122e5790505b50905060005b611265600161280b565b8110156112ce5760008061127a60018461281c565b915091506040518060400160405280836001600160a01b03168152602001828152508484815181106112ae576112ae61442d565b6020026020010181905250505080806112c690614459565b91505061125b565b50919050565b61133a60405180610160016040528060006001600160a01b03168152602001606081526020016060815260200160008152602001600081526020016000815260200160008152602001600081526020016000815260200160008152602001600081525090565b6001600160a01b03808316600090815260106020908152604091829020825161016081018452815490941684526001810180548451818502810185019095528085529193858401939092908301828280156113b457602002820191906000526020600020905b8154815260200190600101908083116113a0575b505050505081526020016002820180548060200260200160405190810160405280929190818152602001828054801561140c57602002820191906000526020600020905b8154815260200190600101908083116113f8575b5050505050815260200160038201548152602001600482015481526020016005820154815260200160068201548152602001600782015481526020016008820154815260200160098201548152602001600a820154815250509050919050565b60008181526011602052604090206006601582015460ff16600781111561149557611495613ff1565b146114b25760405162a3097160e01b815260040160405180910390fd5b60018101546001600160a01b031633148015906114dc575060028101546001600160a01b03163314155b156114fa57604051631794a8af60e11b815260040160405180910390fd5b600d54601882015461150c9042614472565b101561152b57604051635ada9a9960e01b815260040160405180910390fd5b6115398260008060006120d4565b5050565b6115456127b1565b600755565b6115526127b1565b61155c6000612838565b565b6115666127b1565b600555565b6115736127b1565b600455565b6115806127b1565b600e805460ff19169055565b6000806103206115a461159f8688614485565b612888565b13156115b4575083905082611708565b600060028460078111156115ca576115ca613ff1565b14806115e7575060048460078111156115e5576115e5613ff1565b145b156115f457506064611691565b600184600781111561160857611608613ff1565b14806116255750600384600781111561162357611623613ff1565b145b1561163257506000611691565b600584600781111561164657611646613ff1565b0361165357506032611691565b60405162461bcd60e51b815260206004820152600e60248201526d125b9d985b1a59081c995cdd5b1d60921b60448201526064015b60405180910390fd5b6000806116a1888885600161289f565b9150915060008082156116cb576116b8848b614485565b91506116c4848a6144ac565b90506116e4565b6116d5848b6144ac565b91506116e1848a614485565b90505b60008212156116f257600091505b60008112156116ff575060005b90955093505050505b935093915050565b6000818152601160205260409020600201546001600160a01b0316331461174d5760405163da271c6960e01b815260048101829052602401611688565b60008181526011602052604081206016015460068054919290916117729084906144d4565b909155505060009081526011602052604081206016810191909155601501805460ff19166007179055565b6117a5613d17565b60008281526011602090815260408083208151610180810183528154815260018201546001600160a01b03908116828601526002830154811682850152835160e0810185526003840180549092168152845180860186526004850154815260058501548188015281870152845180860186526006850154815260078501548188015281860152600884015460608281019190915260098501546080830152600a850180548751818a0281018a0190985280885294989597918901969295939460a0870194919290919084015b828210156118e15760008481526020908190206040805160a081018252600586029092018054606084019081526001808301546080860152908452825180840184526002830154815260038301548187015284860152600490910154918301919091529083529092019101611871565b50505050815260200160088201805480602002602001604051908101604052809291908181526020016000905b828210156119575760008481526020908190206040805160608101825260028602909201805483850190815260019182015492840192909252908252908352909201910161190e565b5050509152505081526040805160e081018252600c840180546001600160a01b0316825282518084018452600d8601548152600e8601546020828101919091528381019190915283518085018552600f8701548152601087015481830152838501526011860154606084015260128601546080840152601386018054855181840281018401909652808652958201959394929360a08601939260009084015b82821015611a665760008481526020908190206040805160a0810182526005860290920180546060840190815260018083015460808601529084528251808401845260028301548152600383015481870152848601526004909101549183019190915290835290920191016119f6565b50505050815260200160088201805480602002602001604051908101604052809291908181526020016000905b82821015611adc57600084815260209081902060408051606081018252600286029092018054838501908152600191820154928401929092529082529083529092019101611a93565b505050915250508152601582015460209091019060ff166007811115611b0457611b04613ff1565b6007811115611b1557611b15613ff1565b8152602001601682015481526020016017820160009054906101000a90046001600160a01b03166001600160a01b03166001600160a01b031681526020016018820154815260200160198201548152602001601a8201805480602002602001604051908101604052809291908181526020018280548015611bb557602002820191906000526020600020905b815481526020019060010190808311611ba1575b5050509183525050601b919091015460ff16151560209091015292915050565b600e5460ff16611bf85760405163ab35696f60e01b815260040160405180910390fd5b6004543414611c1a57604051631036b5ad60e31b815260040160405180910390fd5b61118e81600061250e565b6004543414611c4757604051631036b5ad60e31b815260040160405180910390fd5b61118e816000612674565b60008481526011602052604090206006601582015460ff166007811115611c7b57611c7b613ff1565b14611c985760405162a3097160e01b815260040160405180910390fd5b60178101546001600160a01b0316331461111157604051631cc191eb60e31b815260040160405180910390fd5b600e5460ff16611ce85760405163ab35696f60e01b815260040160405180910390fd5b6004543414611d0a57604051631036b5ad60e31b815260040160405180910390fd5b336000908152601060205260409020546001600160a01b0316611d3057611d30336129e5565b600f54600003611df65760128054906000611d4a83614459565b9091555050601254600f8181556000828152601160209081526040808320948555600194850180546001600160a01b0319163390811790915584548452818420346016909101558084526010835281842085548188018054808a01825590875285872001558554600290910180549788018155855292842090950191909155915491519192917f9aa587534c85aa2ba48b98ff99fee0cc8eb86a8965d3f542170059a691760a9b9190a3565b600f546000908152601160205260409020600101546001600160a01b03163303611e3357604051630edb0c8f60e21b815260040160405180910390fd5b600f805460009081526011602052604080822060020180546001600160a01b03191633179055915481529081206016018054349290611e739084906144d4565b90915550503360009081526010602090815260408220600f8054600180840180548083018255908752858720019190915581546002909301805491820181558552929093209091015554611ec690612b4e565b600f5460008181526011602052604080822060010154905133926001600160a01b03909216917fb557d97ea9c1990e22ef70ef429658b7ee91548555170ee2e47762cf6382502291a46000600f55565b611f1e6127b1565b600855565b611f2b6127b1565b600955565b6000818152601160205260409020600101546001600160a01b03163314801590611f7457506000818152601160205260409020600201546001600160a01b03163314155b15611f9257604051631794a8af60e11b815260040160405180910390fd5b600660008281526011602052604090206015015460ff166007811115611fba57611fba613ff1565b14611fd75760405162a3097160e01b815260040160405180910390fd5b600d54600082815260116020526040902060180154611ff69042614472565b101561201557604051635ada9a9960e01b815260040160405180910390fd5b61118e816005612e25565b6120286127b1565b600654604051339180156108fc02916000818181858888f19350505050158015612056573d6000803e3d6000fd5b506000600655565b6120666127b1565b6001600160a01b0381166120cb5760405162461bcd60e51b815260206004820152602660248201527f4f776e61626c653a206e6577206f776e657220697320746865207a65726f206160448201526564647265737360d01b6064820152608401611688565b61118e81612838565b60008481526011602052604081206001810154601782015491929182916001600160a01b0390811691160361211257505060038101600c820161211d565b5050600c8101600382015b600186600281111561213157612131613ff1565b0361215957600182600301600101600082825461214e9190614485565b909155506121909050565b600286600281111561216d5761216d613ff1565b0361219057600182600301600101600082825461218a91906144ac565b90915550505b60018560028111156121a4576121a4613ff1565b036121cc5760018260030160000160008282546121c19190614485565b909155506122039050565b60028560028111156121e0576121e0613ff1565b036122035760018260030160000160008282546121fd91906144ac565b90915550505b600184600281111561221757612217613ff1565b036122f95781600501546000036122415760405163bab1d9e760e01b815260040160405180910390fd5b60018260050160008282546122569190614472565b90915550506040805160a08101825260018085015460608301908152600280870154608085015290835283518085018552600380880154825260048089015460208481019190915280870193845260095497870197885260078a01805480880182556000918252908290209751805160059092029098019081559681015195870195909555915180519386019390935591909201519083015591519101556123a4565b600284600281111561230d5761230d613ff1565b036123a457816006015460000361233757604051630adb358f60e11b815260040160405180910390fd5b600182600601600082825461234c9190614472565b9091555050604080516060810182526001808501546020808401918252600280880154958501959095529083526008860180548084018255600091825290829020935180519190950290930192835592909201519101555b6123ad82613444565b6123b78383613483565b6123c183836134e8565b6123cf838383600801613564565b6123dd838284600701613631565b426018840155600183015460178401546001600160a01b0391821691160361242a5760028301546017840180546001600160a01b0319166001600160a01b03909216919091179055612451565b60018301546017840180546001600160a01b0319166001600160a01b039092169190911790555b601a83018054600181018255600091825260209091204391015560405187907fb5c131b80f6f0b196ea5f2672d248f2e498684b5fe5122351947c22e276ef9479061249d90869061464b565b60405180910390a286336001600160a01b03167f1ea9a7c5f4d358403eb4c7d2516217b8e5246be47d5cce6219da7fead44bd9a48888886040516124e393929190614752565b60405180910390a3600183601901600082825461250091906144d4565b909155505050505050505050565b336000908152601060205260409020546001600160a01b031661253457612534336129e5565b6001600160a01b038281166000908152601060205260409020541661255c5761255c826129e5565b336001600160a01b0383160361258557604051630edb0c8f60e21b815260040160405180910390fd5b6012805490600061259583614459565b90915550506012546000818152601160209081526040808320848155600180820180546001600160a01b031990811633908117909255600280850180546001600160a01b038d16931683179055346016860155601b90940180548a151560ff199091161790558187526010865284872083018054808501825590885286882001889055808752848720808401805480860182559089528789200189905590930180549283018155865293852001859055905184939192917f64104361ad73841dc20b552e4700f3f464329596092336a5e3c02d8862623b6691a4505050565b6000828152601160205260409020600201546001600160a01b031633146126b15760405163da271c6960e01b815260048101839052602401611688565b600082815260116020526040812060160180543492906126d29084906144d4565b90915550506000828152601160209081526040808320601b8101805460ff1916861515179055600101546001600160a01b0316835260109091528120600a0180549161271d83614459565b90915550506000828152601160209081526040808320600201546001600160a01b0316835260109091528120600a0180549161275883614459565b919050555061276682612b4e565b600082815260116020526040808220600101549051849233926001600160a01b0316917fbfd436d24d21060f278a8b528282bc3a5bca811b5e108e411c10ca75d65f64679190a45050565b6000546001600160a01b0316331461155c5760405162461bcd60e51b815260206004820181905260248201527f4f776e61626c653a2063616c6c6572206973206e6f7420746865206f776e65726044820152606401611688565b600061281682613a58565b92915050565b600080808061282b8686613a63565b9097909650945050505050565b600080546001600160a01b038381166001600160a01b0319831681178455604051919092169283917f8be0079c531659141344cd1fd0a4f28419497f9722a3daafe3b4186f6b6457e09190a35050565b60008082121561289b5761281682614788565b5090565b600080612710830286861082816128b8578888036128bc565b8789035b9050610466811061290f5760405162461bcd60e51b815260206004820152601b60248201527f526174696e6720646966666572656e636520746f6f206c6172676500000000006044820152606401611688565b81156129665761032081106129665760405162461bcd60e51b815260206004820152601b60248201527f526174696e6720646966666572656e636520746f6f206c6172676500000000006044820152606401611688565b60008060008060008661297d578561032001612983565b85610320035b9450612995600a601987046001613a8e565b93506129a084613b4b565b92508260640188816129b4576129b46147a4565b0491508b8b0290508181109850886129ce578181036129d2565b8082035b9950505050505050505094509492505050565b6001600160a01b038181166000908152601060205260409020541615612a1e57604051630ea075bf60e21b815260040160405180910390fd5b60408051610160810182526001600160a01b0383811680835283516000808252602080830187528086019283528651828152808201885286880152606086018290526080860182905260a0860182905260c0860182905260e086018290526104b0610100870152610120860182905261014086018290529281526010835294909420835181546001600160a01b03191693169290921782559251805192939192612ace9260018501920190613da1565b5060408201518051612aea916002840191602090910190613da1565b50606082015160038201556080820151600482015560a0820151600582015560c0820151600682015560e082015160078201556101008201516008820155610120820151600982015561014090910151600a909101556115396001826104b0613b64565b60008181526011602052604081206003810191600c90910190612b726002436147ba565b15612b7f57600019612b82565b60015b600085815260116020526040908190206001015485546001600160a01b0319166001600160a01b03909116178555805180820190915290915080612bc783600c6147ce565b8152602001612bd6600c614788565b9052805160018501556020908101516002808601919091556040805180820190915260008082529201829052600385018290556004850182905560075460058601556008546006860155612c2a90426147ba565b15612c3757600019612c3a565b60015b600086815260116020526040908190206002015485546001600160a01b0319166001600160a01b03909116178555805180820190915290915080612c7f83600c6147ce565b8152600c6020918201528151600186015590810151600280860191909155604080518082019091526000808252920182905260038501829055600485019190915560075460058501556008546006850155612cda90446147fe565b600003612d1b5760008581526011602052604090206001810154601790910180546001600160a01b0319166001600160a01b03909216919091179055612d51565b60008581526011602052604090206002810154601790910180546001600160a01b0319166001600160a01b039092169190911790555b600085815260116020526040812060158101805460ff19166006179055600554601690910154606491612d8391614812565b612d8d9190614829565b90508060066000828254612da191906144d4565b909155505060008681526011602052604081206016018054839290612dc7908490614472565b90915550506000868152601160205260408082206002810154600190910154915189936001600160a01b0392831693909216917fee0dca10a9957dad74da3fe318a3ccc561c46d96be0ab0b66e7aff32aab94cf391a4505050505050565b600082815260116020526040902060158101805483919060ff19166001836007811115612e5457612e54613ff1565b02179055506017810180546001600160a01b03191690556001826007811115612e7f57612e7f613ff1565b03612f3e5760028101546001600160a01b03166000908152601060205260408120600301805460019290612eb49084906144d4565b90915550506001818101546001600160a01b031660009081526010602052604081206007018054909190612ee99084906144d4565b9091555050601681018054600091829055600283015460405191926001600160a01b039091169183156108fc0291849190818181858888f19350505050158015612f37573d6000803e3d6000fd5b5050613330565b6002826007811115612f5257612f52613ff1565b03613018576001818101546001600160a01b031660009081526010602052604081206003018054909190612f879084906144d4565b909155505060028101546001600160a01b03166000908152601060205260408120600701805460019290612fbc9084906144d4565b9091555050601681018054600091829055600183015460405191926001600160a01b039091169183156108fc0291849190818181858888f1935050505015801561300a573d6000803e3d6000fd5b505060006016820155613330565b600382600781111561302c5761302c613ff1565b036131285760028101546001600160a01b031660009081526010602052604081206004018054600192906130619084906144d4565b90915550506001818101546001600160a01b0316600090815260106020526040812060050180549091906130969084906144d4565b90915550506016810180546000918290559060646130b583604b614812565b6130bf9190614829565b60028401546040519192506001600160a01b03169082156108fc029083906000818181858888f193505050501580156130fc573d6000803e3d6000fd5b506131078183614472565b9150816006600082825461311b91906144d4565b9091555061333092505050565b600482600781111561313c5761313c613ff1565b0361320c576001818101546001600160a01b0316600090815260106020526040812060040180549091906131719084906144d4565b909155505060028101546001600160a01b031660009081526010602052604081206005018054600192906131a69084906144d4565b90915550506016810180546000918290559060646131c583604b614812565b6131cf9190614829565b60018401546040519192506001600160a01b03169082156108fc029083906000818181858888f193505050501580156130fc573d6000803e3d6000fd5b600582600781111561322057613220613ff1565b03613330576001818101546001600160a01b0316600090815260106020526040812060060180549091906132559084906144d4565b909155505060028101546001600160a01b0316600090815260106020526040812060060180546001929061328a9084906144d4565b9091555050601681018054600091829055906132a7600283614829565b60018401546040519192506001600160a01b03169082156108fc029083906000818181858888f193505050501580156132e4573d6000803e3d6000fd5b506132ef8183614472565b60028401546040519193506001600160a01b03169083156108fc029084906000818181858888f1935050505015801561332c573d6000803e3d6000fd5b5050505b600281015460018201546001600160a01b039081169116146133fc5760018101546001600160a01b039081166000908152601060205260408082206008908101546002860154909416835290822001549091829161338f91908661158c565b600180860180546001600160a01b03908116600090815260106020526040808220600890810188905560028b01548416835291200184905590549395509193506133dc9290911684613b64565b5060028301546133f8906001906001600160a01b031683613b64565b5050505b6002810154600182015460405185926001600160a01b039081169216907fd13e8f06e2982264b04d30acdae3d74f4241e1dde5c38af5f6a38820d14348f590600090a4505050565b600381015460018201805460009061345d9084906144ac565b9091555050600481015460028201805460009061347b9084906144ac565b909155505050565b600f6134958260010160000154612888565b13806134b05750600f6134ae8260010160010154612888565b135b1561153957600182015481546001600160a01b039182169116036134db578154611539906003612e25565b8154611539906004612e25565b600761352c82600101604051806040016040529081600082015481526020016001820154815250506040518060400160405280600081526020016000815250613b82565b1161153957600182015481546001600160a01b03918216911603613557578154611539906001612e25565b8154611539906002612e25565b60005b815481101561362b57600a5460408051808201909152600185015481526002850154602082015283546135dc91908590859081106135a7576135a761442d565b906000526020600020906002020160000160405180604001604052908160008201548152602001600182015481525050613b82565b1161361957600184015483546001600160a01b0391821691160361360c578354613607906001612e25565b613619565b8354613619906002612e25565b8061362381614459565b915050613567565b50505050565b60005b815481101561362b5781818154811061364f5761364f61442d565b90600052602060002090600502016004015460000315613a4657600182828154811061367d5761367d61442d565b9060005260206000209060050201600401600082825461369d9190614472565b9250508190555060008282815481106136b8576136b861442d565b600091825260209091206005909102015460018501546136d89190614485565b905060008383815481106136ee576136ee61442d565b600091825260209091206001600590920201015460028601546137119190614485565b9050600082131561375e5760018484815481106137305761373061442d565b9060005260206000209060050201600201600001600082825461375391906144ac565b909155506137a49050565b60008212156137a457600184848154811061377b5761377b61442d565b9060005260206000209060050201600201600001600082825461379e9190614485565b90915550505b60008113156137ef5760018484815481106137c1576137c161442d565b906000526020600020906005020160020160010160008282546137e491906144ac565b909155506138359050565b600081121561383557600184848154811061380c5761380c61442d565b9060005260206000209060050201600201600101600082825461382f9190614485565b90915550505b8383815481106138475761384761442d565b90600052602060002090600502016002016000015484848154811061386e5761386e61442d565b9060005260206000209060050201600001600001600082825461389191906144ac565b925050819055508383815481106138aa576138aa61442d565b9060005260206000209060050201600201600101548484815481106138d1576138d161442d565b906000526020600020906005020160000160010160008282546138f491906144ac565b92505081905550600c54613936866001016000015486868154811061391b5761391b61442d565b600091825260209091206005909102015461159f9190614485565b131580156139815750600c5461397e866001016001015486868154811061395f5761395f61442d565b90600052602060002090600502016000016001015461159f9190614485565b13155b156139be57600186015485546001600160a01b039182169116036139b15785546139ac906001612e25565b6139be565b85546139be906002612e25565b6007613a148585815481106139d5576139d561442d565b60009182526020808320604080518082018252600590940290910180548452600101548383015280518082019091528381529081019290925290613b82565b11613a43576000848481548110613a2d57613a2d61442d565b9060005260206000209060050201600401819055505b50505b80613a5081614459565b915050613634565b600061281682613bbd565b60008080613a718585613bc7565b600081815260029690960160205260409095205494959350505050565b6000838015613b2e57600184168015613aa957859250613aad565b8392505b508260011c8460011c94505b8415613b28578560801c15613acd57600080fd5b85860281810181811015613ae057600080fd5b8590049650506001851615613b1d578583028387820414613b06578615613b0657600080fd5b81810181811015613b1657600080fd5b8590049350505b8460011c9450613ab9565b50610cf2565b838015613b3e5760009250613b42565b8392505b50509392505050565b6000612816613b5f613b5f613b5f85613bd3565b613bd3565b6000613b7a846001600160a01b03851684613c77565b949350505050565b6000613b9b8260200151846020015161159f9190614485565b82518451613bac9161159f91614485565b613bb691906144ac565b9392505050565b6000612816825490565b6000613bb68383613c94565b60b581600160881b8110613bec5760409190911b9060801c5b69010000000000000000008110613c085760209190911b9060401c5b650100000000008110613c205760109190911b9060201c5b63010000008110613c365760089190911b9060101c5b62010000010260121c80820401600190811c80830401811c80830401811c80830401811c80830401811c80830401811c80830401901c908190048111900390565b60008281526002840160205260408120829055613b7a8484613cbe565b6000826000018281548110613cab57613cab61442d565b9060005260206000200154905092915050565b6000818152600183016020526040812054613bb690849084908490613d0f57508154600181810184556000848152602080822090930184905584548482528286019093526040902091909155612816565b506000612816565b6040518061018001604052806000815260200160006001600160a01b0316815260200160006001600160a01b03168152602001613d52613de8565b8152602001613d5f613de8565b8152602001600081526020016000815260200160006001600160a01b031681526020016000815260200160008152602001606081526020016000151581525090565b828054828255906000526020600020908101928215613ddc579160200282015b82811115613ddc578251825591602001919060010190613dc1565b5061289b929150613e64565b6040518060e0016040528060006001600160a01b03168152602001613e20604051806040016040528060008152602001600081525090565b8152602001613e42604051806040016040528060008152602001600081525090565b8152602001600081526020016000815260200160608152602001606081525090565b5b8082111561289b5760008155600101613e65565b600060208284031215613e8b57600080fd5b81356001600160a01b0381168114613bb657600080fd5b600081518084526020808501945080840160005b83811015613ee757613ed48783515180518252602090810151910152565b6040969096019590820190600101613eb6565b509495945050505050565b80516001600160a01b0316825260208082015180518285015280820151604085015260009161012091858301919050604085810151805160608901526020810151608089015250606086015160a08881019190915260808088015160c08a01528188015160e08a01969096528551948590526101408901958401949091906000905b80821015613fc9578651613f9389825180518252602090810151910152565b86810151613fad878b018280518252602090810151910152565b5085015188850152968201969585019560019190910190613f74565b5050505050505060c0830151848203610100860152613fe88282613ea2565b95945050505050565b634e487b7160e01b600052602160045260246000fd5b6008811061401757614017613ff1565b9052565b600081518084526020808501945080840160005b83811015613ee75781518752958201959082019060010161402f565b600061018082518452602083015161406e60208601826001600160a01b03169052565b50604083015161408960408601826001600160a01b03169052565b5060608301518160608601526140a182860182613ef2565b915050608083015184820360808601526140bb8282613ef2565b91505060a08301516140d060a0860182614007565b5060c083015160c085015260e08301516140f560e08601826001600160a01b03169052565b50610100838101519085015261012080840151908501526101408084015185830382870152614124838261401b565b925050506101608084015161413c8287018215159052565b5090949350505050565b6000602080830181845280855180835260408601915060408160051b870101925083870160005b8281101561419b57603f1988860301845261418985835161404b565b9450928501929085019060010161416d565b5092979650505050505050565b6000602082840312156141ba57600080fd5b5035919050565b8b81526001600160a01b038b811660208301528a81166040830152610160606083018190526000916141f58483018d613ef2565b91508382036080850152614209828c613ef2565b925061421860a085018b614007565b8860c085015280881660e0850152505084610100830152836101208301528215156101408301529c9b505050505050505050505050565b6003811061118e57600080fd5b6000806000806080858703121561427257600080fd5b8435935060208501356142848161424f565b925060408501356142948161424f565b915060608501356142a48161424f565b939692955090935050565b602080825282518282018190526000919060409081850190868401855b828110156142fa57815180516001600160a01b031685528601518685015292840192908501906001016142cc565b5091979650505050505050565b602081526143216020820183516001600160a01b03169052565b6000602083015161016080604085015261433f61018085018361401b565b91506040850151601f1985840301606086015261435c838261401b565b92505060608501516080850152608085015160a085015260a085015160c085015260c085015160e085015260e0850151610100818187015280870151915050610120818187015280870151915050610140818187015280870151838701525050508091505092915050565b6000806000606084860312156143dc57600080fd5b83359250602084013591506040840135600881106143f957600080fd5b809150509250925092565b602081526000613bb6602083018461404b565b634e487b7160e01b600052604160045260246000fd5b634e487b7160e01b600052603260045260246000fd5b634e487b7160e01b600052601160045260246000fd5b60006001820161446b5761446b614443565b5060010190565b8181038181111561281657612816614443565b81810360008312801583831316838312821617156144a5576144a5614443565b5092915050565b80820182811260008312801582168215821617156144cc576144cc614443565b505092915050565b8082018082111561281657612816614443565b6000815480845260208401935082600052602060002060005b828110156145295781548652600180830154602088015260409096019560029092019101614500565b5093949350505050565b80546001600160a01b0316825260006101208381016001614564602087018683018054825260010154602090910152565b600385015460608701526004850154608087015260058581015460a088810191909152600687015460c089015260e08801949094526007860180549384905260009081526020812061014089019590945b808310156145fa5785548752600186015460208801526002860154604088015260038601546060880152600486015460808801529581019594830194918401916145b5565b505050505050838103610100850152613b7a81600885016144e7565b6000815480845260208085019450836000528060002060005b83811015613ee75781548752958201956001918201910161462f565b6020815281546020820152600061466c60018401546001600160a01b031690565b6001600160a01b0390811660408401526002840154166060830152610180608083018190526146a26101a0840160038601614533565b601f19808583030160a08601526146bc82600c8801614533565b91506146cc601587015460ff1690565b6146d960c0870182614007565b50601686015460e086015260178601546001600160a01b0316610100860152601886015461012086015260198601546101408601528482030161016085015261472581601a8701614616565b9050614735601b86015460ff1690565b1515919093015250919050565b6003811061118e5761118e613ff1565b6060810161475f85614742565b84825261476b84614742565b83602083015261477a83614742565b826040830152949350505050565b6000600160ff1b820161479d5761479d614443565b5060000390565b634e487b7160e01b600052601260045260246000fd5b6000826147c9576147c96147a4565b500790565b80820260008212600160ff1b841416156147ea576147ea614443565b818105831482151761281657612816614443565b60008261480d5761480d6147a4565b500690565b808202811582820484141761281657612816614443565b600082614838576148386147a4565b50049056fea2646970667358221220f022669bc451545be2194a0161f4a4f51bce2458fd015fc511774c31d159816664736f6c63430008130033",
  "devdoc": {
    "kind": "dev",
    "methods": {
      "owner()": {
        "details": "Returns the address of the current owner."
      },
      "renounceOwnership()": {
        "details": "Leaves the contract without owner. It will not be possible to call `onlyOwner` functions. Can only be called by the current owner. NOTE: Renouncing ownership will leave the contract without an owner, thereby disabling any functionality that is only available to the owner."
      },
      "transferOwnership(address)": {
        "details": "Transfers ownership of the contract to a new account (`newOwner`). Can only be called by the current owner."
      }
    },
    "version": 1
  },
  "userdoc": {
    "kind": "user",
    "methods": {},
    "version": 1
  },
  "storageLayout": {
    "storage": [
      {
        "astId": 7,
        "contract": "contracts/TheThirdLaw.sol:TheThirdLaw",
        "label": "_owner",
        "offset": 0,
        "slot": "0",
        "type": "t_address"
      },
      {
        "astId": 2417,
        "contract": "contracts/TheThirdLaw.sol:TheThirdLaw",
        "label": "addressToELO",
        "offset": 0,
        "slot": "1",
        "type": "t_struct(AddressToUintMap)900_storage"
      },
      {
        "astId": 2420,
        "contract": "contracts/TheThirdLaw.sol:TheThirdLaw",
        "label": "gameCost",
        "offset": 0,
        "slot": "4",
        "type": "t_uint256"
      },
      {
        "astId": 2423,
        "contract": "contracts/TheThirdLaw.sol:TheThirdLaw",
        "label": "feePercent",
        "offset": 0,
        "slot": "5",
        "type": "t_uint256"
      },
      {
        "astId": 2426,
        "contract": "contracts/TheThirdLaw.sol:TheThirdLaw",
        "label": "feeBalance",
        "offset": 0,
        "slot": "6",
        "type": "t_uint256"
      },
      {
        "astId": 2429,
        "contract": "contracts/TheThirdLaw.sol:TheThirdLaw",
        "label": "maxTorpedoes",
        "offset": 0,
        "slot": "7",
        "type": "t_uint256"
      },
      {
        "astId": 2432,
        "contract": "contracts/TheThirdLaw.sol:TheThirdLaw",
        "label": "maxMines",
        "offset": 0,
        "slot": "8",
        "type": "t_uint256"
      },
      {
        "astId": 2435,
        "contract": "contracts/TheThirdLaw.sol:TheThirdLaw",
        "label": "torpedoFuel",
        "offset": 0,
        "slot": "9",
        "type": "t_uint256"
      },
      {
        "astId": 2438,
        "contract": "contracts/TheThirdLaw.sol:TheThirdLaw",
        "label": "mineRange",
        "offset": 0,
        "slot": "10",
        "type": "t_uint256"
      },
      {
        "astId": 2441,
        "contract": "contracts/TheThirdLaw.sol:TheThirdLaw",
        "label": "torpedoAccel",
        "offset": 0,
        "slot": "11",
        "type": "t_int256"
      },
      {
        "astId": 2444,
        "contract": "contracts/TheThirdLaw.sol:TheThirdLaw",
        "label": "torpedoRange",
        "offset": 0,
        "slot": "12",
        "type": "t_int256"
      },
      {
        "astId": 2447,
        "contract": "contracts/TheThirdLaw.sol:TheThirdLaw",
        "label": "turnTimeout",
        "offset": 0,
        "slot": "13",
        "type": "t_uint256"
      },
      {
        "astId": 2450,
        "contract": "contracts/TheThirdLaw.sol:TheThirdLaw",
        "label": "active",
        "offset": 0,
        "slot": "14",
        "type": "t_bool"
      },
      {
        "astId": 2453,
        "contract": "contracts/TheThirdLaw.sol:TheThirdLaw",
        "label": "openGameId",
        "offset": 0,
        "slot": "15",
        "type": "t_uint256"
      },
      {
        "astId": 2458,
        "contract": "contracts/TheThirdLaw.sol:TheThirdLaw",
        "label": "players",
        "offset": 0,
        "slot": "16",
        "type": "t_mapping(t_address,t_struct(Player)2588_storage)"
      },
      {
        "astId": 2463,
        "contract": "contracts/TheThirdLaw.sol:TheThirdLaw",
        "label": "games",
        "offset": 0,
        "slot": "17",
        "type": "t_mapping(t_uint256,t_struct(Game)2563_storage)"
      },
      {
        "astId": 2466,
        "contract": "contracts/TheThirdLaw.sol:TheThirdLaw",
        "label": "numGames",
        "offset": 0,
        "slot": "18",
        "type": "t_uint256"
      }
    ],
    "types": {
      "t_address": {
        "encoding": "inplace",
        "label": "address",
        "numberOfBytes": "20"
      },
      "t_array(t_bytes32)dyn_storage": {
        "base": "t_bytes32",
        "encoding": "dynamic_array",
        "label": "bytes32[]",
        "numberOfBytes": "32"
      },
      "t_array(t_struct(Mine)2622_storage)dyn_storage": {
        "base": "t_struct(Mine)2622_storage",
        "encoding": "dynamic_array",
        "label": "struct TheThirdLaw.Mine[]",
        "numberOfBytes": "32"
      },
      "t_array(t_struct(Torpedo)2618_storage)dyn_storage": {
        "base": "t_struct(Torpedo)2618_storage",
        "encoding": "dynamic_array",
        "label": "struct TheThirdLaw.Torpedo[]",
        "numberOfBytes": "32"
      },
      "t_array(t_uint256)dyn_storage": {
        "base": "t_uint256",
        "encoding": "dynamic_array",
        "label": "uint256[]",
        "numberOfBytes": "32"
      },
      "t_bool": {
        "encoding": "inplace",
        "label": "bool",
        "numberOfBytes": "1"
      },
      "t_bytes32": {
        "encoding": "inplace",
        "label": "bytes32",
        "numberOfBytes": "32"
      },
      "t_enum(Status)2408": {
        "encoding": "inplace",
        "label": "enum Status",
        "numberOfBytes": "1"
      },
      "t_int256": {
        "encoding": "inplace",
        "label": "int256",
        "numberOfBytes": "32"
      },
      "t_mapping(t_address,t_struct(Player)2588_storage)": {
        "encoding": "mapping",
        "key": "t_address",
        "label": "mapping(address => struct TheThirdLaw.Player)",
        "numberOfBytes": "32",
        "value": "t_struct(Player)2588_storage"
      },
      "t_mapping(t_bytes32,t_bytes32)": {
        "encoding": "mapping",
        "key": "t_bytes32",
        "label": "mapping(bytes32 => bytes32)",
        "numberOfBytes": "32",
        "value": "t_bytes32"
      },
      "t_mapping(t_bytes32,t_uint256)": {
        "encoding": "mapping",
        "key": "t_bytes32",
        "label": "mapping(bytes32 => uint256)",
        "numberOfBytes": "32",
        "value": "t_uint256"
      },
      "t_mapping(t_uint256,t_struct(Game)2563_storage)": {
        "encoding": "mapping",
        "key": "t_uint256",
        "label": "mapping(uint256 => struct TheThirdLaw.Game)",
        "numberOfBytes": "32",
        "value": "t_struct(Game)2563_storage"
      },
      "t_struct(AddressToUintMap)900_storage": {
        "encoding": "inplace",
        "label": "struct EnumerableMap.AddressToUintMap",
        "members": [
          {
            "astId": 899,
            "contract": "contracts/TheThirdLaw.sol:TheThirdLaw",
            "label": "_inner",
            "offset": 0,
            "slot": "0",
            "type": "t_struct(Bytes32ToBytes32Map)150_storage"
          }
        ],
        "numberOfBytes": "96"
      },
      "t_struct(Bytes32Set)1597_storage": {
        "encoding": "inplace",
        "label": "struct EnumerableSet.Bytes32Set",
        "members": [
          {
            "astId": 1596,
            "contract": "contracts/TheThirdLaw.sol:TheThirdLaw",
            "label": "_inner",
            "offset": 0,
            "slot": "0",
            "type": "t_struct(Set)1403_storage"
          }
        ],
        "numberOfBytes": "64"
      },
      "t_struct(Bytes32ToBytes32Map)150_storage": {
        "encoding": "inplace",
        "label": "struct EnumerableMap.Bytes32ToBytes32Map",
        "members": [
          {
            "astId": 145,
            "contract": "contracts/TheThirdLaw.sol:TheThirdLaw",
            "label": "_keys",
            "offset": 0,
            "slot": "0",
            "type": "t_struct(Bytes32Set)1597_storage"
          },
          {
            "astId": 149,
            "contract": "contracts/TheThirdLaw.sol:TheThirdLaw",
            "label": "_values",
            "offset": 0,
            "slot": "2",
            "type": "t_mapping(t_bytes32,t_bytes32)"
          }
        ],
        "numberOfBytes": "96"
      },
      "t_struct(Game)2563_storage": {
        "encoding": "inplace",
        "label": "struct TheThirdLaw.Game",
        "members": [
          {
            "astId": 2536,
            "contract": "contracts/TheThirdLaw.sol:TheThirdLaw",
            "label": "id",
            "offset": 0,
            "slot": "0",
            "type": "t_uint256"
          },
          {
            "astId": 2538,
            "contract": "contracts/TheThirdLaw.sol:TheThirdLaw",
            "label": "player1Address",
            "offset": 0,
            "slot": "1",
            "type": "t_address"
          },
          {
            "astId": 2540,
            "contract": "contracts/TheThirdLaw.sol:TheThirdLaw",
            "label": "player2Address",
            "offset": 0,
            "slot": "2",
            "type": "t_address"
          },
          {
            "astId": 2543,
            "contract": "contracts/TheThirdLaw.sol:TheThirdLaw",
            "label": "player1Ship",
            "offset": 0,
            "slot": "3",
            "type": "t_struct(Ship)2609_storage"
          },
          {
            "astId": 2546,
            "contract": "contracts/TheThirdLaw.sol:TheThirdLaw",
            "label": "player2Ship",
            "offset": 0,
            "slot": "12",
            "type": "t_struct(Ship)2609_storage"
          },
          {
            "astId": 2549,
            "contract": "contracts/TheThirdLaw.sol:TheThirdLaw",
            "label": "status",
            "offset": 0,
            "slot": "21",
            "type": "t_enum(Status)2408"
          },
          {
            "astId": 2551,
            "contract": "contracts/TheThirdLaw.sol:TheThirdLaw",
            "label": "value",
            "offset": 0,
            "slot": "22",
            "type": "t_uint256"
          },
          {
            "astId": 2553,
            "contract": "contracts/TheThirdLaw.sol:TheThirdLaw",
            "label": "currentPlayer",
            "offset": 0,
            "slot": "23",
            "type": "t_address"
          },
          {
            "astId": 2555,
            "contract": "contracts/TheThirdLaw.sol:TheThirdLaw",
            "label": "lastTurnTimestamp",
            "offset": 0,
            "slot": "24",
            "type": "t_uint256"
          },
          {
            "astId": 2557,
            "contract": "contracts/TheThirdLaw.sol:TheThirdLaw",
            "label": "round",
            "offset": 0,
            "slot": "25",
            "type": "t_uint256"
          },
          {
            "astId": 2560,
            "contract": "contracts/TheThirdLaw.sol:TheThirdLaw",
            "label": "logBlocks",
            "offset": 0,
            "slot": "26",
            "type": "t_array(t_uint256)dyn_storage"
          },
          {
            "astId": 2562,
            "contract": "contracts/TheThirdLaw.sol:TheThirdLaw",
            "label": "free",
            "offset": 0,
            "slot": "27",
            "type": "t_bool"
          }
        ],
        "numberOfBytes": "896"
      },
      "t_struct(Mine)2622_storage": {
        "encoding": "inplace",
        "label": "struct TheThirdLaw.Mine",
        "members": [
          {
            "astId": 2621,
            "contract": "contracts/TheThirdLaw.sol:TheThirdLaw",
            "label": "position",
            "offset": 0,
            "slot": "0",
            "type": "t_struct(Position)2627_storage"
          }
        ],
        "numberOfBytes": "64"
      },
      "t_struct(Player)2588_storage": {
        "encoding": "inplace",
        "label": "struct TheThirdLaw.Player",
        "members": [
          {
            "astId": 2565,
            "contract": "contracts/TheThirdLaw.sol:TheThirdLaw",
            "label": "ownerAddress",
            "offset": 0,
            "slot": "0",
            "type": "t_address"
          },
          {
            "astId": 2568,
            "contract": "contracts/TheThirdLaw.sol:TheThirdLaw",
            "label": "gameIds",
            "offset": 0,
            "slot": "1",
            "type": "t_array(t_uint256)dyn_storage"
          },
          {
            "astId": 2571,
            "contract": "contracts/TheThirdLaw.sol:TheThirdLaw",
            "label": "inviteIds",
            "offset": 0,
            "slot": "2",
            "type": "t_array(t_uint256)dyn_storage"
          },
          {
            "astId": 2573,
            "contract": "contracts/TheThirdLaw.sol:TheThirdLaw",
            "label": "victories",
            "offset": 0,
            "slot": "3",
            "type": "t_uint256"
          },
          {
            "astId": 2575,
            "contract": "contracts/TheThirdLaw.sol:TheThirdLaw",
            "label": "defaultVictories",
            "offset": 0,
            "slot": "4",
            "type": "t_uint256"
          },
          {
            "astId": 2577,
            "contract": "contracts/TheThirdLaw.sol:TheThirdLaw",
            "label": "defaultLosses",
            "offset": 0,
            "slot": "5",
            "type": "t_uint256"
          },
          {
            "astId": 2579,
            "contract": "contracts/TheThirdLaw.sol:TheThirdLaw",
            "label": "draws",
            "offset": 0,
            "slot": "6",
            "type": "t_uint256"
          },
          {
            "astId": 2581,
            "contract": "contracts/TheThirdLaw.sol:TheThirdLaw",
            "label": "losses",
            "offset": 0,
            "slot": "7",
            "type": "t_uint256"
          },
          {
            "astId": 2583,
            "contract": "contracts/TheThirdLaw.sol:TheThirdLaw",
            "label": "eloRating",
            "offset": 0,
            "slot": "8",
            "type": "t_uint256"
          },
          {
            "astId": 2585,
            "contract": "contracts/TheThirdLaw.sol:TheThirdLaw",
            "label": "currentShipId",
            "offset": 0,
            "slot": "9",
            "type": "t_uint256"
          },
          {
            "astId": 2587,
            "contract": "contracts/TheThirdLaw.sol:TheThirdLaw",
            "label": "gamesStarted",
            "offset": 0,
            "slot": "10",
            "type": "t_uint256"
          }
        ],
        "numberOfBytes": "352"
      },
      "t_struct(Position)2627_storage": {
        "encoding": "inplace",
        "label": "struct TheThirdLaw.Position",
        "members": [
          {
            "astId": 2624,
            "contract": "contracts/TheThirdLaw.sol:TheThirdLaw",
            "label": "row",
            "offset": 0,
            "slot": "0",
            "type": "t_int256"
          },
          {
            "astId": 2626,
            "contract": "contracts/TheThirdLaw.sol:TheThirdLaw",
            "label": "col",
            "offset": 0,
            "slot": "1",
            "type": "t_int256"
          }
        ],
        "numberOfBytes": "64"
      },
      "t_struct(Set)1403_storage": {
        "encoding": "inplace",
        "label": "struct EnumerableSet.Set",
        "members": [
          {
            "astId": 1398,
            "contract": "contracts/TheThirdLaw.sol:TheThirdLaw",
            "label": "_values",
            "offset": 0,
            "slot": "0",
            "type": "t_array(t_bytes32)dyn_storage"
          },
          {
            "astId": 1402,
            "contract": "contracts/TheThirdLaw.sol:TheThirdLaw",
            "label": "_indexes",
            "offset": 0,
            "slot": "1",
            "type": "t_mapping(t_bytes32,t_uint256)"
          }
        ],
        "numberOfBytes": "64"
      },
      "t_struct(Ship)2609_storage": {
        "encoding": "inplace",
        "label": "struct TheThirdLaw.Ship",
        "members": [
          {
            "astId": 2590,
            "contract": "contracts/TheThirdLaw.sol:TheThirdLaw",
            "label": "ownerAddress",
            "offset": 0,
            "slot": "0",
            "type": "t_address"
          },
          {
            "astId": 2593,
            "contract": "contracts/TheThirdLaw.sol:TheThirdLaw",
            "label": "position",
            "offset": 0,
            "slot": "1",
            "type": "t_struct(Position)2627_storage"
          },
          {
            "astId": 2596,
            "contract": "contracts/TheThirdLaw.sol:TheThirdLaw",
            "label": "velocity",
            "offset": 0,
            "slot": "3",
            "type": "t_struct(Velocity)2632_storage"
          },
          {
            "astId": 2598,
            "contract": "contracts/TheThirdLaw.sol:TheThirdLaw",
            "label": "remainingTorpedoes",
            "offset": 0,
            "slot": "5",
            "type": "t_uint256"
          },
          {
            "astId": 2600,
            "contract": "contracts/TheThirdLaw.sol:TheThirdLaw",
            "label": "remainingMines",
            "offset": 0,
            "slot": "6",
            "type": "t_uint256"
          },
          {
            "astId": 2604,
            "contract": "contracts/TheThirdLaw.sol:TheThirdLaw",
            "label": "torpedoes",
            "offset": 0,
            "slot": "7",
            "type": "t_array(t_struct(Torpedo)2618_storage)dyn_storage"
          },
          {
            "astId": 2608,
            "contract": "contracts/TheThirdLaw.sol:TheThirdLaw",
            "label": "mines",
            "offset": 0,
            "slot": "8",
            "type": "t_array(t_struct(Mine)2622_storage)dyn_storage"
          }
        ],
        "numberOfBytes": "288"
      },
      "t_struct(Torpedo)2618_storage": {
        "encoding": "inplace",
        "label": "struct TheThirdLaw.Torpedo",
        "members": [
          {
            "astId": 2612,
            "contract": "contracts/TheThirdLaw.sol:TheThirdLaw",
            "label": "position",
            "offset": 0,
            "slot": "0",
            "type": "t_struct(Position)2627_storage"
          },
          {
            "astId": 2615,
            "contract": "contracts/TheThirdLaw.sol:TheThirdLaw",
            "label": "velocity",
            "offset": 0,
            "slot": "2",
            "type": "t_struct(Velocity)2632_storage"
          },
          {
            "astId": 2617,
            "contract": "contracts/TheThirdLaw.sol:TheThirdLaw",
            "label": "remainingFuel",
            "offset": 0,
            "slot": "4",
            "type": "t_uint256"
          }
        ],
        "numberOfBytes": "160"
      },
      "t_struct(Velocity)2632_storage": {
        "encoding": "inplace",
        "label": "struct TheThirdLaw.Velocity",
        "members": [
          {
            "astId": 2629,
            "contract": "contracts/TheThirdLaw.sol:TheThirdLaw",
            "label": "row",
            "offset": 0,
            "slot": "0",
            "type": "t_int256"
          },
          {
            "astId": 2631,
            "contract": "contracts/TheThirdLaw.sol:TheThirdLaw",
            "label": "col",
            "offset": 0,
            "slot": "1",
            "type": "t_int256"
          }
        ],
        "numberOfBytes": "64"
      },
      "t_uint256": {
        "encoding": "inplace",
        "label": "uint256",
        "numberOfBytes": "32"
      }
    }
  }
}